{
  "_format": "hh-sol-artifact-1",
  "contractName": "NoRushToTrash",
  "sourceName": "contracts/NoRushToTrash.sol",
  "abi": [
    {
      "inputs": [
        {
          "internalType": "address",
          "name": "_co2TokenAddress",
          "type": "address"
        }
      ],
      "stateMutability": "nonpayable",
      "type": "constructor"
    },
    {
      "anonymous": false,
      "inputs": [
        {
          "indexed": true,
          "internalType": "uint256",
          "name": "itemId",
          "type": "uint256"
        }
      ],
      "name": "ItemCancelled",
      "type": "event"
    },
    {
      "anonymous": false,
      "inputs": [
        {
          "indexed": true,
          "internalType": "uint256",
          "name": "itemId",
          "type": "uint256"
        },
        {
          "indexed": false,
          "internalType": "address",
          "name": "owner",
          "type": "address"
        },
        {
          "indexed": false,
          "internalType": "string",
          "name": "title",
          "type": "string"
        }
      ],
      "name": "ItemPosted",
      "type": "event"
    },
    {
      "anonymous": false,
      "inputs": [
        {
          "indexed": true,
          "internalType": "uint256",
          "name": "itemId",
          "type": "uint256"
        },
        {
          "indexed": false,
          "internalType": "address",
          "name": "buyer",
          "type": "address"
        }
      ],
      "name": "ItemReserved",
      "type": "event"
    },
    {
      "anonymous": false,
      "inputs": [
        {
          "indexed": true,
          "internalType": "uint256",
          "name": "itemId",
          "type": "uint256"
        },
        {
          "indexed": false,
          "internalType": "address",
          "name": "by",
          "type": "address"
        }
      ],
      "name": "TransactionConfirmed",
      "type": "event"
    },
    {
      "inputs": [
        {
          "internalType": "uint256",
          "name": "_itemId",
          "type": "uint256"
        }
      ],
      "name": "cancelItem",
      "outputs": [],
      "stateMutability": "nonpayable",
      "type": "function"
    },
    {
      "inputs": [],
      "name": "carbonToken",
      "outputs": [
        {
          "internalType": "contract IERC20",
          "name": "",
          "type": "address"
        }
      ],
      "stateMutability": "view",
      "type": "function"
    },
    {
      "inputs": [
        {
          "internalType": "uint256",
          "name": "_itemId",
          "type": "uint256"
        },
        {
          "internalType": "bool",
          "name": "_isSeller",
          "type": "bool"
        }
      ],
      "name": "confirmTransaction",
      "outputs": [],
      "stateMutability": "nonpayable",
      "type": "function"
    },
    {
      "inputs": [
        {
          "internalType": "uint256",
          "name": "",
          "type": "uint256"
        }
      ],
      "name": "escrows",
      "outputs": [
        {
          "internalType": "uint256",
          "name": "itemId",
          "type": "uint256"
        },
        {
          "internalType": "address",
          "name": "buyer",
          "type": "address"
        },
        {
          "internalType": "bool",
          "name": "sellerConfirmed",
          "type": "bool"
        },
        {
          "internalType": "bool",
          "name": "buyerConfirmed",
          "type": "bool"
        }
      ],
      "stateMutability": "view",
      "type": "function"
    },
    {
      "inputs": [],
      "name": "itemCount",
      "outputs": [
        {
          "internalType": "uint256",
          "name": "",
          "type": "uint256"
        }
      ],
      "stateMutability": "view",
      "type": "function"
    },
    {
      "inputs": [
        {
          "internalType": "uint256",
          "name": "",
          "type": "uint256"
        }
      ],
      "name": "items",
      "outputs": [
        {
          "internalType": "uint256",
          "name": "id",
          "type": "uint256"
        },
        {
          "internalType": "address",
          "name": "owner",
          "type": "address"
        },
        {
          "internalType": "string",
          "name": "title",
          "type": "string"
        },
        {
          "internalType": "string",
          "name": "description",
          "type": "string"
        },
        {
          "internalType": "string",
          "name": "location",
          "type": "string"
        },
        {
          "internalType": "bool",
          "name": "isReserved",
          "type": "bool"
        }
      ],
      "stateMutability": "view",
      "type": "function"
    },
    {
      "inputs": [
        {
          "internalType": "string",
          "name": "_title",
          "type": "string"
        },
        {
          "internalType": "string",
          "name": "_description",
          "type": "string"
        },
        {
          "internalType": "string",
          "name": "_location",
          "type": "string"
        }
      ],
      "name": "postItem",
      "outputs": [],
      "stateMutability": "nonpayable",
      "type": "function"
    },
    {
      "inputs": [
        {
          "internalType": "uint256",
          "name": "_itemId",
          "type": "uint256"
        }
      ],
      "name": "reserveItem",
      "outputs": [],
      "stateMutability": "nonpayable",
      "type": "function"
    },
    {
      "inputs": [],
      "name": "rewardAmount",
      "outputs": [
        {
          "internalType": "uint256",
          "name": "",
          "type": "uint256"
        }
      ],
      "stateMutability": "view",
      "type": "function"
    }
  ],
  "bytecode": "0x6080604052600080553480156200001557600080fd5b5060405162001e0a38038062001e0a83398181016040528101906200003b9190620000ed565b80600360006101000a81548173ffffffffffffffffffffffffffffffffffffffff021916908373ffffffffffffffffffffffffffffffffffffffff160217905550506200011f565b600080fd5b600073ffffffffffffffffffffffffffffffffffffffff82169050919050565b6000620000b58262000088565b9050919050565b620000c781620000a8565b8114620000d357600080fd5b50565b600081519050620000e781620000bc565b92915050565b60006020828403121562000106576200010562000083565b5b60006200011684828501620000d6565b91505092915050565b611cdb806200012f6000396000f3fe608060405234801561001057600080fd5b50600436106100935760003560e01c806382a71ef21161006657806382a71ef214610121578063bfb231d21461013f578063c6a725d814610174578063da1bac9014610190578063f7b2a7be146101ac57610093565b8063012f52ee1461009857806351563f8e146100cb57806363066a81146100e75780636bfb0d0114610103575b600080fd5b6100b260048036038101906100ad919061111b565b6101ca565b6040516100c294939291906111b3565b60405180910390f35b6100e560048036038101906100e0919061111b565b610234565b005b61010160048036038101906100fc919061111b565b6103f5565b005b61010b610651565b60405161011891906111f8565b60405180910390f35b610129610657565b6040516101369190611272565b60405180910390f35b6101596004803603810190610154919061111b565b61067d565b60405161016b9695949392919061131d565b60405180910390f35b61018e600480360381019061018991906113bf565b61087e565b005b6101aa60048036038101906101a59190611464565b610e38565b005b6101b4611072565b6040516101c191906111f8565b60405180910390f35b60026020528060005260406000206000915090508060000154908060010160009054906101000a900473ffffffffffffffffffffffffffffffffffffffff16908060010160149054906101000a900460ff16908060010160159054906101000a900460ff16905084565b3373ffffffffffffffffffffffffffffffffffffffff166001600083815260200190815260200160002060010160009054906101000a900473ffffffffffffffffffffffffffffffffffffffff1673ffffffffffffffffffffffffffffffffffffffff16146102d8576040517f08c379a00000000000000000000000000000000000000000000000000000000081526004016102cf90611564565b60405180910390fd5b6001600082815260200190815260200160002060050160009054906101000a900460ff161561033c576040517f08c379a0000000000000000000000000000000000000000000000000000000008152600401610333906115d0565b60405180910390fd5b600160008281526020019081526020016000206000808201600090556001820160006101000a81549073ffffffffffffffffffffffffffffffffffffffff021916905560028201600061038f919061107e565b60038201600061039f919061107e565b6004820160006103af919061107e565b6005820160006101000a81549060ff02191690555050807f6875ab0cd79fc59886259e999e56eb8da549fa524709389bc624972a5896995860405160405180910390a250565b6001600082815260200190815260200160002060050160009054906101000a900460ff1615610459576040517f08c379a00000000000000000000000000000000000000000000000000000000081526004016104509061163c565b60405180910390fd5b600180600083815260200190815260200160002060050160006101000a81548160ff021916908315150217905550600360009054906101000a900473ffffffffffffffffffffffffffffffffffffffff1673ffffffffffffffffffffffffffffffffffffffff166323b872dd3330678ac7230489e800006040518463ffffffff1660e01b81526004016104ee9392919061165c565b6020604051808303816000875af115801561050d573d6000803e3d6000fd5b505050506040513d601f19601f8201168201806040525081019061053191906116a8565b5060405180608001604052808281526020013373ffffffffffffffffffffffffffffffffffffffff16815260200160001515815260200160001515815250600260008381526020019081526020016000206000820151816000015560208201518160010160006101000a81548173ffffffffffffffffffffffffffffffffffffffff021916908373ffffffffffffffffffffffffffffffffffffffff16021790555060408201518160010160146101000a81548160ff02191690831515021790555060608201518160010160156101000a81548160ff021916908315150217905550905050807fc4a79e6b336a18fb3c671df39fc4169d265783611a3d1d0d92e622d6fc6671193360405161064691906116d5565b60405180910390a250565b60005481565b600360009054906101000a900473ffffffffffffffffffffffffffffffffffffffff1681565b60016020528060005260406000206000915090508060000154908060010160009054906101000a900473ffffffffffffffffffffffffffffffffffffffff16908060020180546106cc9061171f565b80601f01602080910402602001604051908101604052809291908181526020018280546106f89061171f565b80156107455780601f1061071a57610100808354040283529160200191610745565b820191906000526020600020905b81548152906001019060200180831161072857829003601f168201915b50505050509080600301805461075a9061171f565b80601f01602080910402602001604051908101604052809291908181526020018280546107869061171f565b80156107d35780601f106107a8576101008083540402835291602001916107d3565b820191906000526020600020905b8154815290600101906020018083116107b657829003601f168201915b5050505050908060040180546107e89061171f565b80601f01602080910402602001604051908101604052809291908181526020018280546108149061171f565b80156108615780601f1061083657610100808354040283529160200191610861565b820191906000526020600020905b81548152906001019060200180831161084457829003601f168201915b5050505050908060050160009054906101000a900460ff16905086565b60006002600084815260200190815260200160002090503373ffffffffffffffffffffffffffffffffffffffff168160010160009054906101000a900473ffffffffffffffffffffffffffffffffffffffff1673ffffffffffffffffffffffffffffffffffffffff16148061095457503373ffffffffffffffffffffffffffffffffffffffff166001600085815260200190815260200160002060010160009054906101000a900473ffffffffffffffffffffffffffffffffffffffff1673ffffffffffffffffffffffffffffffffffffffff16145b610993576040517f08c379a000000000000000000000000000000000000000000000000000000000815260040161098a9061179c565b60405180910390fd5b8115610a5f573373ffffffffffffffffffffffffffffffffffffffff166001600085815260200190815260200160002060010160009054906101000a900473ffffffffffffffffffffffffffffffffffffffff1673ffffffffffffffffffffffffffffffffffffffff1614610a3d576040517f08c379a0000000000000000000000000000000000000000000000000000000008152600401610a3490611808565b60405180910390fd5b60018160010160146101000a81548160ff021916908315150217905550610b0f565b3373ffffffffffffffffffffffffffffffffffffffff168160010160009054906101000a900473ffffffffffffffffffffffffffffffffffffffff1673ffffffffffffffffffffffffffffffffffffffff1614610af1576040517f08c379a0000000000000000000000000000000000000000000000000000000008152600401610ae890611874565b60405180910390fd5b60018160010160156101000a81548160ff0219169083151502179055505b8060010160149054906101000a900460ff168015610b3b57508060010160159054906101000a900460ff165b15610dfb57600360009054906101000a900473ffffffffffffffffffffffffffffffffffffffff1673ffffffffffffffffffffffffffffffffffffffff1663a9059cbb8260010160009054906101000a900473ffffffffffffffffffffffffffffffffffffffff166002678ac7230489e80000610bb891906118f2565b6040518363ffffffff1660e01b8152600401610bd5929190611923565b6020604051808303816000875af1158015610bf4573d6000803e3d6000fd5b505050506040513d601f19601f82011682018060405250810190610c1891906116a8565b50600360009054906101000a900473ffffffffffffffffffffffffffffffffffffffff1673ffffffffffffffffffffffffffffffffffffffff1663a9059cbb6001600086815260200190815260200160002060010160009054906101000a900473ffffffffffffffffffffffffffffffffffffffff166002678ac7230489e80000610ca391906118f2565b6040518363ffffffff1660e01b8152600401610cc0929190611923565b6020604051808303816000875af1158015610cdf573d6000803e3d6000fd5b505050506040513d601f19601f82011682018060405250810190610d0391906116a8565b50600160008481526020019081526020016000206000808201600090556001820160006101000a81549073ffffffffffffffffffffffffffffffffffffffff0219169055600282016000610d57919061107e565b600382016000610d67919061107e565b600482016000610d77919061107e565b6005820160006101000a81549060ff02191690555050600260008481526020019081526020016000206000808201600090556001820160006101000a81549073ffffffffffffffffffffffffffffffffffffffff02191690556001820160146101000a81549060ff02191690556001820160156101000a81549060ff021916905550505b827f15c2f311c9e0f53b50388279894aeff029a3457884a6601e924fca879e12adcc33604051610e2b91906116d5565b60405180910390a2505050565b6000806000815480929190610e4c9061194c565b9190505590506040518060c001604052808281526020013373ffffffffffffffffffffffffffffffffffffffff16815260200188888080601f016020809104026020016040519081016040528093929190818152602001838380828437600081840152601f19601f82011690508083019250505050505050815260200186868080601f016020809104026020016040519081016040528093929190818152602001838380828437600081840152601f19601f82011690508083019250505050505050815260200184848080601f016020809104026020016040519081016040528093929190818152602001838380828437600081840152601f19601f82011690508083019250505050505050815260200160001515815250600160008381526020019081526020016000206000820151816000015560208201518160010160006101000a81548173ffffffffffffffffffffffffffffffffffffffff021916908373ffffffffffffffffffffffffffffffffffffffff1602179055506040820151816002019081610fdd9190611b65565b506060820151816003019081610ff39190611b65565b5060808201518160040190816110099190611b65565b5060a08201518160050160006101000a81548160ff021916908315150217905550905050807f6bce7d08a6b0a25ba820b0d5d4f32312e6a192690deaf8dc1c7303a42dadc04133898960405161106193929190611c73565b60405180910390a250505050505050565b678ac7230489e8000081565b50805461108a9061171f565b6000825580601f1061109c57506110bb565b601f0160209004906000526020600020908101906110ba91906110be565b5b50565b5b808211156110d75760008160009055506001016110bf565b5090565b600080fd5b600080fd5b6000819050919050565b6110f8816110e5565b811461110357600080fd5b50565b600081359050611115816110ef565b92915050565b600060208284031215611131576111306110db565b5b600061113f84828501611106565b91505092915050565b611151816110e5565b82525050565b600073ffffffffffffffffffffffffffffffffffffffff82169050919050565b600061118282611157565b9050919050565b61119281611177565b82525050565b60008115159050919050565b6111ad81611198565b82525050565b60006080820190506111c86000830187611148565b6111d56020830186611189565b6111e260408301856111a4565b6111ef60608301846111a4565b95945050505050565b600060208201905061120d6000830184611148565b92915050565b6000819050919050565b600061123861123361122e84611157565b611213565b611157565b9050919050565b600061124a8261121d565b9050919050565b600061125c8261123f565b9050919050565b61126c81611251565b82525050565b60006020820190506112876000830184611263565b92915050565b600081519050919050565b600082825260208201905092915050565b60005b838110156112c75780820151818401526020810190506112ac565b60008484015250505050565b6000601f19601f8301169050919050565b60006112ef8261128d565b6112f98185611298565b93506113098185602086016112a9565b611312816112d3565b840191505092915050565b600060c0820190506113326000830189611148565b61133f6020830188611189565b818103604083015261135181876112e4565b9050818103606083015261136581866112e4565b9050818103608083015261137981856112e4565b905061138860a08301846111a4565b979650505050505050565b61139c81611198565b81146113a757600080fd5b50565b6000813590506113b981611393565b92915050565b600080604083850312156113d6576113d56110db565b5b60006113e485828601611106565b92505060206113f5858286016113aa565b9150509250929050565b600080fd5b600080fd5b600080fd5b60008083601f840112611424576114236113ff565b5b8235905067ffffffffffffffff81111561144157611440611404565b5b60208301915083600182028301111561145d5761145c611409565b5b9250929050565b60008060008060008060608789031215611481576114806110db565b5b600087013567ffffffffffffffff81111561149f5761149e6110e0565b5b6114ab89828a0161140e565b9650965050602087013567ffffffffffffffff8111156114ce576114cd6110e0565b5b6114da89828a0161140e565b9450945050604087013567ffffffffffffffff8111156114fd576114fc6110e0565b5b61150989828a0161140e565b92509250509295509295509295565b7f4e6f7420746865206f776e657200000000000000000000000000000000000000600082015250565b600061154e600d83611298565b915061155982611518565b602082019050919050565b6000602082019050818103600083015261157d81611541565b9050919050565b7f4974656d20697320726573657276656400000000000000000000000000000000600082015250565b60006115ba601083611298565b91506115c582611584565b602082019050919050565b600060208201905081810360008301526115e9816115ad565b9050919050565b7f416c726561647920726573657276656400000000000000000000000000000000600082015250565b6000611626601083611298565b9150611631826115f0565b602082019050919050565b6000602082019050818103600083015261165581611619565b9050919050565b60006060820190506116716000830186611189565b61167e6020830185611189565b61168b6040830184611148565b949350505050565b6000815190506116a281611393565b92915050565b6000602082840312156116be576116bd6110db565b5b60006116cc84828501611693565b91505092915050565b60006020820190506116ea6000830184611189565b92915050565b7f4e487b7100000000000000000000000000000000000000000000000000000000600052602260045260246000fd5b6000600282049050600182168061173757607f821691505b60208210810361174a576117496116f0565b5b50919050565b7f4e6f742070617274206f662074686973207472616e73616374696f6e00000000600082015250565b6000611786601c83611298565b915061179182611750565b602082019050919050565b600060208201905081810360008301526117b581611779565b9050919050565b7f4e6f74207468652073656c6c6572000000000000000000000000000000000000600082015250565b60006117f2600e83611298565b91506117fd826117bc565b602082019050919050565b60006020820190508181036000830152611821816117e5565b9050919050565b7f4e6f742074686520627579657200000000000000000000000000000000000000600082015250565b600061185e600d83611298565b915061186982611828565b602082019050919050565b6000602082019050818103600083015261188d81611851565b9050919050565b7f4e487b7100000000000000000000000000000000000000000000000000000000600052601260045260246000fd5b7f4e487b7100000000000000000000000000000000000000000000000000000000600052601160045260246000fd5b60006118fd826110e5565b9150611908836110e5565b92508261191857611917611894565b5b828204905092915050565b60006040820190506119386000830185611189565b6119456020830184611148565b9392505050565b6000611957826110e5565b91507fffffffffffffffffffffffffffffffffffffffffffffffffffffffffffffffff8203611989576119886118c3565b5b600182019050919050565b7f4e487b7100000000000000000000000000000000000000000000000000000000600052604160045260246000fd5b60008190508160005260206000209050919050565b60006020601f8301049050919050565b600082821b905092915050565b600060088302611a257fffffffffffffffffffffffffffffffffffffffffffffffffffffffffffffffff826119e8565b611a2f86836119e8565b95508019841693508086168417925050509392505050565b6000611a62611a5d611a58846110e5565b611213565b6110e5565b9050919050565b6000819050919050565b611a7c83611a47565b611a90611a8882611a69565b8484546119f5565b825550505050565b600090565b611aa5611a98565b611ab0818484611a73565b505050565b5b81811015611ad457611ac9600082611a9d565b600181019050611ab6565b5050565b601f821115611b1957611aea816119c3565b611af3846119d8565b81016020851015611b02578190505b611b16611b0e856119d8565b830182611ab5565b50505b505050565b600082821c905092915050565b6000611b3c60001984600802611b1e565b1980831691505092915050565b6000611b558383611b2b565b9150826002028217905092915050565b611b6e8261128d565b67ffffffffffffffff811115611b8757611b86611994565b5b611b91825461171f565b611b9c828285611ad8565b600060209050601f831160018114611bcf5760008415611bbd578287015190505b611bc78582611b49565b865550611c2f565b601f198416611bdd866119c3565b60005b82811015611c0557848901518255600182019150602085019450602081019050611be0565b86831015611c225784890151611c1e601f891682611b2b565b8355505b6001600288020188555050505b505050505050565b82818337600083830152505050565b6000611c528385611298565b9350611c5f838584611c37565b611c68836112d3565b840190509392505050565b6000604082019050611c886000830186611189565b8181036020830152611c9b818486611c46565b905094935050505056fea2646970667358221220814973571ec7d400693ddbaf1eb81afe3c98fb175c93f54a2fe49e3f242c3db164736f6c63430008180033",
  "linkReferences": {},
  "deployedLinkReferences": {}
}