{
  "contracts/NoRushToTrash.sol": {
    "NoRushToTrash": {
      "abi": [
        {
          "inputs": [
            {
              "internalType": "address",
              "name": "_co2TokenAddress",
              "type": "address"
            }
          ],
          "stateMutability": "nonpayable",
          "type": "constructor"
        },
        {
          "anonymous": false,
          "inputs": [
            {
              "indexed": true,
              "internalType": "uint256",
              "name": "listingId",
              "type": "uint256"
            },
            {
              "indexed": false,
              "internalType": "address",
              "name": "by",
              "type": "address"
            }
          ],
          "name": "TransactionConfirmed",
          "type": "event"
        },
        {
          "anonymous": false,
          "inputs": [
            {
              "indexed": true,
              "internalType": "uint256",
              "name": "listingId",
              "type": "uint256"
            }
          ],
          "name": "listingCancelled",
          "type": "event"
        },
        {
          "anonymous": false,
          "inputs": [
            {
              "indexed": true,
              "internalType": "uint256",
              "name": "listingId",
              "type": "uint256"
            },
            {
              "indexed": false,
              "internalType": "address",
              "name": "owner",
              "type": "address"
            },
            {
              "indexed": false,
              "internalType": "string",
              "name": "title",
              "type": "string"
            }
          ],
          "name": "listingPosted",
          "type": "event"
        },
        {
          "anonymous": false,
          "inputs": [
            {
              "indexed": true,
              "internalType": "uint256",
              "name": "listingId",
              "type": "uint256"
            },
            {
              "indexed": false,
              "internalType": "address",
              "name": "buyer",
              "type": "address"
            }
          ],
          "name": "listingReserved",
          "type": "event"
        },
        {
          "inputs": [
            {
              "internalType": "uint256",
              "name": "_listingId",
              "type": "uint256"
            }
          ],
          "name": "cancelListing",
          "outputs": [],
          "stateMutability": "nonpayable",
          "type": "function"
        },
        {
          "inputs": [],
          "name": "carbonToken",
          "outputs": [
            {
              "internalType": "contract IERC20",
              "name": "",
              "type": "address"
            }
          ],
          "stateMutability": "view",
          "type": "function"
        },
        {
          "inputs": [
            {
              "internalType": "uint256",
              "name": "_listingId",
              "type": "uint256"
            },
            {
              "internalType": "bool",
              "name": "_isSeller",
              "type": "bool"
            }
          ],
          "name": "confirmTransaction",
          "outputs": [],
          "stateMutability": "nonpayable",
          "type": "function"
        },
        {
          "inputs": [
            {
              "internalType": "uint256",
              "name": "",
              "type": "uint256"
            }
          ],
          "name": "escrows",
          "outputs": [
            {
              "internalType": "uint256",
              "name": "listingId",
              "type": "uint256"
            },
            {
              "internalType": "address",
              "name": "buyer",
              "type": "address"
            },
            {
              "internalType": "bool",
              "name": "sellerConfirmed",
              "type": "bool"
            },
            {
              "internalType": "bool",
              "name": "buyerConfirmed",
              "type": "bool"
            }
          ],
          "stateMutability": "view",
          "type": "function"
        },
        {
          "inputs": [],
          "name": "listingCount",
          "outputs": [
            {
              "internalType": "uint256",
              "name": "",
              "type": "uint256"
            }
          ],
          "stateMutability": "view",
          "type": "function"
        },
        {
          "inputs": [
            {
              "internalType": "uint256",
              "name": "",
              "type": "uint256"
            }
          ],
          "name": "listings",
          "outputs": [
            {
              "internalType": "uint256",
              "name": "id",
              "type": "uint256"
            },
            {
              "internalType": "address",
              "name": "owner",
              "type": "address"
            },
            {
              "internalType": "string",
              "name": "title",
              "type": "string"
            },
            {
              "internalType": "string",
              "name": "category",
              "type": "string"
            },
            {
              "internalType": "string",
              "name": "description",
              "type": "string"
            },
            {
              "internalType": "string",
              "name": "condition",
              "type": "string"
            },
            {
              "internalType": "string",
              "name": "location",
              "type": "string"
            },
            {
              "internalType": "bool",
              "name": "isReserved",
              "type": "bool"
            },
            {
              "internalType": "string",
              "name": "cid",
              "type": "string"
            },
            {
              "internalType": "uint256",
              "name": "creationTime",
              "type": "uint256"
            }
          ],
          "stateMutability": "view",
          "type": "function"
        },
        {
          "inputs": [
            {
              "internalType": "string",
              "name": "_title",
              "type": "string"
            },
            {
              "internalType": "string",
              "name": "_category",
              "type": "string"
            },
            {
              "internalType": "string",
              "name": "_description",
              "type": "string"
            },
            {
              "internalType": "string",
              "name": "_condition",
              "type": "string"
            },
            {
              "internalType": "string",
              "name": "_location",
              "type": "string"
            },
            {
              "internalType": "string",
              "name": "_cid",
              "type": "string"
            }
          ],
          "name": "postListing",
          "outputs": [],
          "stateMutability": "nonpayable",
          "type": "function"
        },
        {
          "inputs": [
            {
              "internalType": "uint256",
              "name": "_listingId",
              "type": "uint256"
            }
          ],
          "name": "reserveListing",
          "outputs": [],
          "stateMutability": "nonpayable",
          "type": "function"
        },
        {
          "inputs": [],
          "name": "rewardAmount",
          "outputs": [
            {
              "internalType": "uint256",
              "name": "",
              "type": "uint256"
            }
          ],
          "stateMutability": "view",
          "type": "function"
        }
      ],
      "evm": {
        "bytecode": {
          "linkReferences": {},
          "object": "60803461007857601f61143438819003918201601f19168301916001600160401b0383118484101761007d5780849260209460405283398101031261007857516001600160a01b038116908190036100785760008055600380546001600160a01b0319169190911790556040516113a090816100948239f35b600080fd5b634e487b7160e01b600052604160045260246000fdfe608080604052600436101561001357600080fd5b60003560e01c908163012f52ee1461108657508063305a67a814610f8f578063451d034f14610df957806382a71ef214610dd0578063a9b07c2614610db2578063c6a725d814610ab5578063d73b3130146101c2578063de74e57b146100aa5763f7b2a7be1461008257600080fd5b346100a55760003660031901126100a5576020604051678ac7230489e800008152f35b600080fd5b346100a55760203660031901126100a557600435600052600160205260406000208054600160a01b6001900360018301541691600281016100ea90611166565b906100f760038201611166565b61010360048301611166565b61010f60058401611166565b61011b60068501611166565b91600785015460ff16936008860161013290611166565b956009015496604051998a998a5260208a01526101408060408b015289016101599161120c565b88810360608a015261016a9161120c565b878103608089015261017b9161120c565b86810360a088015261018c9161120c565b85810360c087015261019d9161120c565b90151560e08501528381036101008501526101b79161120c565b906101208301520390f35b346100a55760c03660031901126100a5576004356001600160401b0381116100a5576101f29036906004016110de565b6024356001600160401b0381116100a5576102119036906004016110de565b9190926044356001600160401b0381116100a5576102339036906004016110de565b9490936064356001600160401b0381116100a5576102559036906004016110de565b9590916084356001600160401b0381116100a5576102779036906004016110de565b60a4356001600160401b0381116100a5576102969036906004016110de565b9490956000549a6000198c14610a9f5760018c016000556040519c8d6001600160401b0361014082818101109201111761070f57608061031a8f92958f968f8f9e6103439f9c6103026103309e61030e946103249d6101408c016040528b523360208c0152369161124c565b6040890152369161124c565b6060860152369161124c565b910152369161124c565b60a08b0152369161124c565b60c0880152600060e0880152369161124c565b610100850152426101208501528260005260016020526040600020845181556001810160018060a01b036020870151166bffffffffffffffffffffffff60a01b82541617905560408501518051906001600160401b03821161070f5781906103ae600285015461110b565b601f8111610a6a575b50602090601f83116001146109f8576000926109ed575b50508160011b916000199060031b1c19161760028201555b60608501518051906001600160401b03821161070f57819061040b600385015461110b565b601f81116109b8575b50602090601f83116001146109465760009261093b575b50508160011b916000199060031b1c19161760038201555b60808501518051906001600160401b03821161070f578190610468600485015461110b565b601f8111610906575b50602090601f831160011461089457600092610889575b50508160011b916000199060031b1c19161760048201555b60a08501518051906001600160401b03821161070f5781906104c5600585015461110b565b601f8111610854575b50602090601f83116001146107e2576000926107d7575b50508160011b916000199060031b1c19161760058201555b60c08501518051906001600160401b03821161070f578190610522600685015461110b565b601f81116107a2575b50602090601f831160011461073057600092610725575b50508160011b916000199060031b1c19161760068201555b6007810160e0860151151560ff8019835416911617905560088101946101008101519586516001600160401b03811161070f57610597825461110b565b601f81116106d2575b506020601f821160011461063e5792600992826101209360609897967f9687b779e981aa6968b26fe96d9fbeb5abe0fab6b2b4ec65d5177ab6bb4667dc9b9c600092610633575b50508160011b916000199060031b1c19161790555b01519101558260405193849233845260406020850152816040850152848401376000828201840152601f01601f19168101030190a2005b015190508c806105e7565b601f198216988360005260206000209960005b8181106106ba5750837f9687b779e981aa6968b26fe96d9fbeb5abe0fab6b2b4ec65d5177ab6bb4667dc9a9b6060999897946009979461012097600195106106a1575b505050811b0190556105fc565b015160001960f88460031b161c191690558c8080610694565b838301518c556001909b019a60209384019301610651565b6106ff90836000526020600020601f840160051c81019160208510610705575b601f0160051c0190611292565b886105a0565b90915081906106f2565b634e487b7160e01b600052604160045260246000fd5b015190508780610542565b9250600684016000526020600020906000935b601f1984168510610787576001945083601f1981161061076e575b505050811b01600682015561055a565b015160001960f88460031b161c1916905587808061075e565b81810151835560209485019460019093019290910190610743565b6107d190600686016000526020600020601f850160051c8101916020861061070557601f0160051c0190611292565b8861052b565b0151905087806104e5565b9250600584016000526020600020906000935b601f1984168510610839576001945083601f19811610610820575b505050811b0160058201556104fd565b015160001960f88460031b161c19169055878080610810565b818101518355602094850194600190930192909101906107f5565b61088390600586016000526020600020601f850160051c8101916020861061070557601f0160051c0190611292565b886104ce565b015190508780610488565b9250600484016000526020600020906000935b601f19841685106108eb576001945083601f198116106108d2575b505050811b0160048201556104a0565b015160001960f88460031b161c191690558780806108c2565b818101518355602094850194600190930192909101906108a7565b61093590600486016000526020600020601f850160051c8101916020861061070557601f0160051c0190611292565b88610471565b01519050878061042b565b9250600384016000526020600020906000935b601f198416851061099d576001945083601f19811610610984575b505050811b016003820155610443565b015160001960f88460031b161c19169055878080610974565b81810151835560209485019460019093019290910190610959565b6109e790600386016000526020600020601f850160051c8101916020861061070557601f0160051c0190611292565b88610414565b0151905087806103ce565b9250600284016000526020600020906000935b601f1984168510610a4f576001945083601f19811610610a36575b505050811b0160028201556103e6565b015160001960f88460031b161c19169055878080610a26565b81810151835560209485019460019093019290910190610a0b565b610a9990600286016000526020600020601f850160051c8101916020861061070557601f0160051c0190611292565b886103b7565b634e487b7160e01b600052601160045260246000fd5b346100a55760403660031901126100a55760243580151581036100a5576004356000908152600260205260409020600101805490916001600160a01b03821633148015919082610d93575b15610d4e5715610d0157505060043560005260016020523360018060a01b036001604060002001541603610ccb57805460ff60a01b1916600160a01b1781555b5460ff8160a01c1680610cbe575b610b83575b6040513381527f15c2f311c9e0f53b50388279894aeff029a3457884a6601e924fca879e12adcc602060043592a2005b60035460405163a9059cbb60e01b81526001600160a01b039283166004820152674563918244f4000060248201529160209183916044918391600091165af18015610c9357610c9f575b5060035460048035600090815260016020818152604080842090920154915163a9059cbb60e01b81526001600160a01b0392831694810194909452674563918244f400006024850152929384926044928492165af18015610c9357610c64575b506004356000526001602052610c4660406000206112f2565b60043560005260026020526000600160408220828155015580610b53565b610c859060203d602011610c8c575b610c7d8183611145565b810190611352565b5080610c2d565b503d610c73565b6040513d6000823e3d90fd5b610cb79060203d602011610c8c57610c7d8183611145565b5080610bcd565b5060ff8160a81c16610b4e565b60405162461bcd60e51b815260206004820152600e60248201526d2737ba103a34329039b2b63632b960911b6044820152606490fd5b610d195760ff60a81b1916600160a81b178155610b40565b60405162461bcd60e51b815260206004820152600d60248201526c2737ba103a343290313abcb2b960991b6044820152606490fd5b60405162461bcd60e51b815260206004820152601c60248201527f4e6f742070617274206f662074686973207472616e73616374696f6e000000006044820152606490fd5b5060016020819052604060002001546001600160a01b03163314610b00565b346100a55760003660031901126100a5576020600054604051908152f35b346100a55760003660031901126100a5576003546040516001600160a01b039091168152602090f35b346100a5576020806003193601126100a55760043590816000526001815260ff60076040600020015416610f585781600052600181526007604060002001600160ff1982541617905560018060a01b039060008183600354166064604051809481936323b872dd60e01b8352336004840152306024840152678ac7230489e8000060448401525af18015610c9357610f3b575b5060405160808101928184106001600160401b0385111761070f577ff3d6548800d5ddcdcff15736f84ffa1ae7a7e088a140b1c8feacb44904765c879360405284825282820191338352604081019160008352600160608301926000845288600052600287526040600020905181550193511683549260ff60a01b9051151560a01b169160ff60a81b9051151560a81b169269ffffffffffffffffffff60b01b161717179055604051338152a2005b610f5190823d8411610c8c57610c7d8183611145565b5083610e8c565b6064906040519062461bcd60e51b82526004820152601060248201526f105b1c9958591e481c995cd95c9d995960821b6044820152fd5b346100a5576020806003193601126100a55760043590816000526001815260018060a01b0360016040600020015416330361105257816000526001815260ff60076040600020015416611018576001908260005252610ff160406000206112f2565b7f53aae3f23c7401f48fa78a04049387bbed1058d9508c4e94fe9a5a64ff46d097600080a2005b6064906040519062461bcd60e51b825260048201526013602482015272131a5cdd1a5b99c81a5cc81c995cd95c9d9959606a1b6044820152fd5b6064906040519062461bcd60e51b82526004820152600d60248201526c2737ba103a34329037bbb732b960991b6044820152fd5b346100a55760203660031901126100a557608090600435600052600260205260ff60406000206001815491015490835260018060a01b0381166020840152818160a01c161515604084015260a81c1615156060820152f35b9181601f840112156100a5578235916001600160401b0383116100a557602083818601950101116100a557565b90600182811c9216801561113b575b602083101461112557565b634e487b7160e01b600052602260045260246000fd5b91607f169161111a565b90601f801991011681019081106001600160401b0382111761070f57604052565b906040519182600082549261117a8461110b565b9081845260019485811690816000146111e957506001146111a6575b50506111a492500383611145565b565b9093915060005260209081600020936000915b8183106111d15750506111a493508201013880611196565b855488840185015294850194879450918301916111b9565b9150506111a494506020925060ff191682840152151560051b8201013880611196565b919082519283825260005b848110611238575050826000602080949584010152601f8019910116010190565b602081830181015184830182015201611217565b9291926001600160401b03821161070f5760405191611275601f8201601f191660200184611145565b8294818452818301116100a5578281602093846000960137010152565b81811061129d575050565b60008155600101611292565b6112b3815461110b565b90816112bd575050565b81601f600093116001146112cf575055565b9080839182526112ee601f60208420940160051c840160018501611292565b5555565b600960009182815582600182015561130c600282016112a9565b611318600382016112a9565b611324600482016112a9565b611330600582016112a9565b61133c600682016112a9565b82600782015561134e600882016112a9565b0155565b908160209103126100a5575180151581036100a5579056fea2646970667358221220e0903701e9bccdb03e8a99682ee429e0ca44142b83c3f2773e611dbf91c94ad164736f6c63430008140033",
          "opcodes": "PUSH1 0x80 CALLVALUE PUSH2 0x78 JUMPI PUSH1 0x1F PUSH2 0x1434 CODESIZE DUP2 SWAP1 SUB SWAP2 DUP3 ADD PUSH1 0x1F NOT AND DUP4 ADD SWAP2 PUSH1 0x1 PUSH1 0x1 PUSH1 0x40 SHL SUB DUP4 GT DUP5 DUP5 LT OR PUSH2 0x7D JUMPI DUP1 DUP5 SWAP3 PUSH1 0x20 SWAP5 PUSH1 0x40 MSTORE DUP4 CODECOPY DUP2 ADD SUB SLT PUSH2 0x78 JUMPI MLOAD PUSH1 0x1 PUSH1 0x1 PUSH1 0xA0 SHL SUB DUP2 AND SWAP1 DUP2 SWAP1 SUB PUSH2 0x78 JUMPI PUSH1 0x0 DUP1 SSTORE PUSH1 0x3 DUP1 SLOAD PUSH1 0x1 PUSH1 0x1 PUSH1 0xA0 SHL SUB NOT AND SWAP2 SWAP1 SWAP2 OR SWAP1 SSTORE PUSH1 0x40 MLOAD PUSH2 0x13A0 SWAP1 DUP2 PUSH2 0x94 DUP3 CODECOPY RETURN JUMPDEST PUSH1 0x0 DUP1 REVERT JUMPDEST PUSH4 0x4E487B71 PUSH1 0xE0 SHL PUSH1 0x0 MSTORE PUSH1 0x41 PUSH1 0x4 MSTORE PUSH1 0x24 PUSH1 0x0 REVERT INVALID PUSH1 0x80 DUP1 PUSH1 0x40 MSTORE PUSH1 0x4 CALLDATASIZE LT ISZERO PUSH2 0x13 JUMPI PUSH1 0x0 DUP1 REVERT JUMPDEST PUSH1 0x0 CALLDATALOAD PUSH1 0xE0 SHR SWAP1 DUP2 PUSH4 0x12F52EE EQ PUSH2 0x1086 JUMPI POP DUP1 PUSH4 0x305A67A8 EQ PUSH2 0xF8F JUMPI DUP1 PUSH4 0x451D034F EQ PUSH2 0xDF9 JUMPI DUP1 PUSH4 0x82A71EF2 EQ PUSH2 0xDD0 JUMPI DUP1 PUSH4 0xA9B07C26 EQ PUSH2 0xDB2 JUMPI DUP1 PUSH4 0xC6A725D8 EQ PUSH2 0xAB5 JUMPI DUP1 PUSH4 0xD73B3130 EQ PUSH2 0x1C2 JUMPI DUP1 PUSH4 0xDE74E57B EQ PUSH2 0xAA JUMPI PUSH4 0xF7B2A7BE EQ PUSH2 0x82 JUMPI PUSH1 0x0 DUP1 REVERT JUMPDEST CALLVALUE PUSH2 0xA5 JUMPI PUSH1 0x0 CALLDATASIZE PUSH1 0x3 NOT ADD SLT PUSH2 0xA5 JUMPI PUSH1 0x20 PUSH1 0x40 MLOAD PUSH8 0x8AC7230489E80000 DUP2 MSTORE RETURN JUMPDEST PUSH1 0x0 DUP1 REVERT JUMPDEST CALLVALUE PUSH2 0xA5 JUMPI PUSH1 0x20 CALLDATASIZE PUSH1 0x3 NOT ADD SLT PUSH2 0xA5 JUMPI PUSH1 0x4 CALLDATALOAD PUSH1 0x0 MSTORE PUSH1 0x1 PUSH1 0x20 MSTORE PUSH1 0x40 PUSH1 0x0 KECCAK256 DUP1 SLOAD PUSH1 0x1 PUSH1 0xA0 SHL PUSH1 0x1 SWAP1 SUB PUSH1 0x1 DUP4 ADD SLOAD AND SWAP2 PUSH1 0x2 DUP2 ADD PUSH2 0xEA SWAP1 PUSH2 0x1166 JUMP JUMPDEST SWAP1 PUSH2 0xF7 PUSH1 0x3 DUP3 ADD PUSH2 0x1166 JUMP JUMPDEST PUSH2 0x103 PUSH1 0x4 DUP4 ADD PUSH2 0x1166 JUMP JUMPDEST PUSH2 0x10F PUSH1 0x5 DUP5 ADD PUSH2 0x1166 JUMP JUMPDEST PUSH2 0x11B PUSH1 0x6 DUP6 ADD PUSH2 0x1166 JUMP JUMPDEST SWAP2 PUSH1 0x7 DUP6 ADD SLOAD PUSH1 0xFF AND SWAP4 PUSH1 0x8 DUP7 ADD PUSH2 0x132 SWAP1 PUSH2 0x1166 JUMP JUMPDEST SWAP6 PUSH1 0x9 ADD SLOAD SWAP7 PUSH1 0x40 MLOAD SWAP10 DUP11 SWAP10 DUP11 MSTORE PUSH1 0x20 DUP11 ADD MSTORE PUSH2 0x140 DUP1 PUSH1 0x40 DUP12 ADD MSTORE DUP10 ADD PUSH2 0x159 SWAP2 PUSH2 0x120C JUMP JUMPDEST DUP9 DUP2 SUB PUSH1 0x60 DUP11 ADD MSTORE PUSH2 0x16A SWAP2 PUSH2 0x120C JUMP JUMPDEST DUP8 DUP2 SUB PUSH1 0x80 DUP10 ADD MSTORE PUSH2 0x17B SWAP2 PUSH2 0x120C JUMP JUMPDEST DUP7 DUP2 SUB PUSH1 0xA0 DUP9 ADD MSTORE PUSH2 0x18C SWAP2 PUSH2 0x120C JUMP JUMPDEST DUP6 DUP2 SUB PUSH1 0xC0 DUP8 ADD MSTORE PUSH2 0x19D SWAP2 PUSH2 0x120C JUMP JUMPDEST SWAP1 ISZERO ISZERO PUSH1 0xE0 DUP6 ADD MSTORE DUP4 DUP2 SUB PUSH2 0x100 DUP6 ADD MSTORE PUSH2 0x1B7 SWAP2 PUSH2 0x120C JUMP JUMPDEST SWAP1 PUSH2 0x120 DUP4 ADD MSTORE SUB SWAP1 RETURN JUMPDEST CALLVALUE PUSH2 0xA5 JUMPI PUSH1 0xC0 CALLDATASIZE PUSH1 0x3 NOT ADD SLT PUSH2 0xA5 JUMPI PUSH1 0x4 CALLDATALOAD PUSH1 0x1 PUSH1 0x1 PUSH1 0x40 SHL SUB DUP2 GT PUSH2 0xA5 JUMPI PUSH2 0x1F2 SWAP1 CALLDATASIZE SWAP1 PUSH1 0x4 ADD PUSH2 0x10DE JUMP JUMPDEST PUSH1 0x24 CALLDATALOAD PUSH1 0x1 PUSH1 0x1 PUSH1 0x40 SHL SUB DUP2 GT PUSH2 0xA5 JUMPI PUSH2 0x211 SWAP1 CALLDATASIZE SWAP1 PUSH1 0x4 ADD PUSH2 0x10DE JUMP JUMPDEST SWAP2 SWAP1 SWAP3 PUSH1 0x44 CALLDATALOAD PUSH1 0x1 PUSH1 0x1 PUSH1 0x40 SHL SUB DUP2 GT PUSH2 0xA5 JUMPI PUSH2 0x233 SWAP1 CALLDATASIZE SWAP1 PUSH1 0x4 ADD PUSH2 0x10DE JUMP JUMPDEST SWAP5 SWAP1 SWAP4 PUSH1 0x64 CALLDATALOAD PUSH1 0x1 PUSH1 0x1 PUSH1 0x40 SHL SUB DUP2 GT PUSH2 0xA5 JUMPI PUSH2 0x255 SWAP1 CALLDATASIZE SWAP1 PUSH1 0x4 ADD PUSH2 0x10DE JUMP JUMPDEST SWAP6 SWAP1 SWAP2 PUSH1 0x84 CALLDATALOAD PUSH1 0x1 PUSH1 0x1 PUSH1 0x40 SHL SUB DUP2 GT PUSH2 0xA5 JUMPI PUSH2 0x277 SWAP1 CALLDATASIZE SWAP1 PUSH1 0x4 ADD PUSH2 0x10DE JUMP JUMPDEST PUSH1 0xA4 CALLDATALOAD PUSH1 0x1 PUSH1 0x1 PUSH1 0x40 SHL SUB DUP2 GT PUSH2 0xA5 JUMPI PUSH2 0x296 SWAP1 CALLDATASIZE SWAP1 PUSH1 0x4 ADD PUSH2 0x10DE JUMP JUMPDEST SWAP5 SWAP1 SWAP6 PUSH1 0x0 SLOAD SWAP11 PUSH1 0x0 NOT DUP13 EQ PUSH2 0xA9F JUMPI PUSH1 0x1 DUP13 ADD PUSH1 0x0 SSTORE PUSH1 0x40 MLOAD SWAP13 DUP14 PUSH1 0x1 PUSH1 0x1 PUSH1 0x40 SHL SUB PUSH2 0x140 DUP3 DUP2 DUP2 ADD LT SWAP3 ADD GT OR PUSH2 0x70F JUMPI PUSH1 0x80 PUSH2 0x31A DUP16 SWAP3 SWAP6 DUP16 SWAP7 DUP16 DUP16 SWAP15 PUSH2 0x343 SWAP16 SWAP13 PUSH2 0x302 PUSH2 0x330 SWAP15 PUSH2 0x30E SWAP5 PUSH2 0x324 SWAP14 PUSH2 0x140 DUP13 ADD PUSH1 0x40 MSTORE DUP12 MSTORE CALLER PUSH1 0x20 DUP13 ADD MSTORE CALLDATASIZE SWAP2 PUSH2 0x124C JUMP JUMPDEST PUSH1 0x40 DUP10 ADD MSTORE CALLDATASIZE SWAP2 PUSH2 0x124C JUMP JUMPDEST PUSH1 0x60 DUP7 ADD MSTORE CALLDATASIZE SWAP2 PUSH2 0x124C JUMP JUMPDEST SWAP2 ADD MSTORE CALLDATASIZE SWAP2 PUSH2 0x124C JUMP JUMPDEST PUSH1 0xA0 DUP12 ADD MSTORE CALLDATASIZE SWAP2 PUSH2 0x124C JUMP JUMPDEST PUSH1 0xC0 DUP9 ADD MSTORE PUSH1 0x0 PUSH1 0xE0 DUP9 ADD MSTORE CALLDATASIZE SWAP2 PUSH2 0x124C JUMP JUMPDEST PUSH2 0x100 DUP6 ADD MSTORE TIMESTAMP PUSH2 0x120 DUP6 ADD MSTORE DUP3 PUSH1 0x0 MSTORE PUSH1 0x1 PUSH1 0x20 MSTORE PUSH1 0x40 PUSH1 0x0 KECCAK256 DUP5 MLOAD DUP2 SSTORE PUSH1 0x1 DUP2 ADD PUSH1 0x1 DUP1 PUSH1 0xA0 SHL SUB PUSH1 0x20 DUP8 ADD MLOAD AND PUSH12 0xFFFFFFFFFFFFFFFFFFFFFFFF PUSH1 0xA0 SHL DUP3 SLOAD AND OR SWAP1 SSTORE PUSH1 0x40 DUP6 ADD MLOAD DUP1 MLOAD SWAP1 PUSH1 0x1 PUSH1 0x1 PUSH1 0x40 SHL SUB DUP3 GT PUSH2 0x70F JUMPI DUP2 SWAP1 PUSH2 0x3AE PUSH1 0x2 DUP6 ADD SLOAD PUSH2 0x110B JUMP JUMPDEST PUSH1 0x1F DUP2 GT PUSH2 0xA6A JUMPI JUMPDEST POP PUSH1 0x20 SWAP1 PUSH1 0x1F DUP4 GT PUSH1 0x1 EQ PUSH2 0x9F8 JUMPI PUSH1 0x0 SWAP3 PUSH2 0x9ED JUMPI JUMPDEST POP POP DUP2 PUSH1 0x1 SHL SWAP2 PUSH1 0x0 NOT SWAP1 PUSH1 0x3 SHL SHR NOT AND OR PUSH1 0x2 DUP3 ADD SSTORE JUMPDEST PUSH1 0x60 DUP6 ADD MLOAD DUP1 MLOAD SWAP1 PUSH1 0x1 PUSH1 0x1 PUSH1 0x40 SHL SUB DUP3 GT PUSH2 0x70F JUMPI DUP2 SWAP1 PUSH2 0x40B PUSH1 0x3 DUP6 ADD SLOAD PUSH2 0x110B JUMP JUMPDEST PUSH1 0x1F DUP2 GT PUSH2 0x9B8 JUMPI JUMPDEST POP PUSH1 0x20 SWAP1 PUSH1 0x1F DUP4 GT PUSH1 0x1 EQ PUSH2 0x946 JUMPI PUSH1 0x0 SWAP3 PUSH2 0x93B JUMPI JUMPDEST POP POP DUP2 PUSH1 0x1 SHL SWAP2 PUSH1 0x0 NOT SWAP1 PUSH1 0x3 SHL SHR NOT AND OR PUSH1 0x3 DUP3 ADD SSTORE JUMPDEST PUSH1 0x80 DUP6 ADD MLOAD DUP1 MLOAD SWAP1 PUSH1 0x1 PUSH1 0x1 PUSH1 0x40 SHL SUB DUP3 GT PUSH2 0x70F JUMPI DUP2 SWAP1 PUSH2 0x468 PUSH1 0x4 DUP6 ADD SLOAD PUSH2 0x110B JUMP JUMPDEST PUSH1 0x1F DUP2 GT PUSH2 0x906 JUMPI JUMPDEST POP PUSH1 0x20 SWAP1 PUSH1 0x1F DUP4 GT PUSH1 0x1 EQ PUSH2 0x894 JUMPI PUSH1 0x0 SWAP3 PUSH2 0x889 JUMPI JUMPDEST POP POP DUP2 PUSH1 0x1 SHL SWAP2 PUSH1 0x0 NOT SWAP1 PUSH1 0x3 SHL SHR NOT AND OR PUSH1 0x4 DUP3 ADD SSTORE JUMPDEST PUSH1 0xA0 DUP6 ADD MLOAD DUP1 MLOAD SWAP1 PUSH1 0x1 PUSH1 0x1 PUSH1 0x40 SHL SUB DUP3 GT PUSH2 0x70F JUMPI DUP2 SWAP1 PUSH2 0x4C5 PUSH1 0x5 DUP6 ADD SLOAD PUSH2 0x110B JUMP JUMPDEST PUSH1 0x1F DUP2 GT PUSH2 0x854 JUMPI JUMPDEST POP PUSH1 0x20 SWAP1 PUSH1 0x1F DUP4 GT PUSH1 0x1 EQ PUSH2 0x7E2 JUMPI PUSH1 0x0 SWAP3 PUSH2 0x7D7 JUMPI JUMPDEST POP POP DUP2 PUSH1 0x1 SHL SWAP2 PUSH1 0x0 NOT SWAP1 PUSH1 0x3 SHL SHR NOT AND OR PUSH1 0x5 DUP3 ADD SSTORE JUMPDEST PUSH1 0xC0 DUP6 ADD MLOAD DUP1 MLOAD SWAP1 PUSH1 0x1 PUSH1 0x1 PUSH1 0x40 SHL SUB DUP3 GT PUSH2 0x70F JUMPI DUP2 SWAP1 PUSH2 0x522 PUSH1 0x6 DUP6 ADD SLOAD PUSH2 0x110B JUMP JUMPDEST PUSH1 0x1F DUP2 GT PUSH2 0x7A2 JUMPI JUMPDEST POP PUSH1 0x20 SWAP1 PUSH1 0x1F DUP4 GT PUSH1 0x1 EQ PUSH2 0x730 JUMPI PUSH1 0x0 SWAP3 PUSH2 0x725 JUMPI JUMPDEST POP POP DUP2 PUSH1 0x1 SHL SWAP2 PUSH1 0x0 NOT SWAP1 PUSH1 0x3 SHL SHR NOT AND OR PUSH1 0x6 DUP3 ADD SSTORE JUMPDEST PUSH1 0x7 DUP2 ADD PUSH1 0xE0 DUP7 ADD MLOAD ISZERO ISZERO PUSH1 0xFF DUP1 NOT DUP4 SLOAD AND SWAP2 AND OR SWAP1 SSTORE PUSH1 0x8 DUP2 ADD SWAP5 PUSH2 0x100 DUP2 ADD MLOAD SWAP6 DUP7 MLOAD PUSH1 0x1 PUSH1 0x1 PUSH1 0x40 SHL SUB DUP2 GT PUSH2 0x70F JUMPI PUSH2 0x597 DUP3 SLOAD PUSH2 0x110B JUMP JUMPDEST PUSH1 0x1F DUP2 GT PUSH2 0x6D2 JUMPI JUMPDEST POP PUSH1 0x20 PUSH1 0x1F DUP3 GT PUSH1 0x1 EQ PUSH2 0x63E JUMPI SWAP3 PUSH1 0x9 SWAP3 DUP3 PUSH2 0x120 SWAP4 PUSH1 0x60 SWAP9 SWAP8 SWAP7 PUSH32 0x9687B779E981AA6968B26FE96D9FBEB5ABE0FAB6B2B4EC65D5177AB6BB4667DC SWAP12 SWAP13 PUSH1 0x0 SWAP3 PUSH2 0x633 JUMPI JUMPDEST POP POP DUP2 PUSH1 0x1 SHL SWAP2 PUSH1 0x0 NOT SWAP1 PUSH1 0x3 SHL SHR NOT AND OR SWAP1 SSTORE JUMPDEST ADD MLOAD SWAP2 ADD SSTORE DUP3 PUSH1 0x40 MLOAD SWAP4 DUP5 SWAP3 CALLER DUP5 MSTORE PUSH1 0x40 PUSH1 0x20 DUP6 ADD MSTORE DUP2 PUSH1 0x40 DUP6 ADD MSTORE DUP5 DUP5 ADD CALLDATACOPY PUSH1 0x0 DUP3 DUP3 ADD DUP5 ADD MSTORE PUSH1 0x1F ADD PUSH1 0x1F NOT AND DUP2 ADD SUB ADD SWAP1 LOG2 STOP JUMPDEST ADD MLOAD SWAP1 POP DUP13 DUP1 PUSH2 0x5E7 JUMP JUMPDEST PUSH1 0x1F NOT DUP3 AND SWAP9 DUP4 PUSH1 0x0 MSTORE PUSH1 0x20 PUSH1 0x0 KECCAK256 SWAP10 PUSH1 0x0 JUMPDEST DUP2 DUP2 LT PUSH2 0x6BA JUMPI POP DUP4 PUSH32 0x9687B779E981AA6968B26FE96D9FBEB5ABE0FAB6B2B4EC65D5177AB6BB4667DC SWAP11 SWAP12 PUSH1 0x60 SWAP10 SWAP9 SWAP8 SWAP5 PUSH1 0x9 SWAP8 SWAP5 PUSH2 0x120 SWAP8 PUSH1 0x1 SWAP6 LT PUSH2 0x6A1 JUMPI JUMPDEST POP POP POP DUP2 SHL ADD SWAP1 SSTORE PUSH2 0x5FC JUMP JUMPDEST ADD MLOAD PUSH1 0x0 NOT PUSH1 0xF8 DUP5 PUSH1 0x3 SHL AND SHR NOT AND SWAP1 SSTORE DUP13 DUP1 DUP1 PUSH2 0x694 JUMP JUMPDEST DUP4 DUP4 ADD MLOAD DUP13 SSTORE PUSH1 0x1 SWAP1 SWAP12 ADD SWAP11 PUSH1 0x20 SWAP4 DUP5 ADD SWAP4 ADD PUSH2 0x651 JUMP JUMPDEST PUSH2 0x6FF SWAP1 DUP4 PUSH1 0x0 MSTORE PUSH1 0x20 PUSH1 0x0 KECCAK256 PUSH1 0x1F DUP5 ADD PUSH1 0x5 SHR DUP2 ADD SWAP2 PUSH1 0x20 DUP6 LT PUSH2 0x705 JUMPI JUMPDEST PUSH1 0x1F ADD PUSH1 0x5 SHR ADD SWAP1 PUSH2 0x1292 JUMP JUMPDEST DUP9 PUSH2 0x5A0 JUMP JUMPDEST SWAP1 SWAP2 POP DUP2 SWAP1 PUSH2 0x6F2 JUMP JUMPDEST PUSH4 0x4E487B71 PUSH1 0xE0 SHL PUSH1 0x0 MSTORE PUSH1 0x41 PUSH1 0x4 MSTORE PUSH1 0x24 PUSH1 0x0 REVERT JUMPDEST ADD MLOAD SWAP1 POP DUP8 DUP1 PUSH2 0x542 JUMP JUMPDEST SWAP3 POP PUSH1 0x6 DUP5 ADD PUSH1 0x0 MSTORE PUSH1 0x20 PUSH1 0x0 KECCAK256 SWAP1 PUSH1 0x0 SWAP4 JUMPDEST PUSH1 0x1F NOT DUP5 AND DUP6 LT PUSH2 0x787 JUMPI PUSH1 0x1 SWAP5 POP DUP4 PUSH1 0x1F NOT DUP2 AND LT PUSH2 0x76E JUMPI JUMPDEST POP POP POP DUP2 SHL ADD PUSH1 0x6 DUP3 ADD SSTORE PUSH2 0x55A JUMP JUMPDEST ADD MLOAD PUSH1 0x0 NOT PUSH1 0xF8 DUP5 PUSH1 0x3 SHL AND SHR NOT AND SWAP1 SSTORE DUP8 DUP1 DUP1 PUSH2 0x75E JUMP JUMPDEST DUP2 DUP2 ADD MLOAD DUP4 SSTORE PUSH1 0x20 SWAP5 DUP6 ADD SWAP5 PUSH1 0x1 SWAP1 SWAP4 ADD SWAP3 SWAP1 SWAP2 ADD SWAP1 PUSH2 0x743 JUMP JUMPDEST PUSH2 0x7D1 SWAP1 PUSH1 0x6 DUP7 ADD PUSH1 0x0 MSTORE PUSH1 0x20 PUSH1 0x0 KECCAK256 PUSH1 0x1F DUP6 ADD PUSH1 0x5 SHR DUP2 ADD SWAP2 PUSH1 0x20 DUP7 LT PUSH2 0x705 JUMPI PUSH1 0x1F ADD PUSH1 0x5 SHR ADD SWAP1 PUSH2 0x1292 JUMP JUMPDEST DUP9 PUSH2 0x52B JUMP JUMPDEST ADD MLOAD SWAP1 POP DUP8 DUP1 PUSH2 0x4E5 JUMP JUMPDEST SWAP3 POP PUSH1 0x5 DUP5 ADD PUSH1 0x0 MSTORE PUSH1 0x20 PUSH1 0x0 KECCAK256 SWAP1 PUSH1 0x0 SWAP4 JUMPDEST PUSH1 0x1F NOT DUP5 AND DUP6 LT PUSH2 0x839 JUMPI PUSH1 0x1 SWAP5 POP DUP4 PUSH1 0x1F NOT DUP2 AND LT PUSH2 0x820 JUMPI JUMPDEST POP POP POP DUP2 SHL ADD PUSH1 0x5 DUP3 ADD SSTORE PUSH2 0x4FD JUMP JUMPDEST ADD MLOAD PUSH1 0x0 NOT PUSH1 0xF8 DUP5 PUSH1 0x3 SHL AND SHR NOT AND SWAP1 SSTORE DUP8 DUP1 DUP1 PUSH2 0x810 JUMP JUMPDEST DUP2 DUP2 ADD MLOAD DUP4 SSTORE PUSH1 0x20 SWAP5 DUP6 ADD SWAP5 PUSH1 0x1 SWAP1 SWAP4 ADD SWAP3 SWAP1 SWAP2 ADD SWAP1 PUSH2 0x7F5 JUMP JUMPDEST PUSH2 0x883 SWAP1 PUSH1 0x5 DUP7 ADD PUSH1 0x0 MSTORE PUSH1 0x20 PUSH1 0x0 KECCAK256 PUSH1 0x1F DUP6 ADD PUSH1 0x5 SHR DUP2 ADD SWAP2 PUSH1 0x20 DUP7 LT PUSH2 0x705 JUMPI PUSH1 0x1F ADD PUSH1 0x5 SHR ADD SWAP1 PUSH2 0x1292 JUMP JUMPDEST DUP9 PUSH2 0x4CE JUMP JUMPDEST ADD MLOAD SWAP1 POP DUP8 DUP1 PUSH2 0x488 JUMP JUMPDEST SWAP3 POP PUSH1 0x4 DUP5 ADD PUSH1 0x0 MSTORE PUSH1 0x20 PUSH1 0x0 KECCAK256 SWAP1 PUSH1 0x0 SWAP4 JUMPDEST PUSH1 0x1F NOT DUP5 AND DUP6 LT PUSH2 0x8EB JUMPI PUSH1 0x1 SWAP5 POP DUP4 PUSH1 0x1F NOT DUP2 AND LT PUSH2 0x8D2 JUMPI JUMPDEST POP POP POP DUP2 SHL ADD PUSH1 0x4 DUP3 ADD SSTORE PUSH2 0x4A0 JUMP JUMPDEST ADD MLOAD PUSH1 0x0 NOT PUSH1 0xF8 DUP5 PUSH1 0x3 SHL AND SHR NOT AND SWAP1 SSTORE DUP8 DUP1 DUP1 PUSH2 0x8C2 JUMP JUMPDEST DUP2 DUP2 ADD MLOAD DUP4 SSTORE PUSH1 0x20 SWAP5 DUP6 ADD SWAP5 PUSH1 0x1 SWAP1 SWAP4 ADD SWAP3 SWAP1 SWAP2 ADD SWAP1 PUSH2 0x8A7 JUMP JUMPDEST PUSH2 0x935 SWAP1 PUSH1 0x4 DUP7 ADD PUSH1 0x0 MSTORE PUSH1 0x20 PUSH1 0x0 KECCAK256 PUSH1 0x1F DUP6 ADD PUSH1 0x5 SHR DUP2 ADD SWAP2 PUSH1 0x20 DUP7 LT PUSH2 0x705 JUMPI PUSH1 0x1F ADD PUSH1 0x5 SHR ADD SWAP1 PUSH2 0x1292 JUMP JUMPDEST DUP9 PUSH2 0x471 JUMP JUMPDEST ADD MLOAD SWAP1 POP DUP8 DUP1 PUSH2 0x42B JUMP JUMPDEST SWAP3 POP PUSH1 0x3 DUP5 ADD PUSH1 0x0 MSTORE PUSH1 0x20 PUSH1 0x0 KECCAK256 SWAP1 PUSH1 0x0 SWAP4 JUMPDEST PUSH1 0x1F NOT DUP5 AND DUP6 LT PUSH2 0x99D JUMPI PUSH1 0x1 SWAP5 POP DUP4 PUSH1 0x1F NOT DUP2 AND LT PUSH2 0x984 JUMPI JUMPDEST POP POP POP DUP2 SHL ADD PUSH1 0x3 DUP3 ADD SSTORE PUSH2 0x443 JUMP JUMPDEST ADD MLOAD PUSH1 0x0 NOT PUSH1 0xF8 DUP5 PUSH1 0x3 SHL AND SHR NOT AND SWAP1 SSTORE DUP8 DUP1 DUP1 PUSH2 0x974 JUMP JUMPDEST DUP2 DUP2 ADD MLOAD DUP4 SSTORE PUSH1 0x20 SWAP5 DUP6 ADD SWAP5 PUSH1 0x1 SWAP1 SWAP4 ADD SWAP3 SWAP1 SWAP2 ADD SWAP1 PUSH2 0x959 JUMP JUMPDEST PUSH2 0x9E7 SWAP1 PUSH1 0x3 DUP7 ADD PUSH1 0x0 MSTORE PUSH1 0x20 PUSH1 0x0 KECCAK256 PUSH1 0x1F DUP6 ADD PUSH1 0x5 SHR DUP2 ADD SWAP2 PUSH1 0x20 DUP7 LT PUSH2 0x705 JUMPI PUSH1 0x1F ADD PUSH1 0x5 SHR ADD SWAP1 PUSH2 0x1292 JUMP JUMPDEST DUP9 PUSH2 0x414 JUMP JUMPDEST ADD MLOAD SWAP1 POP DUP8 DUP1 PUSH2 0x3CE JUMP JUMPDEST SWAP3 POP PUSH1 0x2 DUP5 ADD PUSH1 0x0 MSTORE PUSH1 0x20 PUSH1 0x0 KECCAK256 SWAP1 PUSH1 0x0 SWAP4 JUMPDEST PUSH1 0x1F NOT DUP5 AND DUP6 LT PUSH2 0xA4F JUMPI PUSH1 0x1 SWAP5 POP DUP4 PUSH1 0x1F NOT DUP2 AND LT PUSH2 0xA36 JUMPI JUMPDEST POP POP POP DUP2 SHL ADD PUSH1 0x2 DUP3 ADD SSTORE PUSH2 0x3E6 JUMP JUMPDEST ADD MLOAD PUSH1 0x0 NOT PUSH1 0xF8 DUP5 PUSH1 0x3 SHL AND SHR NOT AND SWAP1 SSTORE DUP8 DUP1 DUP1 PUSH2 0xA26 JUMP JUMPDEST DUP2 DUP2 ADD MLOAD DUP4 SSTORE PUSH1 0x20 SWAP5 DUP6 ADD SWAP5 PUSH1 0x1 SWAP1 SWAP4 ADD SWAP3 SWAP1 SWAP2 ADD SWAP1 PUSH2 0xA0B JUMP JUMPDEST PUSH2 0xA99 SWAP1 PUSH1 0x2 DUP7 ADD PUSH1 0x0 MSTORE PUSH1 0x20 PUSH1 0x0 KECCAK256 PUSH1 0x1F DUP6 ADD PUSH1 0x5 SHR DUP2 ADD SWAP2 PUSH1 0x20 DUP7 LT PUSH2 0x705 JUMPI PUSH1 0x1F ADD PUSH1 0x5 SHR ADD SWAP1 PUSH2 0x1292 JUMP JUMPDEST DUP9 PUSH2 0x3B7 JUMP JUMPDEST PUSH4 0x4E487B71 PUSH1 0xE0 SHL PUSH1 0x0 MSTORE PUSH1 0x11 PUSH1 0x4 MSTORE PUSH1 0x24 PUSH1 0x0 REVERT JUMPDEST CALLVALUE PUSH2 0xA5 JUMPI PUSH1 0x40 CALLDATASIZE PUSH1 0x3 NOT ADD SLT PUSH2 0xA5 JUMPI PUSH1 0x24 CALLDATALOAD DUP1 ISZERO ISZERO DUP2 SUB PUSH2 0xA5 JUMPI PUSH1 0x4 CALLDATALOAD PUSH1 0x0 SWAP1 DUP2 MSTORE PUSH1 0x2 PUSH1 0x20 MSTORE PUSH1 0x40 SWAP1 KECCAK256 PUSH1 0x1 ADD DUP1 SLOAD SWAP1 SWAP2 PUSH1 0x1 PUSH1 0x1 PUSH1 0xA0 SHL SUB DUP3 AND CALLER EQ DUP1 ISZERO SWAP2 SWAP1 DUP3 PUSH2 0xD93 JUMPI JUMPDEST ISZERO PUSH2 0xD4E JUMPI ISZERO PUSH2 0xD01 JUMPI POP POP PUSH1 0x4 CALLDATALOAD PUSH1 0x0 MSTORE PUSH1 0x1 PUSH1 0x20 MSTORE CALLER PUSH1 0x1 DUP1 PUSH1 0xA0 SHL SUB PUSH1 0x1 PUSH1 0x40 PUSH1 0x0 KECCAK256 ADD SLOAD AND SUB PUSH2 0xCCB JUMPI DUP1 SLOAD PUSH1 0xFF PUSH1 0xA0 SHL NOT AND PUSH1 0x1 PUSH1 0xA0 SHL OR DUP2 SSTORE JUMPDEST SLOAD PUSH1 0xFF DUP2 PUSH1 0xA0 SHR AND DUP1 PUSH2 0xCBE JUMPI JUMPDEST PUSH2 0xB83 JUMPI JUMPDEST PUSH1 0x40 MLOAD CALLER DUP2 MSTORE PUSH32 0x15C2F311C9E0F53B50388279894AEFF029A3457884A6601E924FCA879E12ADCC PUSH1 0x20 PUSH1 0x4 CALLDATALOAD SWAP3 LOG2 STOP JUMPDEST PUSH1 0x3 SLOAD PUSH1 0x40 MLOAD PUSH4 0xA9059CBB PUSH1 0xE0 SHL DUP2 MSTORE PUSH1 0x1 PUSH1 0x1 PUSH1 0xA0 SHL SUB SWAP3 DUP4 AND PUSH1 0x4 DUP3 ADD MSTORE PUSH8 0x4563918244F40000 PUSH1 0x24 DUP3 ADD MSTORE SWAP2 PUSH1 0x20 SWAP2 DUP4 SWAP2 PUSH1 0x44 SWAP2 DUP4 SWAP2 PUSH1 0x0 SWAP2 AND GAS CALL DUP1 ISZERO PUSH2 0xC93 JUMPI PUSH2 0xC9F JUMPI JUMPDEST POP PUSH1 0x3 SLOAD PUSH1 0x4 DUP1 CALLDATALOAD PUSH1 0x0 SWAP1 DUP2 MSTORE PUSH1 0x1 PUSH1 0x20 DUP2 DUP2 MSTORE PUSH1 0x40 DUP1 DUP5 KECCAK256 SWAP1 SWAP3 ADD SLOAD SWAP2 MLOAD PUSH4 0xA9059CBB PUSH1 0xE0 SHL DUP2 MSTORE PUSH1 0x1 PUSH1 0x1 PUSH1 0xA0 SHL SUB SWAP3 DUP4 AND SWAP5 DUP2 ADD SWAP5 SWAP1 SWAP5 MSTORE PUSH8 0x4563918244F40000 PUSH1 0x24 DUP6 ADD MSTORE SWAP3 SWAP4 DUP5 SWAP3 PUSH1 0x44 SWAP3 DUP5 SWAP3 AND GAS CALL DUP1 ISZERO PUSH2 0xC93 JUMPI PUSH2 0xC64 JUMPI JUMPDEST POP PUSH1 0x4 CALLDATALOAD PUSH1 0x0 MSTORE PUSH1 0x1 PUSH1 0x20 MSTORE PUSH2 0xC46 PUSH1 0x40 PUSH1 0x0 KECCAK256 PUSH2 0x12F2 JUMP JUMPDEST PUSH1 0x4 CALLDATALOAD PUSH1 0x0 MSTORE PUSH1 0x2 PUSH1 0x20 MSTORE PUSH1 0x0 PUSH1 0x1 PUSH1 0x40 DUP3 KECCAK256 DUP3 DUP2 SSTORE ADD SSTORE DUP1 PUSH2 0xB53 JUMP JUMPDEST PUSH2 0xC85 SWAP1 PUSH1 0x20 RETURNDATASIZE PUSH1 0x20 GT PUSH2 0xC8C JUMPI JUMPDEST PUSH2 0xC7D DUP2 DUP4 PUSH2 0x1145 JUMP JUMPDEST DUP2 ADD SWAP1 PUSH2 0x1352 JUMP JUMPDEST POP DUP1 PUSH2 0xC2D JUMP JUMPDEST POP RETURNDATASIZE PUSH2 0xC73 JUMP JUMPDEST PUSH1 0x40 MLOAD RETURNDATASIZE PUSH1 0x0 DUP3 RETURNDATACOPY RETURNDATASIZE SWAP1 REVERT JUMPDEST PUSH2 0xCB7 SWAP1 PUSH1 0x20 RETURNDATASIZE PUSH1 0x20 GT PUSH2 0xC8C JUMPI PUSH2 0xC7D DUP2 DUP4 PUSH2 0x1145 JUMP JUMPDEST POP DUP1 PUSH2 0xBCD JUMP JUMPDEST POP PUSH1 0xFF DUP2 PUSH1 0xA8 SHR AND PUSH2 0xB4E JUMP JUMPDEST PUSH1 0x40 MLOAD PUSH3 0x461BCD PUSH1 0xE5 SHL DUP2 MSTORE PUSH1 0x20 PUSH1 0x4 DUP3 ADD MSTORE PUSH1 0xE PUSH1 0x24 DUP3 ADD MSTORE PUSH14 0x2737BA103A34329039B2B63632B9 PUSH1 0x91 SHL PUSH1 0x44 DUP3 ADD MSTORE PUSH1 0x64 SWAP1 REVERT JUMPDEST PUSH2 0xD19 JUMPI PUSH1 0xFF PUSH1 0xA8 SHL NOT AND PUSH1 0x1 PUSH1 0xA8 SHL OR DUP2 SSTORE PUSH2 0xB40 JUMP JUMPDEST PUSH1 0x40 MLOAD PUSH3 0x461BCD PUSH1 0xE5 SHL DUP2 MSTORE PUSH1 0x20 PUSH1 0x4 DUP3 ADD MSTORE PUSH1 0xD PUSH1 0x24 DUP3 ADD MSTORE PUSH13 0x2737BA103A343290313ABCB2B9 PUSH1 0x99 SHL PUSH1 0x44 DUP3 ADD MSTORE PUSH1 0x64 SWAP1 REVERT JUMPDEST PUSH1 0x40 MLOAD PUSH3 0x461BCD PUSH1 0xE5 SHL DUP2 MSTORE PUSH1 0x20 PUSH1 0x4 DUP3 ADD MSTORE PUSH1 0x1C PUSH1 0x24 DUP3 ADD MSTORE PUSH32 0x4E6F742070617274206F662074686973207472616E73616374696F6E00000000 PUSH1 0x44 DUP3 ADD MSTORE PUSH1 0x64 SWAP1 REVERT JUMPDEST POP PUSH1 0x1 PUSH1 0x20 DUP2 SWAP1 MSTORE PUSH1 0x40 PUSH1 0x0 KECCAK256 ADD SLOAD PUSH1 0x1 PUSH1 0x1 PUSH1 0xA0 SHL SUB AND CALLER EQ PUSH2 0xB00 JUMP JUMPDEST CALLVALUE PUSH2 0xA5 JUMPI PUSH1 0x0 CALLDATASIZE PUSH1 0x3 NOT ADD SLT PUSH2 0xA5 JUMPI PUSH1 0x20 PUSH1 0x0 SLOAD PUSH1 0x40 MLOAD SWAP1 DUP2 MSTORE RETURN JUMPDEST CALLVALUE PUSH2 0xA5 JUMPI PUSH1 0x0 CALLDATASIZE PUSH1 0x3 NOT ADD SLT PUSH2 0xA5 JUMPI PUSH1 0x3 SLOAD PUSH1 0x40 MLOAD PUSH1 0x1 PUSH1 0x1 PUSH1 0xA0 SHL SUB SWAP1 SWAP2 AND DUP2 MSTORE PUSH1 0x20 SWAP1 RETURN JUMPDEST CALLVALUE PUSH2 0xA5 JUMPI PUSH1 0x20 DUP1 PUSH1 0x3 NOT CALLDATASIZE ADD SLT PUSH2 0xA5 JUMPI PUSH1 0x4 CALLDATALOAD SWAP1 DUP2 PUSH1 0x0 MSTORE PUSH1 0x1 DUP2 MSTORE PUSH1 0xFF PUSH1 0x7 PUSH1 0x40 PUSH1 0x0 KECCAK256 ADD SLOAD AND PUSH2 0xF58 JUMPI DUP2 PUSH1 0x0 MSTORE PUSH1 0x1 DUP2 MSTORE PUSH1 0x7 PUSH1 0x40 PUSH1 0x0 KECCAK256 ADD PUSH1 0x1 PUSH1 0xFF NOT DUP3 SLOAD AND OR SWAP1 SSTORE PUSH1 0x1 DUP1 PUSH1 0xA0 SHL SUB SWAP1 PUSH1 0x0 DUP2 DUP4 PUSH1 0x3 SLOAD AND PUSH1 0x64 PUSH1 0x40 MLOAD DUP1 SWAP5 DUP2 SWAP4 PUSH4 0x23B872DD PUSH1 0xE0 SHL DUP4 MSTORE CALLER PUSH1 0x4 DUP5 ADD MSTORE ADDRESS PUSH1 0x24 DUP5 ADD MSTORE PUSH8 0x8AC7230489E80000 PUSH1 0x44 DUP5 ADD MSTORE GAS CALL DUP1 ISZERO PUSH2 0xC93 JUMPI PUSH2 0xF3B JUMPI JUMPDEST POP PUSH1 0x40 MLOAD PUSH1 0x80 DUP2 ADD SWAP3 DUP2 DUP5 LT PUSH1 0x1 PUSH1 0x1 PUSH1 0x40 SHL SUB DUP6 GT OR PUSH2 0x70F JUMPI PUSH32 0xF3D6548800D5DDCDCFF15736F84FFA1AE7A7E088A140B1C8FEACB44904765C87 SWAP4 PUSH1 0x40 MSTORE DUP5 DUP3 MSTORE DUP3 DUP3 ADD SWAP2 CALLER DUP4 MSTORE PUSH1 0x40 DUP2 ADD SWAP2 PUSH1 0x0 DUP4 MSTORE PUSH1 0x1 PUSH1 0x60 DUP4 ADD SWAP3 PUSH1 0x0 DUP5 MSTORE DUP9 PUSH1 0x0 MSTORE PUSH1 0x2 DUP8 MSTORE PUSH1 0x40 PUSH1 0x0 KECCAK256 SWAP1 MLOAD DUP2 SSTORE ADD SWAP4 MLOAD AND DUP4 SLOAD SWAP3 PUSH1 0xFF PUSH1 0xA0 SHL SWAP1 MLOAD ISZERO ISZERO PUSH1 0xA0 SHL AND SWAP2 PUSH1 0xFF PUSH1 0xA8 SHL SWAP1 MLOAD ISZERO ISZERO PUSH1 0xA8 SHL AND SWAP3 PUSH10 0xFFFFFFFFFFFFFFFFFFFF PUSH1 0xB0 SHL AND OR OR OR SWAP1 SSTORE PUSH1 0x40 MLOAD CALLER DUP2 MSTORE LOG2 STOP JUMPDEST PUSH2 0xF51 SWAP1 DUP3 RETURNDATASIZE DUP5 GT PUSH2 0xC8C JUMPI PUSH2 0xC7D DUP2 DUP4 PUSH2 0x1145 JUMP JUMPDEST POP DUP4 PUSH2 0xE8C JUMP JUMPDEST PUSH1 0x64 SWAP1 PUSH1 0x40 MLOAD SWAP1 PUSH3 0x461BCD PUSH1 0xE5 SHL DUP3 MSTORE PUSH1 0x4 DUP3 ADD MSTORE PUSH1 0x10 PUSH1 0x24 DUP3 ADD MSTORE PUSH16 0x105B1C9958591E481C995CD95C9D9959 PUSH1 0x82 SHL PUSH1 0x44 DUP3 ADD MSTORE REVERT JUMPDEST CALLVALUE PUSH2 0xA5 JUMPI PUSH1 0x20 DUP1 PUSH1 0x3 NOT CALLDATASIZE ADD SLT PUSH2 0xA5 JUMPI PUSH1 0x4 CALLDATALOAD SWAP1 DUP2 PUSH1 0x0 MSTORE PUSH1 0x1 DUP2 MSTORE PUSH1 0x1 DUP1 PUSH1 0xA0 SHL SUB PUSH1 0x1 PUSH1 0x40 PUSH1 0x0 KECCAK256 ADD SLOAD AND CALLER SUB PUSH2 0x1052 JUMPI DUP2 PUSH1 0x0 MSTORE PUSH1 0x1 DUP2 MSTORE PUSH1 0xFF PUSH1 0x7 PUSH1 0x40 PUSH1 0x0 KECCAK256 ADD SLOAD AND PUSH2 0x1018 JUMPI PUSH1 0x1 SWAP1 DUP3 PUSH1 0x0 MSTORE MSTORE PUSH2 0xFF1 PUSH1 0x40 PUSH1 0x0 KECCAK256 PUSH2 0x12F2 JUMP JUMPDEST PUSH32 0x53AAE3F23C7401F48FA78A04049387BBED1058D9508C4E94FE9A5A64FF46D097 PUSH1 0x0 DUP1 LOG2 STOP JUMPDEST PUSH1 0x64 SWAP1 PUSH1 0x40 MLOAD SWAP1 PUSH3 0x461BCD PUSH1 0xE5 SHL DUP3 MSTORE PUSH1 0x4 DUP3 ADD MSTORE PUSH1 0x13 PUSH1 0x24 DUP3 ADD MSTORE PUSH19 0x131A5CDD1A5B99C81A5CC81C995CD95C9D9959 PUSH1 0x6A SHL PUSH1 0x44 DUP3 ADD MSTORE REVERT JUMPDEST PUSH1 0x64 SWAP1 PUSH1 0x40 MLOAD SWAP1 PUSH3 0x461BCD PUSH1 0xE5 SHL DUP3 MSTORE PUSH1 0x4 DUP3 ADD MSTORE PUSH1 0xD PUSH1 0x24 DUP3 ADD MSTORE PUSH13 0x2737BA103A34329037BBB732B9 PUSH1 0x99 SHL PUSH1 0x44 DUP3 ADD MSTORE REVERT JUMPDEST CALLVALUE PUSH2 0xA5 JUMPI PUSH1 0x20 CALLDATASIZE PUSH1 0x3 NOT ADD SLT PUSH2 0xA5 JUMPI PUSH1 0x80 SWAP1 PUSH1 0x4 CALLDATALOAD PUSH1 0x0 MSTORE PUSH1 0x2 PUSH1 0x20 MSTORE PUSH1 0xFF PUSH1 0x40 PUSH1 0x0 KECCAK256 PUSH1 0x1 DUP2 SLOAD SWAP2 ADD SLOAD SWAP1 DUP4 MSTORE PUSH1 0x1 DUP1 PUSH1 0xA0 SHL SUB DUP2 AND PUSH1 0x20 DUP5 ADD MSTORE DUP2 DUP2 PUSH1 0xA0 SHR AND ISZERO ISZERO PUSH1 0x40 DUP5 ADD MSTORE PUSH1 0xA8 SHR AND ISZERO ISZERO PUSH1 0x60 DUP3 ADD MSTORE RETURN JUMPDEST SWAP2 DUP2 PUSH1 0x1F DUP5 ADD SLT ISZERO PUSH2 0xA5 JUMPI DUP3 CALLDATALOAD SWAP2 PUSH1 0x1 PUSH1 0x1 PUSH1 0x40 SHL SUB DUP4 GT PUSH2 0xA5 JUMPI PUSH1 0x20 DUP4 DUP2 DUP7 ADD SWAP6 ADD ADD GT PUSH2 0xA5 JUMPI JUMP JUMPDEST SWAP1 PUSH1 0x1 DUP3 DUP2 SHR SWAP3 AND DUP1 ISZERO PUSH2 0x113B JUMPI JUMPDEST PUSH1 0x20 DUP4 LT EQ PUSH2 0x1125 JUMPI JUMP JUMPDEST PUSH4 0x4E487B71 PUSH1 0xE0 SHL PUSH1 0x0 MSTORE PUSH1 0x22 PUSH1 0x4 MSTORE PUSH1 0x24 PUSH1 0x0 REVERT JUMPDEST SWAP2 PUSH1 0x7F AND SWAP2 PUSH2 0x111A JUMP JUMPDEST SWAP1 PUSH1 0x1F DUP1 NOT SWAP2 ADD AND DUP2 ADD SWAP1 DUP2 LT PUSH1 0x1 PUSH1 0x1 PUSH1 0x40 SHL SUB DUP3 GT OR PUSH2 0x70F JUMPI PUSH1 0x40 MSTORE JUMP JUMPDEST SWAP1 PUSH1 0x40 MLOAD SWAP2 DUP3 PUSH1 0x0 DUP3 SLOAD SWAP3 PUSH2 0x117A DUP5 PUSH2 0x110B JUMP JUMPDEST SWAP1 DUP2 DUP5 MSTORE PUSH1 0x1 SWAP5 DUP6 DUP2 AND SWAP1 DUP2 PUSH1 0x0 EQ PUSH2 0x11E9 JUMPI POP PUSH1 0x1 EQ PUSH2 0x11A6 JUMPI JUMPDEST POP POP PUSH2 0x11A4 SWAP3 POP SUB DUP4 PUSH2 0x1145 JUMP JUMPDEST JUMP JUMPDEST SWAP1 SWAP4 SWAP2 POP PUSH1 0x0 MSTORE PUSH1 0x20 SWAP1 DUP2 PUSH1 0x0 KECCAK256 SWAP4 PUSH1 0x0 SWAP2 JUMPDEST DUP2 DUP4 LT PUSH2 0x11D1 JUMPI POP POP PUSH2 0x11A4 SWAP4 POP DUP3 ADD ADD CODESIZE DUP1 PUSH2 0x1196 JUMP JUMPDEST DUP6 SLOAD DUP9 DUP5 ADD DUP6 ADD MSTORE SWAP5 DUP6 ADD SWAP5 DUP8 SWAP5 POP SWAP2 DUP4 ADD SWAP2 PUSH2 0x11B9 JUMP JUMPDEST SWAP2 POP POP PUSH2 0x11A4 SWAP5 POP PUSH1 0x20 SWAP3 POP PUSH1 0xFF NOT AND DUP3 DUP5 ADD MSTORE ISZERO ISZERO PUSH1 0x5 SHL DUP3 ADD ADD CODESIZE DUP1 PUSH2 0x1196 JUMP JUMPDEST SWAP2 SWAP1 DUP3 MLOAD SWAP3 DUP4 DUP3 MSTORE PUSH1 0x0 JUMPDEST DUP5 DUP2 LT PUSH2 0x1238 JUMPI POP POP DUP3 PUSH1 0x0 PUSH1 0x20 DUP1 SWAP5 SWAP6 DUP5 ADD ADD MSTORE PUSH1 0x1F DUP1 NOT SWAP2 ADD AND ADD ADD SWAP1 JUMP JUMPDEST PUSH1 0x20 DUP2 DUP4 ADD DUP2 ADD MLOAD DUP5 DUP4 ADD DUP3 ADD MSTORE ADD PUSH2 0x1217 JUMP JUMPDEST SWAP3 SWAP2 SWAP3 PUSH1 0x1 PUSH1 0x1 PUSH1 0x40 SHL SUB DUP3 GT PUSH2 0x70F JUMPI PUSH1 0x40 MLOAD SWAP2 PUSH2 0x1275 PUSH1 0x1F DUP3 ADD PUSH1 0x1F NOT AND PUSH1 0x20 ADD DUP5 PUSH2 0x1145 JUMP JUMPDEST DUP3 SWAP5 DUP2 DUP5 MSTORE DUP2 DUP4 ADD GT PUSH2 0xA5 JUMPI DUP3 DUP2 PUSH1 0x20 SWAP4 DUP5 PUSH1 0x0 SWAP7 ADD CALLDATACOPY ADD ADD MSTORE JUMP JUMPDEST DUP2 DUP2 LT PUSH2 0x129D JUMPI POP POP JUMP JUMPDEST PUSH1 0x0 DUP2 SSTORE PUSH1 0x1 ADD PUSH2 0x1292 JUMP JUMPDEST PUSH2 0x12B3 DUP2 SLOAD PUSH2 0x110B JUMP JUMPDEST SWAP1 DUP2 PUSH2 0x12BD JUMPI POP POP JUMP JUMPDEST DUP2 PUSH1 0x1F PUSH1 0x0 SWAP4 GT PUSH1 0x1 EQ PUSH2 0x12CF JUMPI POP SSTORE JUMP JUMPDEST SWAP1 DUP1 DUP4 SWAP2 DUP3 MSTORE PUSH2 0x12EE PUSH1 0x1F PUSH1 0x20 DUP5 KECCAK256 SWAP5 ADD PUSH1 0x5 SHR DUP5 ADD PUSH1 0x1 DUP6 ADD PUSH2 0x1292 JUMP JUMPDEST SSTORE SSTORE JUMP JUMPDEST PUSH1 0x9 PUSH1 0x0 SWAP2 DUP3 DUP2 SSTORE DUP3 PUSH1 0x1 DUP3 ADD SSTORE PUSH2 0x130C PUSH1 0x2 DUP3 ADD PUSH2 0x12A9 JUMP JUMPDEST PUSH2 0x1318 PUSH1 0x3 DUP3 ADD PUSH2 0x12A9 JUMP JUMPDEST PUSH2 0x1324 PUSH1 0x4 DUP3 ADD PUSH2 0x12A9 JUMP JUMPDEST PUSH2 0x1330 PUSH1 0x5 DUP3 ADD PUSH2 0x12A9 JUMP JUMPDEST PUSH2 0x133C PUSH1 0x6 DUP3 ADD PUSH2 0x12A9 JUMP JUMPDEST DUP3 PUSH1 0x7 DUP3 ADD SSTORE PUSH2 0x134E PUSH1 0x8 DUP3 ADD PUSH2 0x12A9 JUMP JUMPDEST ADD SSTORE JUMP JUMPDEST SWAP1 DUP2 PUSH1 0x20 SWAP2 SUB SLT PUSH2 0xA5 JUMPI MLOAD DUP1 ISZERO ISZERO DUP2 SUB PUSH2 0xA5 JUMPI SWAP1 JUMP INVALID LOG2 PUSH5 0x6970667358 0x22 SLT KECCAK256 0xE0 SWAP1 CALLDATACOPY ADD 0xE9 0xBC 0xCD 0xB0 RETURNDATACOPY DUP11 SWAP10 PUSH9 0x2EE429E0CA44142B83 0xC3 CALLCODE PUSH24 0x3E611DBF91C94AD164736F6C634300081400330000000000 "
        },
        "methodIdentifiers": {
          "cancelListing(uint256)": "305a67a8",
          "carbonToken()": "82a71ef2",
          "confirmTransaction(uint256,bool)": "c6a725d8",
          "escrows(uint256)": "012f52ee",
          "listingCount()": "a9b07c26",
          "listings(uint256)": "de74e57b",
          "postListing(string,string,string,string,string,string)": "d73b3130",
          "reserveListing(uint256)": "451d034f",
          "rewardAmount()": "f7b2a7be"
        }
      }
    }
  }
}