{
  "contracts/NoRushToTrash.sol": {
    "NoRushToTrash": {
      "abi": [
        {
          "inputs": [
            {
              "internalType": "address",
              "name": "_co2TokenAddress",
              "type": "address"
            }
          ],
          "stateMutability": "nonpayable",
          "type": "constructor"
        },
        {
          "anonymous": false,
          "inputs": [
            {
              "indexed": true,
              "internalType": "uint256",
              "name": "listingId",
              "type": "uint256"
            },
            {
              "indexed": false,
              "internalType": "address",
              "name": "by",
              "type": "address"
            }
          ],
          "name": "TransactionConfirmed",
          "type": "event"
        },
        {
          "anonymous": false,
          "inputs": [
            {
              "indexed": true,
              "internalType": "uint256",
              "name": "listingId",
              "type": "uint256"
            }
          ],
          "name": "listingCancelled",
          "type": "event"
        },
        {
          "anonymous": false,
          "inputs": [
            {
              "indexed": true,
              "internalType": "uint256",
              "name": "listingId",
              "type": "uint256"
            },
            {
              "indexed": false,
              "internalType": "address",
              "name": "owner",
              "type": "address"
            },
            {
              "indexed": false,
              "internalType": "string",
              "name": "title",
              "type": "string"
            }
          ],
          "name": "listingPosted",
          "type": "event"
        },
        {
          "anonymous": false,
          "inputs": [
            {
              "indexed": true,
              "internalType": "uint256",
              "name": "listingId",
              "type": "uint256"
            },
            {
              "indexed": false,
              "internalType": "address",
              "name": "buyer",
              "type": "address"
            }
          ],
          "name": "listingReserved",
          "type": "event"
        },
        {
          "inputs": [
            {
              "internalType": "uint256",
              "name": "_listingId",
              "type": "uint256"
            }
          ],
          "name": "cancelListing",
          "outputs": [],
          "stateMutability": "nonpayable",
          "type": "function"
        },
        {
          "inputs": [],
          "name": "carbonToken",
          "outputs": [
            {
              "internalType": "contract IERC20",
              "name": "",
              "type": "address"
            }
          ],
          "stateMutability": "view",
          "type": "function"
        },
        {
          "inputs": [
            {
              "internalType": "uint256",
              "name": "_listingId",
              "type": "uint256"
            },
            {
              "internalType": "bool",
              "name": "_isSeller",
              "type": "bool"
            }
          ],
          "name": "confirmTransaction",
          "outputs": [],
          "stateMutability": "nonpayable",
          "type": "function"
        },
        {
          "inputs": [
            {
              "internalType": "uint256",
              "name": "",
              "type": "uint256"
            }
          ],
          "name": "escrows",
          "outputs": [
            {
              "internalType": "uint256",
              "name": "listingId",
              "type": "uint256"
            },
            {
              "internalType": "address",
              "name": "buyer",
              "type": "address"
            },
            {
              "internalType": "bool",
              "name": "sellerConfirmed",
              "type": "bool"
            },
            {
              "internalType": "bool",
              "name": "buyerConfirmed",
              "type": "bool"
            }
          ],
          "stateMutability": "view",
          "type": "function"
        },
        {
          "inputs": [],
          "name": "listingCount",
          "outputs": [
            {
              "internalType": "uint256",
              "name": "",
              "type": "uint256"
            }
          ],
          "stateMutability": "view",
          "type": "function"
        },
        {
          "inputs": [
            {
              "internalType": "uint256",
              "name": "",
              "type": "uint256"
            }
          ],
          "name": "listings",
          "outputs": [
            {
              "internalType": "uint256",
              "name": "id",
              "type": "uint256"
            },
            {
              "internalType": "address",
              "name": "owner",
              "type": "address"
            },
            {
              "internalType": "string",
              "name": "title",
              "type": "string"
            },
            {
              "internalType": "string",
              "name": "category",
              "type": "string"
            },
            {
              "internalType": "string",
              "name": "description",
              "type": "string"
            },
            {
              "internalType": "string",
              "name": "condition",
              "type": "string"
            },
            {
              "internalType": "string",
              "name": "location",
              "type": "string"
            },
            {
              "internalType": "bool",
              "name": "isReserved",
              "type": "bool"
            },
            {
              "internalType": "string",
              "name": "cid",
              "type": "string"
            },
            {
              "internalType": "uint256",
              "name": "creationTime",
              "type": "uint256"
            }
          ],
          "stateMutability": "view",
          "type": "function"
        },
        {
          "inputs": [
            {
              "internalType": "string",
              "name": "_title",
              "type": "string"
            },
            {
              "internalType": "string",
              "name": "_category",
              "type": "string"
            },
            {
              "internalType": "string",
              "name": "_description",
              "type": "string"
            },
            {
              "internalType": "string",
              "name": "_condition",
              "type": "string"
            },
            {
              "internalType": "string",
              "name": "_location",
              "type": "string"
            },
            {
              "internalType": "string",
              "name": "_cid",
              "type": "string"
            }
          ],
          "name": "postListing",
          "outputs": [],
          "stateMutability": "nonpayable",
          "type": "function"
        },
        {
          "inputs": [
            {
              "internalType": "uint256",
              "name": "_listingId",
              "type": "uint256"
            }
          ],
          "name": "reserveListing",
          "outputs": [],
          "stateMutability": "nonpayable",
          "type": "function"
        },
        {
          "inputs": [],
          "name": "rewardAmount",
          "outputs": [
            {
              "internalType": "uint256",
              "name": "",
              "type": "uint256"
            }
          ],
          "stateMutability": "view",
          "type": "function"
        }
      ],
      "evm": {
        "bytecode": {
          "linkReferences": {},
          "object": "60803461007857601f61146b38819003918201601f19168301916001600160401b0383118484101761007d5780849260209460405283398101031261007857516001600160a01b038116908190036100785760008055600380546001600160a01b0319169190911790556040516113d790816100948239f35b600080fd5b634e487b7160e01b600052604160045260246000fdfe608080604052600436101561001357600080fd5b60003560e01c908163012f52ee146110bd57508063305a67a814610fc6578063451d034f14610de457806382a71ef214610dbb578063a9b07c2614610d9d578063c6a725d814610aae578063d73b3130146101bb578063de74e57b146100a35763f7b2a7be1461008257600080fd5b3461009e57600036600319011261009e576020604051600a8152f35b600080fd5b3461009e57602036600319011261009e57600435600052600160205260406000208054600160a01b6001900360018301541691600281016100e39061119d565b906100f06003820161119d565b6100fc6004830161119d565b6101086005840161119d565b6101146006850161119d565b91600785015460ff16936008860161012b9061119d565b956009015496604051998a998a5260208a01526101408060408b0152890161015291611243565b88810360608a015261016391611243565b878103608089015261017491611243565b86810360a088015261018591611243565b85810360c087015261019691611243565b90151560e08501528381036101008501526101b091611243565b906101208301520390f35b3461009e5760c036600319011261009e576004356001600160401b03811161009e576101eb903690600401611115565b6024356001600160401b03811161009e5761020a903690600401611115565b9190926044356001600160401b03811161009e5761022c903690600401611115565b9490936064356001600160401b03811161009e5761024e903690600401611115565b9590916084356001600160401b03811161009e57610270903690600401611115565b60a4356001600160401b03811161009e5761028f903690600401611115565b9490956000549a6000198c14610a985760018c016000556040519c8d6001600160401b036101408281810110920111176107085760806103138f92958f968f8f9e61033c9f9c6102fb6103299e6103079461031d9d6101408c016040528b523360208c01523691611283565b60408901523691611283565b60608601523691611283565b9101523691611283565b60a08b01523691611283565b60c0880152600060e08801523691611283565b610100850152426101208501528260005260016020526040600020845181556001810160018060a01b036020870151166bffffffffffffffffffffffff60a01b82541617905560408501518051906001600160401b0382116107085781906103a76002850154611142565b601f8111610a63575b50602090601f83116001146109f1576000926109e6575b50508160011b916000199060031b1c19161760028201555b60608501518051906001600160401b0382116107085781906104046003850154611142565b601f81116109b1575b50602090601f831160011461093f57600092610934575b50508160011b916000199060031b1c19161760038201555b60808501518051906001600160401b0382116107085781906104616004850154611142565b601f81116108ff575b50602090601f831160011461088d57600092610882575b50508160011b916000199060031b1c19161760048201555b60a08501518051906001600160401b0382116107085781906104be6005850154611142565b601f811161084d575b50602090601f83116001146107db576000926107d0575b50508160011b916000199060031b1c19161760058201555b60c08501518051906001600160401b03821161070857819061051b6006850154611142565b601f811161079b575b50602090601f83116001146107295760009261071e575b50508160011b916000199060031b1c19161760068201555b6007810160e0860151151560ff8019835416911617905560088101946101008101519586516001600160401b038111610708576105908254611142565b601f81116106cb575b506020601f82116001146106375792600992826101209360609897967f9687b779e981aa6968b26fe96d9fbeb5abe0fab6b2b4ec65d5177ab6bb4667dc9b9c60009261062c575b50508160011b916000199060031b1c19161790555b01519101558260405193849233845260406020850152816040850152848401376000828201840152601f01601f19168101030190a2005b015190508c806105e0565b601f198216988360005260206000209960005b8181106106b35750837f9687b779e981aa6968b26fe96d9fbeb5abe0fab6b2b4ec65d5177ab6bb4667dc9a9b60609998979460099794610120976001951061069a575b505050811b0190556105f5565b015160001960f88460031b161c191690558c808061068d565b838301518c556001909b019a6020938401930161064a565b6106f890836000526020600020601f840160051c810191602085106106fe575b601f0160051c01906112c9565b88610599565b90915081906106eb565b634e487b7160e01b600052604160045260246000fd5b01519050878061053b565b9250600684016000526020600020906000935b601f1984168510610780576001945083601f19811610610767575b505050811b016006820155610553565b015160001960f88460031b161c19169055878080610757565b8181015183556020948501946001909301929091019061073c565b6107ca90600686016000526020600020601f850160051c810191602086106106fe57601f0160051c01906112c9565b88610524565b0151905087806104de565b9250600584016000526020600020906000935b601f1984168510610832576001945083601f19811610610819575b505050811b0160058201556104f6565b015160001960f88460031b161c19169055878080610809565b818101518355602094850194600190930192909101906107ee565b61087c90600586016000526020600020601f850160051c810191602086106106fe57601f0160051c01906112c9565b886104c7565b015190508780610481565b9250600484016000526020600020906000935b601f19841685106108e4576001945083601f198116106108cb575b505050811b016004820155610499565b015160001960f88460031b161c191690558780806108bb565b818101518355602094850194600190930192909101906108a0565b61092e90600486016000526020600020601f850160051c810191602086106106fe57601f0160051c01906112c9565b8861046a565b015190508780610424565b9250600384016000526020600020906000935b601f1984168510610996576001945083601f1981161061097d575b505050811b01600382015561043c565b015160001960f88460031b161c1916905587808061096d565b81810151835560209485019460019093019290910190610952565b6109e090600386016000526020600020601f850160051c810191602086106106fe57601f0160051c01906112c9565b8861040d565b0151905087806103c7565b9250600284016000526020600020906000935b601f1984168510610a48576001945083601f19811610610a2f575b505050811b0160028201556103df565b015160001960f88460031b161c19169055878080610a1f565b81810151835560209485019460019093019290910190610a04565b610a9290600286016000526020600020601f850160051c810191602086106106fe57601f0160051c01906112c9565b886103b0565b634e487b7160e01b600052601160045260246000fd5b3461009e57604036600319011261009e57602435801515810361009e576004356000908152600260205260409020600101805490916001600160a01b03821633148015919082610d7e575b15610d395715610cec57505060043560005260016020523360018060a01b036001604060002001541603610cb657805460ff60a01b1916600160a01b1781555b5460ff8160a01c1680610ca9575b610b7c575b6040513381527f15c2f311c9e0f53b50388279894aeff029a3457884a6601e924fca879e12adcc602060043592a2005b60035460405163a9059cbb60e01b81526001600160a01b039283166004820152600560248201529160209183916044918391600091165af18015610c7e57610c8a575b5060035460048035600090815260016020818152604080842090920154915163a9059cbb60e01b81526001600160a01b039283169481019490945260056024850152929384926044928492165af18015610c7e57610c4f575b506004356000526001602052610c316040600020611329565b60043560005260026020526000600160408220828155015580610b4c565b610c709060203d602011610c77575b610c68818361117c565b810190611389565b5080610c18565b503d610c5e565b6040513d6000823e3d90fd5b610ca29060203d602011610c7757610c68818361117c565b5080610bbf565b5060ff8160a81c16610b47565b60405162461bcd60e51b815260206004820152600e60248201526d2737ba103a34329039b2b63632b960911b6044820152606490fd5b610d045760ff60a81b1916600160a81b178155610b39565b60405162461bcd60e51b815260206004820152600d60248201526c2737ba103a343290313abcb2b960991b6044820152606490fd5b60405162461bcd60e51b815260206004820152601c60248201527f4e6f742070617274206f662074686973207472616e73616374696f6e000000006044820152606490fd5b5060016020819052604060002001546001600160a01b03163314610af9565b3461009e57600036600319011261009e576020600054604051908152f35b3461009e57600036600319011261009e576003546040516001600160a01b039091168152602090f35b3461009e5760208060031936011261009e5760043590816000526001815260ff60076040600020015416610f8f5781600052600181526007604060002001600160ff1982541617905560018060a01b0390600081836003541660446040518094819363095ea7b360e01b8352306004840152600a60248401525af18015610c7e57610f72575b5060008183600354166064604051809481936323b872dd60e01b8352336004840152306024840152600a60448401525af18015610c7e57610f55575b5060405160808101928184106001600160401b03851117610708577ff3d6548800d5ddcdcff15736f84ffa1ae7a7e088a140b1c8feacb44904765c879360405284825282820191338352604081019160008352600160608301926000845288600052600287526040600020905181550193511683549260ff60a01b9051151560a01b169160ff60a81b9051151560a81b169269ffffffffffffffffffff60b01b161717179055604051338152a2005b610f6b90823d8411610c7757610c68818361117c565b5083610ea6565b610f8890823d8411610c7757610c68818361117c565b5083610e6a565b6064906040519062461bcd60e51b82526004820152601060248201526f105b1c9958591e481c995cd95c9d995960821b6044820152fd5b3461009e5760208060031936011261009e5760043590816000526001815260018060a01b0360016040600020015416330361108957816000526001815260ff6007604060002001541661104f5760019082600052526110286040600020611329565b7f53aae3f23c7401f48fa78a04049387bbed1058d9508c4e94fe9a5a64ff46d097600080a2005b6064906040519062461bcd60e51b825260048201526013602482015272131a5cdd1a5b99c81a5cc81c995cd95c9d9959606a1b6044820152fd5b6064906040519062461bcd60e51b82526004820152600d60248201526c2737ba103a34329037bbb732b960991b6044820152fd5b3461009e57602036600319011261009e57608090600435600052600260205260ff60406000206001815491015490835260018060a01b0381166020840152818160a01c161515604084015260a81c1615156060820152f35b9181601f8401121561009e578235916001600160401b03831161009e576020838186019501011161009e57565b90600182811c92168015611172575b602083101461115c57565b634e487b7160e01b600052602260045260246000fd5b91607f1691611151565b90601f801991011681019081106001600160401b0382111761070857604052565b90604051918260008254926111b184611142565b90818452600194858116908160001461122057506001146111dd575b50506111db9250038361117c565b565b9093915060005260209081600020936000915b8183106112085750506111db935082010138806111cd565b855488840185015294850194879450918301916111f0565b9150506111db94506020925060ff191682840152151560051b82010138806111cd565b919082519283825260005b84811061126f575050826000602080949584010152601f8019910116010190565b60208183018101518483018201520161124e565b9291926001600160401b03821161070857604051916112ac601f8201601f19166020018461117c565b82948184528183011161009e578281602093846000960137010152565b8181106112d4575050565b600081556001016112c9565b6112ea8154611142565b90816112f4575050565b81601f60009311600114611306575055565b908083918252611325601f60208420940160051c8401600185016112c9565b5555565b6009600091828155826001820155611343600282016112e0565b61134f600382016112e0565b61135b600482016112e0565b611367600582016112e0565b611373600682016112e0565b826007820155611385600882016112e0565b0155565b9081602091031261009e5751801515810361009e579056fea26469706673582212208006eeef9d1a9339a8e5f10b1e925bf7d72d7f58ab2d44f39c8766bd84b99dc264736f6c63430008140033",
          "opcodes": "PUSH1 0x80 CALLVALUE PUSH2 0x78 JUMPI PUSH1 0x1F PUSH2 0x146B CODESIZE DUP2 SWAP1 SUB SWAP2 DUP3 ADD PUSH1 0x1F NOT AND DUP4 ADD SWAP2 PUSH1 0x1 PUSH1 0x1 PUSH1 0x40 SHL SUB DUP4 GT DUP5 DUP5 LT OR PUSH2 0x7D JUMPI DUP1 DUP5 SWAP3 PUSH1 0x20 SWAP5 PUSH1 0x40 MSTORE DUP4 CODECOPY DUP2 ADD SUB SLT PUSH2 0x78 JUMPI MLOAD PUSH1 0x1 PUSH1 0x1 PUSH1 0xA0 SHL SUB DUP2 AND SWAP1 DUP2 SWAP1 SUB PUSH2 0x78 JUMPI PUSH1 0x0 DUP1 SSTORE PUSH1 0x3 DUP1 SLOAD PUSH1 0x1 PUSH1 0x1 PUSH1 0xA0 SHL SUB NOT AND SWAP2 SWAP1 SWAP2 OR SWAP1 SSTORE PUSH1 0x40 MLOAD PUSH2 0x13D7 SWAP1 DUP2 PUSH2 0x94 DUP3 CODECOPY RETURN JUMPDEST PUSH1 0x0 DUP1 REVERT JUMPDEST PUSH4 0x4E487B71 PUSH1 0xE0 SHL PUSH1 0x0 MSTORE PUSH1 0x41 PUSH1 0x4 MSTORE PUSH1 0x24 PUSH1 0x0 REVERT INVALID PUSH1 0x80 DUP1 PUSH1 0x40 MSTORE PUSH1 0x4 CALLDATASIZE LT ISZERO PUSH2 0x13 JUMPI PUSH1 0x0 DUP1 REVERT JUMPDEST PUSH1 0x0 CALLDATALOAD PUSH1 0xE0 SHR SWAP1 DUP2 PUSH4 0x12F52EE EQ PUSH2 0x10BD JUMPI POP DUP1 PUSH4 0x305A67A8 EQ PUSH2 0xFC6 JUMPI DUP1 PUSH4 0x451D034F EQ PUSH2 0xDE4 JUMPI DUP1 PUSH4 0x82A71EF2 EQ PUSH2 0xDBB JUMPI DUP1 PUSH4 0xA9B07C26 EQ PUSH2 0xD9D JUMPI DUP1 PUSH4 0xC6A725D8 EQ PUSH2 0xAAE JUMPI DUP1 PUSH4 0xD73B3130 EQ PUSH2 0x1BB JUMPI DUP1 PUSH4 0xDE74E57B EQ PUSH2 0xA3 JUMPI PUSH4 0xF7B2A7BE EQ PUSH2 0x82 JUMPI PUSH1 0x0 DUP1 REVERT JUMPDEST CALLVALUE PUSH2 0x9E JUMPI PUSH1 0x0 CALLDATASIZE PUSH1 0x3 NOT ADD SLT PUSH2 0x9E JUMPI PUSH1 0x20 PUSH1 0x40 MLOAD PUSH1 0xA DUP2 MSTORE RETURN JUMPDEST PUSH1 0x0 DUP1 REVERT JUMPDEST CALLVALUE PUSH2 0x9E JUMPI PUSH1 0x20 CALLDATASIZE PUSH1 0x3 NOT ADD SLT PUSH2 0x9E JUMPI PUSH1 0x4 CALLDATALOAD PUSH1 0x0 MSTORE PUSH1 0x1 PUSH1 0x20 MSTORE PUSH1 0x40 PUSH1 0x0 KECCAK256 DUP1 SLOAD PUSH1 0x1 PUSH1 0xA0 SHL PUSH1 0x1 SWAP1 SUB PUSH1 0x1 DUP4 ADD SLOAD AND SWAP2 PUSH1 0x2 DUP2 ADD PUSH2 0xE3 SWAP1 PUSH2 0x119D JUMP JUMPDEST SWAP1 PUSH2 0xF0 PUSH1 0x3 DUP3 ADD PUSH2 0x119D JUMP JUMPDEST PUSH2 0xFC PUSH1 0x4 DUP4 ADD PUSH2 0x119D JUMP JUMPDEST PUSH2 0x108 PUSH1 0x5 DUP5 ADD PUSH2 0x119D JUMP JUMPDEST PUSH2 0x114 PUSH1 0x6 DUP6 ADD PUSH2 0x119D JUMP JUMPDEST SWAP2 PUSH1 0x7 DUP6 ADD SLOAD PUSH1 0xFF AND SWAP4 PUSH1 0x8 DUP7 ADD PUSH2 0x12B SWAP1 PUSH2 0x119D JUMP JUMPDEST SWAP6 PUSH1 0x9 ADD SLOAD SWAP7 PUSH1 0x40 MLOAD SWAP10 DUP11 SWAP10 DUP11 MSTORE PUSH1 0x20 DUP11 ADD MSTORE PUSH2 0x140 DUP1 PUSH1 0x40 DUP12 ADD MSTORE DUP10 ADD PUSH2 0x152 SWAP2 PUSH2 0x1243 JUMP JUMPDEST DUP9 DUP2 SUB PUSH1 0x60 DUP11 ADD MSTORE PUSH2 0x163 SWAP2 PUSH2 0x1243 JUMP JUMPDEST DUP8 DUP2 SUB PUSH1 0x80 DUP10 ADD MSTORE PUSH2 0x174 SWAP2 PUSH2 0x1243 JUMP JUMPDEST DUP7 DUP2 SUB PUSH1 0xA0 DUP9 ADD MSTORE PUSH2 0x185 SWAP2 PUSH2 0x1243 JUMP JUMPDEST DUP6 DUP2 SUB PUSH1 0xC0 DUP8 ADD MSTORE PUSH2 0x196 SWAP2 PUSH2 0x1243 JUMP JUMPDEST SWAP1 ISZERO ISZERO PUSH1 0xE0 DUP6 ADD MSTORE DUP4 DUP2 SUB PUSH2 0x100 DUP6 ADD MSTORE PUSH2 0x1B0 SWAP2 PUSH2 0x1243 JUMP JUMPDEST SWAP1 PUSH2 0x120 DUP4 ADD MSTORE SUB SWAP1 RETURN JUMPDEST CALLVALUE PUSH2 0x9E JUMPI PUSH1 0xC0 CALLDATASIZE PUSH1 0x3 NOT ADD SLT PUSH2 0x9E JUMPI PUSH1 0x4 CALLDATALOAD PUSH1 0x1 PUSH1 0x1 PUSH1 0x40 SHL SUB DUP2 GT PUSH2 0x9E JUMPI PUSH2 0x1EB SWAP1 CALLDATASIZE SWAP1 PUSH1 0x4 ADD PUSH2 0x1115 JUMP JUMPDEST PUSH1 0x24 CALLDATALOAD PUSH1 0x1 PUSH1 0x1 PUSH1 0x40 SHL SUB DUP2 GT PUSH2 0x9E JUMPI PUSH2 0x20A SWAP1 CALLDATASIZE SWAP1 PUSH1 0x4 ADD PUSH2 0x1115 JUMP JUMPDEST SWAP2 SWAP1 SWAP3 PUSH1 0x44 CALLDATALOAD PUSH1 0x1 PUSH1 0x1 PUSH1 0x40 SHL SUB DUP2 GT PUSH2 0x9E JUMPI PUSH2 0x22C SWAP1 CALLDATASIZE SWAP1 PUSH1 0x4 ADD PUSH2 0x1115 JUMP JUMPDEST SWAP5 SWAP1 SWAP4 PUSH1 0x64 CALLDATALOAD PUSH1 0x1 PUSH1 0x1 PUSH1 0x40 SHL SUB DUP2 GT PUSH2 0x9E JUMPI PUSH2 0x24E SWAP1 CALLDATASIZE SWAP1 PUSH1 0x4 ADD PUSH2 0x1115 JUMP JUMPDEST SWAP6 SWAP1 SWAP2 PUSH1 0x84 CALLDATALOAD PUSH1 0x1 PUSH1 0x1 PUSH1 0x40 SHL SUB DUP2 GT PUSH2 0x9E JUMPI PUSH2 0x270 SWAP1 CALLDATASIZE SWAP1 PUSH1 0x4 ADD PUSH2 0x1115 JUMP JUMPDEST PUSH1 0xA4 CALLDATALOAD PUSH1 0x1 PUSH1 0x1 PUSH1 0x40 SHL SUB DUP2 GT PUSH2 0x9E JUMPI PUSH2 0x28F SWAP1 CALLDATASIZE SWAP1 PUSH1 0x4 ADD PUSH2 0x1115 JUMP JUMPDEST SWAP5 SWAP1 SWAP6 PUSH1 0x0 SLOAD SWAP11 PUSH1 0x0 NOT DUP13 EQ PUSH2 0xA98 JUMPI PUSH1 0x1 DUP13 ADD PUSH1 0x0 SSTORE PUSH1 0x40 MLOAD SWAP13 DUP14 PUSH1 0x1 PUSH1 0x1 PUSH1 0x40 SHL SUB PUSH2 0x140 DUP3 DUP2 DUP2 ADD LT SWAP3 ADD GT OR PUSH2 0x708 JUMPI PUSH1 0x80 PUSH2 0x313 DUP16 SWAP3 SWAP6 DUP16 SWAP7 DUP16 DUP16 SWAP15 PUSH2 0x33C SWAP16 SWAP13 PUSH2 0x2FB PUSH2 0x329 SWAP15 PUSH2 0x307 SWAP5 PUSH2 0x31D SWAP14 PUSH2 0x140 DUP13 ADD PUSH1 0x40 MSTORE DUP12 MSTORE CALLER PUSH1 0x20 DUP13 ADD MSTORE CALLDATASIZE SWAP2 PUSH2 0x1283 JUMP JUMPDEST PUSH1 0x40 DUP10 ADD MSTORE CALLDATASIZE SWAP2 PUSH2 0x1283 JUMP JUMPDEST PUSH1 0x60 DUP7 ADD MSTORE CALLDATASIZE SWAP2 PUSH2 0x1283 JUMP JUMPDEST SWAP2 ADD MSTORE CALLDATASIZE SWAP2 PUSH2 0x1283 JUMP JUMPDEST PUSH1 0xA0 DUP12 ADD MSTORE CALLDATASIZE SWAP2 PUSH2 0x1283 JUMP JUMPDEST PUSH1 0xC0 DUP9 ADD MSTORE PUSH1 0x0 PUSH1 0xE0 DUP9 ADD MSTORE CALLDATASIZE SWAP2 PUSH2 0x1283 JUMP JUMPDEST PUSH2 0x100 DUP6 ADD MSTORE TIMESTAMP PUSH2 0x120 DUP6 ADD MSTORE DUP3 PUSH1 0x0 MSTORE PUSH1 0x1 PUSH1 0x20 MSTORE PUSH1 0x40 PUSH1 0x0 KECCAK256 DUP5 MLOAD DUP2 SSTORE PUSH1 0x1 DUP2 ADD PUSH1 0x1 DUP1 PUSH1 0xA0 SHL SUB PUSH1 0x20 DUP8 ADD MLOAD AND PUSH12 0xFFFFFFFFFFFFFFFFFFFFFFFF PUSH1 0xA0 SHL DUP3 SLOAD AND OR SWAP1 SSTORE PUSH1 0x40 DUP6 ADD MLOAD DUP1 MLOAD SWAP1 PUSH1 0x1 PUSH1 0x1 PUSH1 0x40 SHL SUB DUP3 GT PUSH2 0x708 JUMPI DUP2 SWAP1 PUSH2 0x3A7 PUSH1 0x2 DUP6 ADD SLOAD PUSH2 0x1142 JUMP JUMPDEST PUSH1 0x1F DUP2 GT PUSH2 0xA63 JUMPI JUMPDEST POP PUSH1 0x20 SWAP1 PUSH1 0x1F DUP4 GT PUSH1 0x1 EQ PUSH2 0x9F1 JUMPI PUSH1 0x0 SWAP3 PUSH2 0x9E6 JUMPI JUMPDEST POP POP DUP2 PUSH1 0x1 SHL SWAP2 PUSH1 0x0 NOT SWAP1 PUSH1 0x3 SHL SHR NOT AND OR PUSH1 0x2 DUP3 ADD SSTORE JUMPDEST PUSH1 0x60 DUP6 ADD MLOAD DUP1 MLOAD SWAP1 PUSH1 0x1 PUSH1 0x1 PUSH1 0x40 SHL SUB DUP3 GT PUSH2 0x708 JUMPI DUP2 SWAP1 PUSH2 0x404 PUSH1 0x3 DUP6 ADD SLOAD PUSH2 0x1142 JUMP JUMPDEST PUSH1 0x1F DUP2 GT PUSH2 0x9B1 JUMPI JUMPDEST POP PUSH1 0x20 SWAP1 PUSH1 0x1F DUP4 GT PUSH1 0x1 EQ PUSH2 0x93F JUMPI PUSH1 0x0 SWAP3 PUSH2 0x934 JUMPI JUMPDEST POP POP DUP2 PUSH1 0x1 SHL SWAP2 PUSH1 0x0 NOT SWAP1 PUSH1 0x3 SHL SHR NOT AND OR PUSH1 0x3 DUP3 ADD SSTORE JUMPDEST PUSH1 0x80 DUP6 ADD MLOAD DUP1 MLOAD SWAP1 PUSH1 0x1 PUSH1 0x1 PUSH1 0x40 SHL SUB DUP3 GT PUSH2 0x708 JUMPI DUP2 SWAP1 PUSH2 0x461 PUSH1 0x4 DUP6 ADD SLOAD PUSH2 0x1142 JUMP JUMPDEST PUSH1 0x1F DUP2 GT PUSH2 0x8FF JUMPI JUMPDEST POP PUSH1 0x20 SWAP1 PUSH1 0x1F DUP4 GT PUSH1 0x1 EQ PUSH2 0x88D JUMPI PUSH1 0x0 SWAP3 PUSH2 0x882 JUMPI JUMPDEST POP POP DUP2 PUSH1 0x1 SHL SWAP2 PUSH1 0x0 NOT SWAP1 PUSH1 0x3 SHL SHR NOT AND OR PUSH1 0x4 DUP3 ADD SSTORE JUMPDEST PUSH1 0xA0 DUP6 ADD MLOAD DUP1 MLOAD SWAP1 PUSH1 0x1 PUSH1 0x1 PUSH1 0x40 SHL SUB DUP3 GT PUSH2 0x708 JUMPI DUP2 SWAP1 PUSH2 0x4BE PUSH1 0x5 DUP6 ADD SLOAD PUSH2 0x1142 JUMP JUMPDEST PUSH1 0x1F DUP2 GT PUSH2 0x84D JUMPI JUMPDEST POP PUSH1 0x20 SWAP1 PUSH1 0x1F DUP4 GT PUSH1 0x1 EQ PUSH2 0x7DB JUMPI PUSH1 0x0 SWAP3 PUSH2 0x7D0 JUMPI JUMPDEST POP POP DUP2 PUSH1 0x1 SHL SWAP2 PUSH1 0x0 NOT SWAP1 PUSH1 0x3 SHL SHR NOT AND OR PUSH1 0x5 DUP3 ADD SSTORE JUMPDEST PUSH1 0xC0 DUP6 ADD MLOAD DUP1 MLOAD SWAP1 PUSH1 0x1 PUSH1 0x1 PUSH1 0x40 SHL SUB DUP3 GT PUSH2 0x708 JUMPI DUP2 SWAP1 PUSH2 0x51B PUSH1 0x6 DUP6 ADD SLOAD PUSH2 0x1142 JUMP JUMPDEST PUSH1 0x1F DUP2 GT PUSH2 0x79B JUMPI JUMPDEST POP PUSH1 0x20 SWAP1 PUSH1 0x1F DUP4 GT PUSH1 0x1 EQ PUSH2 0x729 JUMPI PUSH1 0x0 SWAP3 PUSH2 0x71E JUMPI JUMPDEST POP POP DUP2 PUSH1 0x1 SHL SWAP2 PUSH1 0x0 NOT SWAP1 PUSH1 0x3 SHL SHR NOT AND OR PUSH1 0x6 DUP3 ADD SSTORE JUMPDEST PUSH1 0x7 DUP2 ADD PUSH1 0xE0 DUP7 ADD MLOAD ISZERO ISZERO PUSH1 0xFF DUP1 NOT DUP4 SLOAD AND SWAP2 AND OR SWAP1 SSTORE PUSH1 0x8 DUP2 ADD SWAP5 PUSH2 0x100 DUP2 ADD MLOAD SWAP6 DUP7 MLOAD PUSH1 0x1 PUSH1 0x1 PUSH1 0x40 SHL SUB DUP2 GT PUSH2 0x708 JUMPI PUSH2 0x590 DUP3 SLOAD PUSH2 0x1142 JUMP JUMPDEST PUSH1 0x1F DUP2 GT PUSH2 0x6CB JUMPI JUMPDEST POP PUSH1 0x20 PUSH1 0x1F DUP3 GT PUSH1 0x1 EQ PUSH2 0x637 JUMPI SWAP3 PUSH1 0x9 SWAP3 DUP3 PUSH2 0x120 SWAP4 PUSH1 0x60 SWAP9 SWAP8 SWAP7 PUSH32 0x9687B779E981AA6968B26FE96D9FBEB5ABE0FAB6B2B4EC65D5177AB6BB4667DC SWAP12 SWAP13 PUSH1 0x0 SWAP3 PUSH2 0x62C JUMPI JUMPDEST POP POP DUP2 PUSH1 0x1 SHL SWAP2 PUSH1 0x0 NOT SWAP1 PUSH1 0x3 SHL SHR NOT AND OR SWAP1 SSTORE JUMPDEST ADD MLOAD SWAP2 ADD SSTORE DUP3 PUSH1 0x40 MLOAD SWAP4 DUP5 SWAP3 CALLER DUP5 MSTORE PUSH1 0x40 PUSH1 0x20 DUP6 ADD MSTORE DUP2 PUSH1 0x40 DUP6 ADD MSTORE DUP5 DUP5 ADD CALLDATACOPY PUSH1 0x0 DUP3 DUP3 ADD DUP5 ADD MSTORE PUSH1 0x1F ADD PUSH1 0x1F NOT AND DUP2 ADD SUB ADD SWAP1 LOG2 STOP JUMPDEST ADD MLOAD SWAP1 POP DUP13 DUP1 PUSH2 0x5E0 JUMP JUMPDEST PUSH1 0x1F NOT DUP3 AND SWAP9 DUP4 PUSH1 0x0 MSTORE PUSH1 0x20 PUSH1 0x0 KECCAK256 SWAP10 PUSH1 0x0 JUMPDEST DUP2 DUP2 LT PUSH2 0x6B3 JUMPI POP DUP4 PUSH32 0x9687B779E981AA6968B26FE96D9FBEB5ABE0FAB6B2B4EC65D5177AB6BB4667DC SWAP11 SWAP12 PUSH1 0x60 SWAP10 SWAP9 SWAP8 SWAP5 PUSH1 0x9 SWAP8 SWAP5 PUSH2 0x120 SWAP8 PUSH1 0x1 SWAP6 LT PUSH2 0x69A JUMPI JUMPDEST POP POP POP DUP2 SHL ADD SWAP1 SSTORE PUSH2 0x5F5 JUMP JUMPDEST ADD MLOAD PUSH1 0x0 NOT PUSH1 0xF8 DUP5 PUSH1 0x3 SHL AND SHR NOT AND SWAP1 SSTORE DUP13 DUP1 DUP1 PUSH2 0x68D JUMP JUMPDEST DUP4 DUP4 ADD MLOAD DUP13 SSTORE PUSH1 0x1 SWAP1 SWAP12 ADD SWAP11 PUSH1 0x20 SWAP4 DUP5 ADD SWAP4 ADD PUSH2 0x64A JUMP JUMPDEST PUSH2 0x6F8 SWAP1 DUP4 PUSH1 0x0 MSTORE PUSH1 0x20 PUSH1 0x0 KECCAK256 PUSH1 0x1F DUP5 ADD PUSH1 0x5 SHR DUP2 ADD SWAP2 PUSH1 0x20 DUP6 LT PUSH2 0x6FE JUMPI JUMPDEST PUSH1 0x1F ADD PUSH1 0x5 SHR ADD SWAP1 PUSH2 0x12C9 JUMP JUMPDEST DUP9 PUSH2 0x599 JUMP JUMPDEST SWAP1 SWAP2 POP DUP2 SWAP1 PUSH2 0x6EB JUMP JUMPDEST PUSH4 0x4E487B71 PUSH1 0xE0 SHL PUSH1 0x0 MSTORE PUSH1 0x41 PUSH1 0x4 MSTORE PUSH1 0x24 PUSH1 0x0 REVERT JUMPDEST ADD MLOAD SWAP1 POP DUP8 DUP1 PUSH2 0x53B JUMP JUMPDEST SWAP3 POP PUSH1 0x6 DUP5 ADD PUSH1 0x0 MSTORE PUSH1 0x20 PUSH1 0x0 KECCAK256 SWAP1 PUSH1 0x0 SWAP4 JUMPDEST PUSH1 0x1F NOT DUP5 AND DUP6 LT PUSH2 0x780 JUMPI PUSH1 0x1 SWAP5 POP DUP4 PUSH1 0x1F NOT DUP2 AND LT PUSH2 0x767 JUMPI JUMPDEST POP POP POP DUP2 SHL ADD PUSH1 0x6 DUP3 ADD SSTORE PUSH2 0x553 JUMP JUMPDEST ADD MLOAD PUSH1 0x0 NOT PUSH1 0xF8 DUP5 PUSH1 0x3 SHL AND SHR NOT AND SWAP1 SSTORE DUP8 DUP1 DUP1 PUSH2 0x757 JUMP JUMPDEST DUP2 DUP2 ADD MLOAD DUP4 SSTORE PUSH1 0x20 SWAP5 DUP6 ADD SWAP5 PUSH1 0x1 SWAP1 SWAP4 ADD SWAP3 SWAP1 SWAP2 ADD SWAP1 PUSH2 0x73C JUMP JUMPDEST PUSH2 0x7CA SWAP1 PUSH1 0x6 DUP7 ADD PUSH1 0x0 MSTORE PUSH1 0x20 PUSH1 0x0 KECCAK256 PUSH1 0x1F DUP6 ADD PUSH1 0x5 SHR DUP2 ADD SWAP2 PUSH1 0x20 DUP7 LT PUSH2 0x6FE JUMPI PUSH1 0x1F ADD PUSH1 0x5 SHR ADD SWAP1 PUSH2 0x12C9 JUMP JUMPDEST DUP9 PUSH2 0x524 JUMP JUMPDEST ADD MLOAD SWAP1 POP DUP8 DUP1 PUSH2 0x4DE JUMP JUMPDEST SWAP3 POP PUSH1 0x5 DUP5 ADD PUSH1 0x0 MSTORE PUSH1 0x20 PUSH1 0x0 KECCAK256 SWAP1 PUSH1 0x0 SWAP4 JUMPDEST PUSH1 0x1F NOT DUP5 AND DUP6 LT PUSH2 0x832 JUMPI PUSH1 0x1 SWAP5 POP DUP4 PUSH1 0x1F NOT DUP2 AND LT PUSH2 0x819 JUMPI JUMPDEST POP POP POP DUP2 SHL ADD PUSH1 0x5 DUP3 ADD SSTORE PUSH2 0x4F6 JUMP JUMPDEST ADD MLOAD PUSH1 0x0 NOT PUSH1 0xF8 DUP5 PUSH1 0x3 SHL AND SHR NOT AND SWAP1 SSTORE DUP8 DUP1 DUP1 PUSH2 0x809 JUMP JUMPDEST DUP2 DUP2 ADD MLOAD DUP4 SSTORE PUSH1 0x20 SWAP5 DUP6 ADD SWAP5 PUSH1 0x1 SWAP1 SWAP4 ADD SWAP3 SWAP1 SWAP2 ADD SWAP1 PUSH2 0x7EE JUMP JUMPDEST PUSH2 0x87C SWAP1 PUSH1 0x5 DUP7 ADD PUSH1 0x0 MSTORE PUSH1 0x20 PUSH1 0x0 KECCAK256 PUSH1 0x1F DUP6 ADD PUSH1 0x5 SHR DUP2 ADD SWAP2 PUSH1 0x20 DUP7 LT PUSH2 0x6FE JUMPI PUSH1 0x1F ADD PUSH1 0x5 SHR ADD SWAP1 PUSH2 0x12C9 JUMP JUMPDEST DUP9 PUSH2 0x4C7 JUMP JUMPDEST ADD MLOAD SWAP1 POP DUP8 DUP1 PUSH2 0x481 JUMP JUMPDEST SWAP3 POP PUSH1 0x4 DUP5 ADD PUSH1 0x0 MSTORE PUSH1 0x20 PUSH1 0x0 KECCAK256 SWAP1 PUSH1 0x0 SWAP4 JUMPDEST PUSH1 0x1F NOT DUP5 AND DUP6 LT PUSH2 0x8E4 JUMPI PUSH1 0x1 SWAP5 POP DUP4 PUSH1 0x1F NOT DUP2 AND LT PUSH2 0x8CB JUMPI JUMPDEST POP POP POP DUP2 SHL ADD PUSH1 0x4 DUP3 ADD SSTORE PUSH2 0x499 JUMP JUMPDEST ADD MLOAD PUSH1 0x0 NOT PUSH1 0xF8 DUP5 PUSH1 0x3 SHL AND SHR NOT AND SWAP1 SSTORE DUP8 DUP1 DUP1 PUSH2 0x8BB JUMP JUMPDEST DUP2 DUP2 ADD MLOAD DUP4 SSTORE PUSH1 0x20 SWAP5 DUP6 ADD SWAP5 PUSH1 0x1 SWAP1 SWAP4 ADD SWAP3 SWAP1 SWAP2 ADD SWAP1 PUSH2 0x8A0 JUMP JUMPDEST PUSH2 0x92E SWAP1 PUSH1 0x4 DUP7 ADD PUSH1 0x0 MSTORE PUSH1 0x20 PUSH1 0x0 KECCAK256 PUSH1 0x1F DUP6 ADD PUSH1 0x5 SHR DUP2 ADD SWAP2 PUSH1 0x20 DUP7 LT PUSH2 0x6FE JUMPI PUSH1 0x1F ADD PUSH1 0x5 SHR ADD SWAP1 PUSH2 0x12C9 JUMP JUMPDEST DUP9 PUSH2 0x46A JUMP JUMPDEST ADD MLOAD SWAP1 POP DUP8 DUP1 PUSH2 0x424 JUMP JUMPDEST SWAP3 POP PUSH1 0x3 DUP5 ADD PUSH1 0x0 MSTORE PUSH1 0x20 PUSH1 0x0 KECCAK256 SWAP1 PUSH1 0x0 SWAP4 JUMPDEST PUSH1 0x1F NOT DUP5 AND DUP6 LT PUSH2 0x996 JUMPI PUSH1 0x1 SWAP5 POP DUP4 PUSH1 0x1F NOT DUP2 AND LT PUSH2 0x97D JUMPI JUMPDEST POP POP POP DUP2 SHL ADD PUSH1 0x3 DUP3 ADD SSTORE PUSH2 0x43C JUMP JUMPDEST ADD MLOAD PUSH1 0x0 NOT PUSH1 0xF8 DUP5 PUSH1 0x3 SHL AND SHR NOT AND SWAP1 SSTORE DUP8 DUP1 DUP1 PUSH2 0x96D JUMP JUMPDEST DUP2 DUP2 ADD MLOAD DUP4 SSTORE PUSH1 0x20 SWAP5 DUP6 ADD SWAP5 PUSH1 0x1 SWAP1 SWAP4 ADD SWAP3 SWAP1 SWAP2 ADD SWAP1 PUSH2 0x952 JUMP JUMPDEST PUSH2 0x9E0 SWAP1 PUSH1 0x3 DUP7 ADD PUSH1 0x0 MSTORE PUSH1 0x20 PUSH1 0x0 KECCAK256 PUSH1 0x1F DUP6 ADD PUSH1 0x5 SHR DUP2 ADD SWAP2 PUSH1 0x20 DUP7 LT PUSH2 0x6FE JUMPI PUSH1 0x1F ADD PUSH1 0x5 SHR ADD SWAP1 PUSH2 0x12C9 JUMP JUMPDEST DUP9 PUSH2 0x40D JUMP JUMPDEST ADD MLOAD SWAP1 POP DUP8 DUP1 PUSH2 0x3C7 JUMP JUMPDEST SWAP3 POP PUSH1 0x2 DUP5 ADD PUSH1 0x0 MSTORE PUSH1 0x20 PUSH1 0x0 KECCAK256 SWAP1 PUSH1 0x0 SWAP4 JUMPDEST PUSH1 0x1F NOT DUP5 AND DUP6 LT PUSH2 0xA48 JUMPI PUSH1 0x1 SWAP5 POP DUP4 PUSH1 0x1F NOT DUP2 AND LT PUSH2 0xA2F JUMPI JUMPDEST POP POP POP DUP2 SHL ADD PUSH1 0x2 DUP3 ADD SSTORE PUSH2 0x3DF JUMP JUMPDEST ADD MLOAD PUSH1 0x0 NOT PUSH1 0xF8 DUP5 PUSH1 0x3 SHL AND SHR NOT AND SWAP1 SSTORE DUP8 DUP1 DUP1 PUSH2 0xA1F JUMP JUMPDEST DUP2 DUP2 ADD MLOAD DUP4 SSTORE PUSH1 0x20 SWAP5 DUP6 ADD SWAP5 PUSH1 0x1 SWAP1 SWAP4 ADD SWAP3 SWAP1 SWAP2 ADD SWAP1 PUSH2 0xA04 JUMP JUMPDEST PUSH2 0xA92 SWAP1 PUSH1 0x2 DUP7 ADD PUSH1 0x0 MSTORE PUSH1 0x20 PUSH1 0x0 KECCAK256 PUSH1 0x1F DUP6 ADD PUSH1 0x5 SHR DUP2 ADD SWAP2 PUSH1 0x20 DUP7 LT PUSH2 0x6FE JUMPI PUSH1 0x1F ADD PUSH1 0x5 SHR ADD SWAP1 PUSH2 0x12C9 JUMP JUMPDEST DUP9 PUSH2 0x3B0 JUMP JUMPDEST PUSH4 0x4E487B71 PUSH1 0xE0 SHL PUSH1 0x0 MSTORE PUSH1 0x11 PUSH1 0x4 MSTORE PUSH1 0x24 PUSH1 0x0 REVERT JUMPDEST CALLVALUE PUSH2 0x9E JUMPI PUSH1 0x40 CALLDATASIZE PUSH1 0x3 NOT ADD SLT PUSH2 0x9E JUMPI PUSH1 0x24 CALLDATALOAD DUP1 ISZERO ISZERO DUP2 SUB PUSH2 0x9E JUMPI PUSH1 0x4 CALLDATALOAD PUSH1 0x0 SWAP1 DUP2 MSTORE PUSH1 0x2 PUSH1 0x20 MSTORE PUSH1 0x40 SWAP1 KECCAK256 PUSH1 0x1 ADD DUP1 SLOAD SWAP1 SWAP2 PUSH1 0x1 PUSH1 0x1 PUSH1 0xA0 SHL SUB DUP3 AND CALLER EQ DUP1 ISZERO SWAP2 SWAP1 DUP3 PUSH2 0xD7E JUMPI JUMPDEST ISZERO PUSH2 0xD39 JUMPI ISZERO PUSH2 0xCEC JUMPI POP POP PUSH1 0x4 CALLDATALOAD PUSH1 0x0 MSTORE PUSH1 0x1 PUSH1 0x20 MSTORE CALLER PUSH1 0x1 DUP1 PUSH1 0xA0 SHL SUB PUSH1 0x1 PUSH1 0x40 PUSH1 0x0 KECCAK256 ADD SLOAD AND SUB PUSH2 0xCB6 JUMPI DUP1 SLOAD PUSH1 0xFF PUSH1 0xA0 SHL NOT AND PUSH1 0x1 PUSH1 0xA0 SHL OR DUP2 SSTORE JUMPDEST SLOAD PUSH1 0xFF DUP2 PUSH1 0xA0 SHR AND DUP1 PUSH2 0xCA9 JUMPI JUMPDEST PUSH2 0xB7C JUMPI JUMPDEST PUSH1 0x40 MLOAD CALLER DUP2 MSTORE PUSH32 0x15C2F311C9E0F53B50388279894AEFF029A3457884A6601E924FCA879E12ADCC PUSH1 0x20 PUSH1 0x4 CALLDATALOAD SWAP3 LOG2 STOP JUMPDEST PUSH1 0x3 SLOAD PUSH1 0x40 MLOAD PUSH4 0xA9059CBB PUSH1 0xE0 SHL DUP2 MSTORE PUSH1 0x1 PUSH1 0x1 PUSH1 0xA0 SHL SUB SWAP3 DUP4 AND PUSH1 0x4 DUP3 ADD MSTORE PUSH1 0x5 PUSH1 0x24 DUP3 ADD MSTORE SWAP2 PUSH1 0x20 SWAP2 DUP4 SWAP2 PUSH1 0x44 SWAP2 DUP4 SWAP2 PUSH1 0x0 SWAP2 AND GAS CALL DUP1 ISZERO PUSH2 0xC7E JUMPI PUSH2 0xC8A JUMPI JUMPDEST POP PUSH1 0x3 SLOAD PUSH1 0x4 DUP1 CALLDATALOAD PUSH1 0x0 SWAP1 DUP2 MSTORE PUSH1 0x1 PUSH1 0x20 DUP2 DUP2 MSTORE PUSH1 0x40 DUP1 DUP5 KECCAK256 SWAP1 SWAP3 ADD SLOAD SWAP2 MLOAD PUSH4 0xA9059CBB PUSH1 0xE0 SHL DUP2 MSTORE PUSH1 0x1 PUSH1 0x1 PUSH1 0xA0 SHL SUB SWAP3 DUP4 AND SWAP5 DUP2 ADD SWAP5 SWAP1 SWAP5 MSTORE PUSH1 0x5 PUSH1 0x24 DUP6 ADD MSTORE SWAP3 SWAP4 DUP5 SWAP3 PUSH1 0x44 SWAP3 DUP5 SWAP3 AND GAS CALL DUP1 ISZERO PUSH2 0xC7E JUMPI PUSH2 0xC4F JUMPI JUMPDEST POP PUSH1 0x4 CALLDATALOAD PUSH1 0x0 MSTORE PUSH1 0x1 PUSH1 0x20 MSTORE PUSH2 0xC31 PUSH1 0x40 PUSH1 0x0 KECCAK256 PUSH2 0x1329 JUMP JUMPDEST PUSH1 0x4 CALLDATALOAD PUSH1 0x0 MSTORE PUSH1 0x2 PUSH1 0x20 MSTORE PUSH1 0x0 PUSH1 0x1 PUSH1 0x40 DUP3 KECCAK256 DUP3 DUP2 SSTORE ADD SSTORE DUP1 PUSH2 0xB4C JUMP JUMPDEST PUSH2 0xC70 SWAP1 PUSH1 0x20 RETURNDATASIZE PUSH1 0x20 GT PUSH2 0xC77 JUMPI JUMPDEST PUSH2 0xC68 DUP2 DUP4 PUSH2 0x117C JUMP JUMPDEST DUP2 ADD SWAP1 PUSH2 0x1389 JUMP JUMPDEST POP DUP1 PUSH2 0xC18 JUMP JUMPDEST POP RETURNDATASIZE PUSH2 0xC5E JUMP JUMPDEST PUSH1 0x40 MLOAD RETURNDATASIZE PUSH1 0x0 DUP3 RETURNDATACOPY RETURNDATASIZE SWAP1 REVERT JUMPDEST PUSH2 0xCA2 SWAP1 PUSH1 0x20 RETURNDATASIZE PUSH1 0x20 GT PUSH2 0xC77 JUMPI PUSH2 0xC68 DUP2 DUP4 PUSH2 0x117C JUMP JUMPDEST POP DUP1 PUSH2 0xBBF JUMP JUMPDEST POP PUSH1 0xFF DUP2 PUSH1 0xA8 SHR AND PUSH2 0xB47 JUMP JUMPDEST PUSH1 0x40 MLOAD PUSH3 0x461BCD PUSH1 0xE5 SHL DUP2 MSTORE PUSH1 0x20 PUSH1 0x4 DUP3 ADD MSTORE PUSH1 0xE PUSH1 0x24 DUP3 ADD MSTORE PUSH14 0x2737BA103A34329039B2B63632B9 PUSH1 0x91 SHL PUSH1 0x44 DUP3 ADD MSTORE PUSH1 0x64 SWAP1 REVERT JUMPDEST PUSH2 0xD04 JUMPI PUSH1 0xFF PUSH1 0xA8 SHL NOT AND PUSH1 0x1 PUSH1 0xA8 SHL OR DUP2 SSTORE PUSH2 0xB39 JUMP JUMPDEST PUSH1 0x40 MLOAD PUSH3 0x461BCD PUSH1 0xE5 SHL DUP2 MSTORE PUSH1 0x20 PUSH1 0x4 DUP3 ADD MSTORE PUSH1 0xD PUSH1 0x24 DUP3 ADD MSTORE PUSH13 0x2737BA103A343290313ABCB2B9 PUSH1 0x99 SHL PUSH1 0x44 DUP3 ADD MSTORE PUSH1 0x64 SWAP1 REVERT JUMPDEST PUSH1 0x40 MLOAD PUSH3 0x461BCD PUSH1 0xE5 SHL DUP2 MSTORE PUSH1 0x20 PUSH1 0x4 DUP3 ADD MSTORE PUSH1 0x1C PUSH1 0x24 DUP3 ADD MSTORE PUSH32 0x4E6F742070617274206F662074686973207472616E73616374696F6E00000000 PUSH1 0x44 DUP3 ADD MSTORE PUSH1 0x64 SWAP1 REVERT JUMPDEST POP PUSH1 0x1 PUSH1 0x20 DUP2 SWAP1 MSTORE PUSH1 0x40 PUSH1 0x0 KECCAK256 ADD SLOAD PUSH1 0x1 PUSH1 0x1 PUSH1 0xA0 SHL SUB AND CALLER EQ PUSH2 0xAF9 JUMP JUMPDEST CALLVALUE PUSH2 0x9E JUMPI PUSH1 0x0 CALLDATASIZE PUSH1 0x3 NOT ADD SLT PUSH2 0x9E JUMPI PUSH1 0x20 PUSH1 0x0 SLOAD PUSH1 0x40 MLOAD SWAP1 DUP2 MSTORE RETURN JUMPDEST CALLVALUE PUSH2 0x9E JUMPI PUSH1 0x0 CALLDATASIZE PUSH1 0x3 NOT ADD SLT PUSH2 0x9E JUMPI PUSH1 0x3 SLOAD PUSH1 0x40 MLOAD PUSH1 0x1 PUSH1 0x1 PUSH1 0xA0 SHL SUB SWAP1 SWAP2 AND DUP2 MSTORE PUSH1 0x20 SWAP1 RETURN JUMPDEST CALLVALUE PUSH2 0x9E JUMPI PUSH1 0x20 DUP1 PUSH1 0x3 NOT CALLDATASIZE ADD SLT PUSH2 0x9E JUMPI PUSH1 0x4 CALLDATALOAD SWAP1 DUP2 PUSH1 0x0 MSTORE PUSH1 0x1 DUP2 MSTORE PUSH1 0xFF PUSH1 0x7 PUSH1 0x40 PUSH1 0x0 KECCAK256 ADD SLOAD AND PUSH2 0xF8F JUMPI DUP2 PUSH1 0x0 MSTORE PUSH1 0x1 DUP2 MSTORE PUSH1 0x7 PUSH1 0x40 PUSH1 0x0 KECCAK256 ADD PUSH1 0x1 PUSH1 0xFF NOT DUP3 SLOAD AND OR SWAP1 SSTORE PUSH1 0x1 DUP1 PUSH1 0xA0 SHL SUB SWAP1 PUSH1 0x0 DUP2 DUP4 PUSH1 0x3 SLOAD AND PUSH1 0x44 PUSH1 0x40 MLOAD DUP1 SWAP5 DUP2 SWAP4 PUSH4 0x95EA7B3 PUSH1 0xE0 SHL DUP4 MSTORE ADDRESS PUSH1 0x4 DUP5 ADD MSTORE PUSH1 0xA PUSH1 0x24 DUP5 ADD MSTORE GAS CALL DUP1 ISZERO PUSH2 0xC7E JUMPI PUSH2 0xF72 JUMPI JUMPDEST POP PUSH1 0x0 DUP2 DUP4 PUSH1 0x3 SLOAD AND PUSH1 0x64 PUSH1 0x40 MLOAD DUP1 SWAP5 DUP2 SWAP4 PUSH4 0x23B872DD PUSH1 0xE0 SHL DUP4 MSTORE CALLER PUSH1 0x4 DUP5 ADD MSTORE ADDRESS PUSH1 0x24 DUP5 ADD MSTORE PUSH1 0xA PUSH1 0x44 DUP5 ADD MSTORE GAS CALL DUP1 ISZERO PUSH2 0xC7E JUMPI PUSH2 0xF55 JUMPI JUMPDEST POP PUSH1 0x40 MLOAD PUSH1 0x80 DUP2 ADD SWAP3 DUP2 DUP5 LT PUSH1 0x1 PUSH1 0x1 PUSH1 0x40 SHL SUB DUP6 GT OR PUSH2 0x708 JUMPI PUSH32 0xF3D6548800D5DDCDCFF15736F84FFA1AE7A7E088A140B1C8FEACB44904765C87 SWAP4 PUSH1 0x40 MSTORE DUP5 DUP3 MSTORE DUP3 DUP3 ADD SWAP2 CALLER DUP4 MSTORE PUSH1 0x40 DUP2 ADD SWAP2 PUSH1 0x0 DUP4 MSTORE PUSH1 0x1 PUSH1 0x60 DUP4 ADD SWAP3 PUSH1 0x0 DUP5 MSTORE DUP9 PUSH1 0x0 MSTORE PUSH1 0x2 DUP8 MSTORE PUSH1 0x40 PUSH1 0x0 KECCAK256 SWAP1 MLOAD DUP2 SSTORE ADD SWAP4 MLOAD AND DUP4 SLOAD SWAP3 PUSH1 0xFF PUSH1 0xA0 SHL SWAP1 MLOAD ISZERO ISZERO PUSH1 0xA0 SHL AND SWAP2 PUSH1 0xFF PUSH1 0xA8 SHL SWAP1 MLOAD ISZERO ISZERO PUSH1 0xA8 SHL AND SWAP3 PUSH10 0xFFFFFFFFFFFFFFFFFFFF PUSH1 0xB0 SHL AND OR OR OR SWAP1 SSTORE PUSH1 0x40 MLOAD CALLER DUP2 MSTORE LOG2 STOP JUMPDEST PUSH2 0xF6B SWAP1 DUP3 RETURNDATASIZE DUP5 GT PUSH2 0xC77 JUMPI PUSH2 0xC68 DUP2 DUP4 PUSH2 0x117C JUMP JUMPDEST POP DUP4 PUSH2 0xEA6 JUMP JUMPDEST PUSH2 0xF88 SWAP1 DUP3 RETURNDATASIZE DUP5 GT PUSH2 0xC77 JUMPI PUSH2 0xC68 DUP2 DUP4 PUSH2 0x117C JUMP JUMPDEST POP DUP4 PUSH2 0xE6A JUMP JUMPDEST PUSH1 0x64 SWAP1 PUSH1 0x40 MLOAD SWAP1 PUSH3 0x461BCD PUSH1 0xE5 SHL DUP3 MSTORE PUSH1 0x4 DUP3 ADD MSTORE PUSH1 0x10 PUSH1 0x24 DUP3 ADD MSTORE PUSH16 0x105B1C9958591E481C995CD95C9D9959 PUSH1 0x82 SHL PUSH1 0x44 DUP3 ADD MSTORE REVERT JUMPDEST CALLVALUE PUSH2 0x9E JUMPI PUSH1 0x20 DUP1 PUSH1 0x3 NOT CALLDATASIZE ADD SLT PUSH2 0x9E JUMPI PUSH1 0x4 CALLDATALOAD SWAP1 DUP2 PUSH1 0x0 MSTORE PUSH1 0x1 DUP2 MSTORE PUSH1 0x1 DUP1 PUSH1 0xA0 SHL SUB PUSH1 0x1 PUSH1 0x40 PUSH1 0x0 KECCAK256 ADD SLOAD AND CALLER SUB PUSH2 0x1089 JUMPI DUP2 PUSH1 0x0 MSTORE PUSH1 0x1 DUP2 MSTORE PUSH1 0xFF PUSH1 0x7 PUSH1 0x40 PUSH1 0x0 KECCAK256 ADD SLOAD AND PUSH2 0x104F JUMPI PUSH1 0x1 SWAP1 DUP3 PUSH1 0x0 MSTORE MSTORE PUSH2 0x1028 PUSH1 0x40 PUSH1 0x0 KECCAK256 PUSH2 0x1329 JUMP JUMPDEST PUSH32 0x53AAE3F23C7401F48FA78A04049387BBED1058D9508C4E94FE9A5A64FF46D097 PUSH1 0x0 DUP1 LOG2 STOP JUMPDEST PUSH1 0x64 SWAP1 PUSH1 0x40 MLOAD SWAP1 PUSH3 0x461BCD PUSH1 0xE5 SHL DUP3 MSTORE PUSH1 0x4 DUP3 ADD MSTORE PUSH1 0x13 PUSH1 0x24 DUP3 ADD MSTORE PUSH19 0x131A5CDD1A5B99C81A5CC81C995CD95C9D9959 PUSH1 0x6A SHL PUSH1 0x44 DUP3 ADD MSTORE REVERT JUMPDEST PUSH1 0x64 SWAP1 PUSH1 0x40 MLOAD SWAP1 PUSH3 0x461BCD PUSH1 0xE5 SHL DUP3 MSTORE PUSH1 0x4 DUP3 ADD MSTORE PUSH1 0xD PUSH1 0x24 DUP3 ADD MSTORE PUSH13 0x2737BA103A34329037BBB732B9 PUSH1 0x99 SHL PUSH1 0x44 DUP3 ADD MSTORE REVERT JUMPDEST CALLVALUE PUSH2 0x9E JUMPI PUSH1 0x20 CALLDATASIZE PUSH1 0x3 NOT ADD SLT PUSH2 0x9E JUMPI PUSH1 0x80 SWAP1 PUSH1 0x4 CALLDATALOAD PUSH1 0x0 MSTORE PUSH1 0x2 PUSH1 0x20 MSTORE PUSH1 0xFF PUSH1 0x40 PUSH1 0x0 KECCAK256 PUSH1 0x1 DUP2 SLOAD SWAP2 ADD SLOAD SWAP1 DUP4 MSTORE PUSH1 0x1 DUP1 PUSH1 0xA0 SHL SUB DUP2 AND PUSH1 0x20 DUP5 ADD MSTORE DUP2 DUP2 PUSH1 0xA0 SHR AND ISZERO ISZERO PUSH1 0x40 DUP5 ADD MSTORE PUSH1 0xA8 SHR AND ISZERO ISZERO PUSH1 0x60 DUP3 ADD MSTORE RETURN JUMPDEST SWAP2 DUP2 PUSH1 0x1F DUP5 ADD SLT ISZERO PUSH2 0x9E JUMPI DUP3 CALLDATALOAD SWAP2 PUSH1 0x1 PUSH1 0x1 PUSH1 0x40 SHL SUB DUP4 GT PUSH2 0x9E JUMPI PUSH1 0x20 DUP4 DUP2 DUP7 ADD SWAP6 ADD ADD GT PUSH2 0x9E JUMPI JUMP JUMPDEST SWAP1 PUSH1 0x1 DUP3 DUP2 SHR SWAP3 AND DUP1 ISZERO PUSH2 0x1172 JUMPI JUMPDEST PUSH1 0x20 DUP4 LT EQ PUSH2 0x115C JUMPI JUMP JUMPDEST PUSH4 0x4E487B71 PUSH1 0xE0 SHL PUSH1 0x0 MSTORE PUSH1 0x22 PUSH1 0x4 MSTORE PUSH1 0x24 PUSH1 0x0 REVERT JUMPDEST SWAP2 PUSH1 0x7F AND SWAP2 PUSH2 0x1151 JUMP JUMPDEST SWAP1 PUSH1 0x1F DUP1 NOT SWAP2 ADD AND DUP2 ADD SWAP1 DUP2 LT PUSH1 0x1 PUSH1 0x1 PUSH1 0x40 SHL SUB DUP3 GT OR PUSH2 0x708 JUMPI PUSH1 0x40 MSTORE JUMP JUMPDEST SWAP1 PUSH1 0x40 MLOAD SWAP2 DUP3 PUSH1 0x0 DUP3 SLOAD SWAP3 PUSH2 0x11B1 DUP5 PUSH2 0x1142 JUMP JUMPDEST SWAP1 DUP2 DUP5 MSTORE PUSH1 0x1 SWAP5 DUP6 DUP2 AND SWAP1 DUP2 PUSH1 0x0 EQ PUSH2 0x1220 JUMPI POP PUSH1 0x1 EQ PUSH2 0x11DD JUMPI JUMPDEST POP POP PUSH2 0x11DB SWAP3 POP SUB DUP4 PUSH2 0x117C JUMP JUMPDEST JUMP JUMPDEST SWAP1 SWAP4 SWAP2 POP PUSH1 0x0 MSTORE PUSH1 0x20 SWAP1 DUP2 PUSH1 0x0 KECCAK256 SWAP4 PUSH1 0x0 SWAP2 JUMPDEST DUP2 DUP4 LT PUSH2 0x1208 JUMPI POP POP PUSH2 0x11DB SWAP4 POP DUP3 ADD ADD CODESIZE DUP1 PUSH2 0x11CD JUMP JUMPDEST DUP6 SLOAD DUP9 DUP5 ADD DUP6 ADD MSTORE SWAP5 DUP6 ADD SWAP5 DUP8 SWAP5 POP SWAP2 DUP4 ADD SWAP2 PUSH2 0x11F0 JUMP JUMPDEST SWAP2 POP POP PUSH2 0x11DB SWAP5 POP PUSH1 0x20 SWAP3 POP PUSH1 0xFF NOT AND DUP3 DUP5 ADD MSTORE ISZERO ISZERO PUSH1 0x5 SHL DUP3 ADD ADD CODESIZE DUP1 PUSH2 0x11CD JUMP JUMPDEST SWAP2 SWAP1 DUP3 MLOAD SWAP3 DUP4 DUP3 MSTORE PUSH1 0x0 JUMPDEST DUP5 DUP2 LT PUSH2 0x126F JUMPI POP POP DUP3 PUSH1 0x0 PUSH1 0x20 DUP1 SWAP5 SWAP6 DUP5 ADD ADD MSTORE PUSH1 0x1F DUP1 NOT SWAP2 ADD AND ADD ADD SWAP1 JUMP JUMPDEST PUSH1 0x20 DUP2 DUP4 ADD DUP2 ADD MLOAD DUP5 DUP4 ADD DUP3 ADD MSTORE ADD PUSH2 0x124E JUMP JUMPDEST SWAP3 SWAP2 SWAP3 PUSH1 0x1 PUSH1 0x1 PUSH1 0x40 SHL SUB DUP3 GT PUSH2 0x708 JUMPI PUSH1 0x40 MLOAD SWAP2 PUSH2 0x12AC PUSH1 0x1F DUP3 ADD PUSH1 0x1F NOT AND PUSH1 0x20 ADD DUP5 PUSH2 0x117C JUMP JUMPDEST DUP3 SWAP5 DUP2 DUP5 MSTORE DUP2 DUP4 ADD GT PUSH2 0x9E JUMPI DUP3 DUP2 PUSH1 0x20 SWAP4 DUP5 PUSH1 0x0 SWAP7 ADD CALLDATACOPY ADD ADD MSTORE JUMP JUMPDEST DUP2 DUP2 LT PUSH2 0x12D4 JUMPI POP POP JUMP JUMPDEST PUSH1 0x0 DUP2 SSTORE PUSH1 0x1 ADD PUSH2 0x12C9 JUMP JUMPDEST PUSH2 0x12EA DUP2 SLOAD PUSH2 0x1142 JUMP JUMPDEST SWAP1 DUP2 PUSH2 0x12F4 JUMPI POP POP JUMP JUMPDEST DUP2 PUSH1 0x1F PUSH1 0x0 SWAP4 GT PUSH1 0x1 EQ PUSH2 0x1306 JUMPI POP SSTORE JUMP JUMPDEST SWAP1 DUP1 DUP4 SWAP2 DUP3 MSTORE PUSH2 0x1325 PUSH1 0x1F PUSH1 0x20 DUP5 KECCAK256 SWAP5 ADD PUSH1 0x5 SHR DUP5 ADD PUSH1 0x1 DUP6 ADD PUSH2 0x12C9 JUMP JUMPDEST SSTORE SSTORE JUMP JUMPDEST PUSH1 0x9 PUSH1 0x0 SWAP2 DUP3 DUP2 SSTORE DUP3 PUSH1 0x1 DUP3 ADD SSTORE PUSH2 0x1343 PUSH1 0x2 DUP3 ADD PUSH2 0x12E0 JUMP JUMPDEST PUSH2 0x134F PUSH1 0x3 DUP3 ADD PUSH2 0x12E0 JUMP JUMPDEST PUSH2 0x135B PUSH1 0x4 DUP3 ADD PUSH2 0x12E0 JUMP JUMPDEST PUSH2 0x1367 PUSH1 0x5 DUP3 ADD PUSH2 0x12E0 JUMP JUMPDEST PUSH2 0x1373 PUSH1 0x6 DUP3 ADD PUSH2 0x12E0 JUMP JUMPDEST DUP3 PUSH1 0x7 DUP3 ADD SSTORE PUSH2 0x1385 PUSH1 0x8 DUP3 ADD PUSH2 0x12E0 JUMP JUMPDEST ADD SSTORE JUMP JUMPDEST SWAP1 DUP2 PUSH1 0x20 SWAP2 SUB SLT PUSH2 0x9E JUMPI MLOAD DUP1 ISZERO ISZERO DUP2 SUB PUSH2 0x9E JUMPI SWAP1 JUMP INVALID LOG2 PUSH5 0x6970667358 0x22 SLT KECCAK256 DUP1 MOD 0xEE 0xEF SWAP14 BYTE SWAP4 CODECOPY 0xA8 0xE5 CALL SIGNEXTEND 0x1E SWAP3 JUMPDEST 0xF7 0xD7 0x2D PUSH32 0x58AB2D44F39C8766BD84B99DC264736F6C634300081400330000000000000000 "
        },
        "methodIdentifiers": {
          "cancelListing(uint256)": "305a67a8",
          "carbonToken()": "82a71ef2",
          "confirmTransaction(uint256,bool)": "c6a725d8",
          "escrows(uint256)": "012f52ee",
          "listingCount()": "a9b07c26",
          "listings(uint256)": "de74e57b",
          "postListing(string,string,string,string,string,string)": "d73b3130",
          "reserveListing(uint256)": "451d034f",
          "rewardAmount()": "f7b2a7be"
        }
      }
    }
  }
}