{
  "_format": "hh-sol-artifact-1",
  "contractName": "NoRushToTrash",
  "sourceName": "contracts/NoRushToTrash.sol",
  "abi": [
    {
      "inputs": [
        {
          "internalType": "address",
          "name": "_co2TokenAddress",
          "type": "address"
        }
      ],
      "stateMutability": "nonpayable",
      "type": "constructor"
    },
    {
      "anonymous": false,
      "inputs": [
        {
          "indexed": true,
          "internalType": "uint256",
          "name": "listingId",
          "type": "uint256"
        },
        {
          "indexed": false,
          "internalType": "address",
          "name": "by",
          "type": "address"
        }
      ],
      "name": "TransactionConfirmed",
      "type": "event"
    },
    {
      "anonymous": false,
      "inputs": [
        {
          "indexed": true,
          "internalType": "uint256",
          "name": "listingId",
          "type": "uint256"
        }
      ],
      "name": "listingCancelled",
      "type": "event"
    },
    {
      "anonymous": false,
      "inputs": [
        {
          "indexed": true,
          "internalType": "uint256",
          "name": "listingId",
          "type": "uint256"
        },
        {
          "indexed": false,
          "internalType": "address",
          "name": "owner",
          "type": "address"
        },
        {
          "indexed": false,
          "internalType": "string",
          "name": "title",
          "type": "string"
        }
      ],
      "name": "listingPosted",
      "type": "event"
    },
    {
      "anonymous": false,
      "inputs": [
        {
          "indexed": true,
          "internalType": "uint256",
          "name": "listingId",
          "type": "uint256"
        },
        {
          "indexed": false,
          "internalType": "address",
          "name": "buyer",
          "type": "address"
        }
      ],
      "name": "listingReserved",
      "type": "event"
    },
    {
      "inputs": [
        {
          "internalType": "uint256",
          "name": "_listingId",
          "type": "uint256"
        }
      ],
      "name": "cancelListing",
      "outputs": [],
      "stateMutability": "nonpayable",
      "type": "function"
    },
    {
      "inputs": [],
      "name": "carbonToken",
      "outputs": [
        {
          "internalType": "contract IERC20",
          "name": "",
          "type": "address"
        }
      ],
      "stateMutability": "view",
      "type": "function"
    },
    {
      "inputs": [
        {
          "internalType": "uint256",
          "name": "_listingId",
          "type": "uint256"
        },
        {
          "internalType": "bool",
          "name": "_isSeller",
          "type": "bool"
        }
      ],
      "name": "confirmTransaction",
      "outputs": [],
      "stateMutability": "nonpayable",
      "type": "function"
    },
    {
      "inputs": [
        {
          "internalType": "uint256",
          "name": "",
          "type": "uint256"
        }
      ],
      "name": "escrows",
      "outputs": [
        {
          "internalType": "uint256",
          "name": "listingId",
          "type": "uint256"
        },
        {
          "internalType": "address",
          "name": "buyer",
          "type": "address"
        },
        {
          "internalType": "bool",
          "name": "sellerConfirmed",
          "type": "bool"
        },
        {
          "internalType": "bool",
          "name": "buyerConfirmed",
          "type": "bool"
        }
      ],
      "stateMutability": "view",
      "type": "function"
    },
    {
      "inputs": [],
      "name": "listingCount",
      "outputs": [
        {
          "internalType": "uint256",
          "name": "",
          "type": "uint256"
        }
      ],
      "stateMutability": "view",
      "type": "function"
    },
    {
      "inputs": [
        {
          "internalType": "uint256",
          "name": "",
          "type": "uint256"
        }
      ],
      "name": "listings",
      "outputs": [
        {
          "internalType": "uint256",
          "name": "id",
          "type": "uint256"
        },
        {
          "internalType": "address",
          "name": "owner",
          "type": "address"
        },
        {
          "internalType": "string",
          "name": "title",
          "type": "string"
        },
        {
          "internalType": "string",
          "name": "category",
          "type": "string"
        },
        {
          "internalType": "string",
          "name": "description",
          "type": "string"
        },
        {
          "internalType": "string",
          "name": "condition",
          "type": "string"
        },
        {
          "internalType": "string",
          "name": "location",
          "type": "string"
        },
        {
          "internalType": "bool",
          "name": "isReserved",
          "type": "bool"
        }
      ],
      "stateMutability": "view",
      "type": "function"
    },
    {
      "inputs": [
        {
          "internalType": "string",
          "name": "_title",
          "type": "string"
        },
        {
          "internalType": "string",
          "name": "_category",
          "type": "string"
        },
        {
          "internalType": "string",
          "name": "_description",
          "type": "string"
        },
        {
          "internalType": "string",
          "name": "_condition",
          "type": "string"
        },
        {
          "internalType": "string",
          "name": "_location",
          "type": "string"
        }
      ],
      "name": "postListing",
      "outputs": [],
      "stateMutability": "nonpayable",
      "type": "function"
    },
    {
      "inputs": [
        {
          "internalType": "uint256",
          "name": "_listingId",
          "type": "uint256"
        }
      ],
      "name": "reserveListing",
      "outputs": [],
      "stateMutability": "nonpayable",
      "type": "function"
    },
    {
      "inputs": [],
      "name": "rewardAmount",
      "outputs": [
        {
          "internalType": "uint256",
          "name": "",
          "type": "uint256"
        }
      ],
      "stateMutability": "view",
      "type": "function"
    }
  ],
  "bytecode": "0x6080604052600080553480156200001557600080fd5b50604051620020c1380380620020c183398181016040528101906200003b9190620000ed565b80600360006101000a81548173ffffffffffffffffffffffffffffffffffffffff021916908373ffffffffffffffffffffffffffffffffffffffff160217905550506200011f565b600080fd5b600073ffffffffffffffffffffffffffffffffffffffff82169050919050565b6000620000b58262000088565b9050919050565b620000c781620000a8565b8114620000d357600080fd5b50565b600081519050620000e781620000bc565b92915050565b60006020828403121562000106576200010562000083565b5b60006200011684828501620000d6565b91505092915050565b611f92806200012f6000396000f3fe608060405234801561001057600080fd5b50600436106100935760003560e01c8063a9b07c2611610066578063a9b07c2614610121578063c15fc1481461013f578063c6a725d81461015b578063de74e57b14610177578063f7b2a7be146101ae57610093565b8063012f52ee14610098578063305a67a8146100cb578063451d034f146100e757806382a71ef214610103575b600080fd5b6100b260048036038101906100ad919061133e565b6101cc565b6040516100c294939291906113d6565b60405180910390f35b6100e560048036038101906100e0919061133e565b610236565b005b61010160048036038101906100fc919061133e565b610417565b005b61010b610673565b604051610118919061147a565b60405180910390f35b610129610699565b6040516101369190611495565b60405180910390f35b61015960048036038101906101549190611515565b61069f565b005b6101756004803603810190610170919061165e565b61099e565b005b610191600480360381019061018c919061133e565b610f78565b6040516101a598979695949392919061172e565b60405180910390f35b6101b6611295565b6040516101c39190611495565b60405180910390f35b60026020528060005260406000206000915090508060000154908060010160009054906101000a900473ffffffffffffffffffffffffffffffffffffffff16908060010160149054906101000a900460ff16908060010160159054906101000a900460ff16905084565b3373ffffffffffffffffffffffffffffffffffffffff166001600083815260200190815260200160002060010160009054906101000a900473ffffffffffffffffffffffffffffffffffffffff1673ffffffffffffffffffffffffffffffffffffffff16146102da576040517f08c379a00000000000000000000000000000000000000000000000000000000081526004016102d19061181b565b60405180910390fd5b6001600082815260200190815260200160002060070160009054906101000a900460ff161561033e576040517f08c379a000000000000000000000000000000000000000000000000000000000815260040161033590611887565b60405180910390fd5b600160008281526020019081526020016000206000808201600090556001820160006101000a81549073ffffffffffffffffffffffffffffffffffffffff021916905560028201600061039191906112a1565b6003820160006103a191906112a1565b6004820160006103b191906112a1565b6005820160006103c191906112a1565b6006820160006103d191906112a1565b6007820160006101000a81549060ff02191690555050807f53aae3f23c7401f48fa78a04049387bbed1058d9508c4e94fe9a5a64ff46d09760405160405180910390a250565b6001600082815260200190815260200160002060070160009054906101000a900460ff161561047b576040517f08c379a0000000000000000000000000000000000000000000000000000000008152600401610472906118f3565b60405180910390fd5b600180600083815260200190815260200160002060070160006101000a81548160ff021916908315150217905550600360009054906101000a900473ffffffffffffffffffffffffffffffffffffffff1673ffffffffffffffffffffffffffffffffffffffff166323b872dd3330678ac7230489e800006040518463ffffffff1660e01b815260040161051093929190611913565b6020604051808303816000875af115801561052f573d6000803e3d6000fd5b505050506040513d601f19601f82011682018060405250810190610553919061195f565b5060405180608001604052808281526020013373ffffffffffffffffffffffffffffffffffffffff16815260200160001515815260200160001515815250600260008381526020019081526020016000206000820151816000015560208201518160010160006101000a81548173ffffffffffffffffffffffffffffffffffffffff021916908373ffffffffffffffffffffffffffffffffffffffff16021790555060408201518160010160146101000a81548160ff02191690831515021790555060608201518160010160156101000a81548160ff021916908315150217905550905050807ff3d6548800d5ddcdcff15736f84ffa1ae7a7e088a140b1c8feacb44904765c8733604051610668919061198c565b60405180910390a250565b600360009054906101000a900473ffffffffffffffffffffffffffffffffffffffff1681565b60005481565b60008060008154809291906106b3906119d6565b9190505590506040518061010001604052808281526020013373ffffffffffffffffffffffffffffffffffffffff1681526020018c8c8080601f016020809104026020016040519081016040528093929190818152602001838380828437600081840152601f19601f8201169050808301925050505050505081526020018a8a8080601f016020809104026020016040519081016040528093929190818152602001838380828437600081840152601f19601f82011690508083019250505050505050815260200188888080601f016020809104026020016040519081016040528093929190818152602001838380828437600081840152601f19601f82011690508083019250505050505050815260200186868080601f016020809104026020016040519081016040528093929190818152602001838380828437600081840152601f19601f82011690508083019250505050505050815260200184848080601f016020809104026020016040519081016040528093929190818152602001838380828437600081840152601f19601f82011690508083019250505050505050815260200160001515815250600160008381526020019081526020016000206000820151816000015560208201518160010160006101000a81548173ffffffffffffffffffffffffffffffffffffffff021916908373ffffffffffffffffffffffffffffffffffffffff16021790555060408201518160020190816108d99190611c4f565b5060608201518160030190816108ef9190611c4f565b5060808201518160040190816109059190611c4f565b5060a082015181600501908161091b9190611c4f565b5060c08201518160060190816109319190611c4f565b5060e08201518160070160006101000a81548160ff021916908315150217905550905050807f9687b779e981aa6968b26fe96d9fbeb5abe0fab6b2b4ec65d5177ab6bb4667dc338d8d60405161098993929190611d5d565b60405180910390a25050505050505050505050565b60006002600084815260200190815260200160002090503373ffffffffffffffffffffffffffffffffffffffff168160010160009054906101000a900473ffffffffffffffffffffffffffffffffffffffff1673ffffffffffffffffffffffffffffffffffffffff161480610a7457503373ffffffffffffffffffffffffffffffffffffffff166001600085815260200190815260200160002060010160009054906101000a900473ffffffffffffffffffffffffffffffffffffffff1673ffffffffffffffffffffffffffffffffffffffff16145b610ab3576040517f08c379a0000000000000000000000000000000000000000000000000000000008152600401610aaa90611ddb565b60405180910390fd5b8115610b7f573373ffffffffffffffffffffffffffffffffffffffff166001600085815260200190815260200160002060010160009054906101000a900473ffffffffffffffffffffffffffffffffffffffff1673ffffffffffffffffffffffffffffffffffffffff1614610b5d576040517f08c379a0000000000000000000000000000000000000000000000000000000008152600401610b5490611e47565b60405180910390fd5b60018160010160146101000a81548160ff021916908315150217905550610c2f565b3373ffffffffffffffffffffffffffffffffffffffff168160010160009054906101000a900473ffffffffffffffffffffffffffffffffffffffff1673ffffffffffffffffffffffffffffffffffffffff1614610c11576040517f08c379a0000000000000000000000000000000000000000000000000000000008152600401610c0890611eb3565b60405180910390fd5b60018160010160156101000a81548160ff0219169083151502179055505b8060010160149054906101000a900460ff168015610c5b57508060010160159054906101000a900460ff165b15610f3b57600360009054906101000a900473ffffffffffffffffffffffffffffffffffffffff1673ffffffffffffffffffffffffffffffffffffffff1663a9059cbb8260010160009054906101000a900473ffffffffffffffffffffffffffffffffffffffff166002678ac7230489e80000610cd89190611f02565b6040518363ffffffff1660e01b8152600401610cf5929190611f33565b6020604051808303816000875af1158015610d14573d6000803e3d6000fd5b505050506040513d601f19601f82011682018060405250810190610d38919061195f565b50600360009054906101000a900473ffffffffffffffffffffffffffffffffffffffff1673ffffffffffffffffffffffffffffffffffffffff1663a9059cbb6001600086815260200190815260200160002060010160009054906101000a900473ffffffffffffffffffffffffffffffffffffffff166002678ac7230489e80000610dc39190611f02565b6040518363ffffffff1660e01b8152600401610de0929190611f33565b6020604051808303816000875af1158015610dff573d6000803e3d6000fd5b505050506040513d601f19601f82011682018060405250810190610e23919061195f565b50600160008481526020019081526020016000206000808201600090556001820160006101000a81549073ffffffffffffffffffffffffffffffffffffffff0219169055600282016000610e7791906112a1565b600382016000610e8791906112a1565b600482016000610e9791906112a1565b600582016000610ea791906112a1565b600682016000610eb791906112a1565b6007820160006101000a81549060ff02191690555050600260008481526020019081526020016000206000808201600090556001820160006101000a81549073ffffffffffffffffffffffffffffffffffffffff02191690556001820160146101000a81549060ff02191690556001820160156101000a81549060ff021916905550505b827f15c2f311c9e0f53b50388279894aeff029a3457884a6601e924fca879e12adcc33604051610f6b919061198c565b60405180910390a2505050565b60016020528060005260406000206000915090508060000154908060010160009054906101000a900473ffffffffffffffffffffffffffffffffffffffff1690806002018054610fc790611a7c565b80601f0160208091040260200160405190810160405280929190818152602001828054610ff390611a7c565b80156110405780601f1061101557610100808354040283529160200191611040565b820191906000526020600020905b81548152906001019060200180831161102357829003601f168201915b50505050509080600301805461105590611a7c565b80601f016020809104026020016040519081016040528092919081815260200182805461108190611a7c565b80156110ce5780601f106110a3576101008083540402835291602001916110ce565b820191906000526020600020905b8154815290600101906020018083116110b157829003601f168201915b5050505050908060040180546110e390611a7c565b80601f016020809104026020016040519081016040528092919081815260200182805461110f90611a7c565b801561115c5780601f106111315761010080835404028352916020019161115c565b820191906000526020600020905b81548152906001019060200180831161113f57829003601f168201915b50505050509080600501805461117190611a7c565b80601f016020809104026020016040519081016040528092919081815260200182805461119d90611a7c565b80156111ea5780601f106111bf576101008083540402835291602001916111ea565b820191906000526020600020905b8154815290600101906020018083116111cd57829003601f168201915b5050505050908060060180546111ff90611a7c565b80601f016020809104026020016040519081016040528092919081815260200182805461122b90611a7c565b80156112785780601f1061124d57610100808354040283529160200191611278565b820191906000526020600020905b81548152906001019060200180831161125b57829003601f168201915b5050505050908060070160009054906101000a900460ff16905088565b678ac7230489e8000081565b5080546112ad90611a7c565b6000825580601f106112bf57506112de565b601f0160209004906000526020600020908101906112dd91906112e1565b5b50565b5b808211156112fa5760008160009055506001016112e2565b5090565b600080fd5b600080fd5b6000819050919050565b61131b81611308565b811461132657600080fd5b50565b60008135905061133881611312565b92915050565b600060208284031215611354576113536112fe565b5b600061136284828501611329565b91505092915050565b61137481611308565b82525050565b600073ffffffffffffffffffffffffffffffffffffffff82169050919050565b60006113a58261137a565b9050919050565b6113b58161139a565b82525050565b60008115159050919050565b6113d0816113bb565b82525050565b60006080820190506113eb600083018761136b565b6113f860208301866113ac565b61140560408301856113c7565b61141260608301846113c7565b95945050505050565b6000819050919050565b600061144061143b6114368461137a565b61141b565b61137a565b9050919050565b600061145282611425565b9050919050565b600061146482611447565b9050919050565b61147481611459565b82525050565b600060208201905061148f600083018461146b565b92915050565b60006020820190506114aa600083018461136b565b92915050565b600080fd5b600080fd5b600080fd5b60008083601f8401126114d5576114d46114b0565b5b8235905067ffffffffffffffff8111156114f2576114f16114b5565b5b60208301915083600182028301111561150e5761150d6114ba565b5b9250929050565b60008060008060008060008060008060a08b8d031215611538576115376112fe565b5b60008b013567ffffffffffffffff81111561155657611555611303565b5b6115628d828e016114bf565b9a509a505060208b013567ffffffffffffffff81111561158557611584611303565b5b6115918d828e016114bf565b985098505060408b013567ffffffffffffffff8111156115b4576115b3611303565b5b6115c08d828e016114bf565b965096505060608b013567ffffffffffffffff8111156115e3576115e2611303565b5b6115ef8d828e016114bf565b945094505060808b013567ffffffffffffffff81111561161257611611611303565b5b61161e8d828e016114bf565b92509250509295989b9194979a5092959850565b61163b816113bb565b811461164657600080fd5b50565b60008135905061165881611632565b92915050565b60008060408385031215611675576116746112fe565b5b600061168385828601611329565b925050602061169485828601611649565b9150509250929050565b600081519050919050565b600082825260208201905092915050565b60005b838110156116d85780820151818401526020810190506116bd565b60008484015250505050565b6000601f19601f8301169050919050565b60006117008261169e565b61170a81856116a9565b935061171a8185602086016116ba565b611723816116e4565b840191505092915050565b600061010082019050611744600083018b61136b565b611751602083018a6113ac565b818103604083015261176381896116f5565b9050818103606083015261177781886116f5565b9050818103608083015261178b81876116f5565b905081810360a083015261179f81866116f5565b905081810360c08301526117b381856116f5565b90506117c260e08301846113c7565b9998505050505050505050565b7f4e6f7420746865206f776e657200000000000000000000000000000000000000600082015250565b6000611805600d836116a9565b9150611810826117cf565b602082019050919050565b60006020820190508181036000830152611834816117f8565b9050919050565b7f6c697374696e6720697320726573657276656400000000000000000000000000600082015250565b60006118716013836116a9565b915061187c8261183b565b602082019050919050565b600060208201905081810360008301526118a081611864565b9050919050565b7f416c726561647920726573657276656400000000000000000000000000000000600082015250565b60006118dd6010836116a9565b91506118e8826118a7565b602082019050919050565b6000602082019050818103600083015261190c816118d0565b9050919050565b600060608201905061192860008301866113ac565b61193560208301856113ac565b611942604083018461136b565b949350505050565b60008151905061195981611632565b92915050565b600060208284031215611975576119746112fe565b5b60006119838482850161194a565b91505092915050565b60006020820190506119a160008301846113ac565b92915050565b7f4e487b7100000000000000000000000000000000000000000000000000000000600052601160045260246000fd5b60006119e182611308565b91507fffffffffffffffffffffffffffffffffffffffffffffffffffffffffffffffff8203611a1357611a126119a7565b5b600182019050919050565b7f4e487b7100000000000000000000000000000000000000000000000000000000600052604160045260246000fd5b7f4e487b7100000000000000000000000000000000000000000000000000000000600052602260045260246000fd5b60006002820490506001821680611a9457607f821691505b602082108103611aa757611aa6611a4d565b5b50919050565b60008190508160005260206000209050919050565b60006020601f8301049050919050565b600082821b905092915050565b600060088302611b0f7fffffffffffffffffffffffffffffffffffffffffffffffffffffffffffffffff82611ad2565b611b198683611ad2565b95508019841693508086168417925050509392505050565b6000611b4c611b47611b4284611308565b61141b565b611308565b9050919050565b6000819050919050565b611b6683611b31565b611b7a611b7282611b53565b848454611adf565b825550505050565b600090565b611b8f611b82565b611b9a818484611b5d565b505050565b5b81811015611bbe57611bb3600082611b87565b600181019050611ba0565b5050565b601f821115611c0357611bd481611aad565b611bdd84611ac2565b81016020851015611bec578190505b611c00611bf885611ac2565b830182611b9f565b50505b505050565b600082821c905092915050565b6000611c2660001984600802611c08565b1980831691505092915050565b6000611c3f8383611c15565b9150826002028217905092915050565b611c588261169e565b67ffffffffffffffff811115611c7157611c70611a1e565b5b611c7b8254611a7c565b611c86828285611bc2565b600060209050601f831160018114611cb95760008415611ca7578287015190505b611cb18582611c33565b865550611d19565b601f198416611cc786611aad565b60005b82811015611cef57848901518255600182019150602085019450602081019050611cca565b86831015611d0c5784890151611d08601f891682611c15565b8355505b6001600288020188555050505b505050505050565b82818337600083830152505050565b6000611d3c83856116a9565b9350611d49838584611d21565b611d52836116e4565b840190509392505050565b6000604082019050611d7260008301866113ac565b8181036020830152611d85818486611d30565b9050949350505050565b7f4e6f742070617274206f662074686973207472616e73616374696f6e00000000600082015250565b6000611dc5601c836116a9565b9150611dd082611d8f565b602082019050919050565b60006020820190508181036000830152611df481611db8565b9050919050565b7f4e6f74207468652073656c6c6572000000000000000000000000000000000000600082015250565b6000611e31600e836116a9565b9150611e3c82611dfb565b602082019050919050565b60006020820190508181036000830152611e6081611e24565b9050919050565b7f4e6f742074686520627579657200000000000000000000000000000000000000600082015250565b6000611e9d600d836116a9565b9150611ea882611e67565b602082019050919050565b60006020820190508181036000830152611ecc81611e90565b9050919050565b7f4e487b7100000000000000000000000000000000000000000000000000000000600052601260045260246000fd5b6000611f0d82611308565b9150611f1883611308565b925082611f2857611f27611ed3565b5b828204905092915050565b6000604082019050611f4860008301856113ac565b611f55602083018461136b565b939250505056fea26469706673582212203cc2b54c28f2fa0c5c6473bc4f3074d0dd2ace8ee5d3570106d11d45d057515b64736f6c63430008140033",
  "linkReferences": {},
  "deployedLinkReferences": {}
}