{
  "_format": "hh-sol-artifact-1",
  "contractName": "NoRushToTrash",
  "sourceName": "contracts/NoRushToTrash.sol",
  "abi": [
    {
      "inputs": [
        {
          "internalType": "address",
          "name": "_co2TokenAddress",
          "type": "address"
        }
      ],
      "stateMutability": "nonpayable",
      "type": "constructor"
    },
    {
      "anonymous": false,
      "inputs": [
        {
          "indexed": true,
          "internalType": "uint256",
          "name": "listingId",
          "type": "uint256"
        },
        {
          "indexed": false,
          "internalType": "address",
          "name": "by",
          "type": "address"
        }
      ],
      "name": "TransactionConfirmed",
      "type": "event"
    },
    {
      "anonymous": false,
      "inputs": [
        {
          "indexed": true,
          "internalType": "uint256",
          "name": "listingId",
          "type": "uint256"
        }
      ],
      "name": "listingCancelled",
      "type": "event"
    },
    {
      "anonymous": false,
      "inputs": [
        {
          "indexed": true,
          "internalType": "uint256",
          "name": "listingId",
          "type": "uint256"
        },
        {
          "indexed": false,
          "internalType": "address",
          "name": "owner",
          "type": "address"
        },
        {
          "indexed": false,
          "internalType": "string",
          "name": "title",
          "type": "string"
        }
      ],
      "name": "listingPosted",
      "type": "event"
    },
    {
      "anonymous": false,
      "inputs": [
        {
          "indexed": true,
          "internalType": "uint256",
          "name": "listingId",
          "type": "uint256"
        },
        {
          "indexed": false,
          "internalType": "address",
          "name": "buyer",
          "type": "address"
        }
      ],
      "name": "listingReserved",
      "type": "event"
    },
    {
      "inputs": [
        {
          "internalType": "uint256",
          "name": "_listingId",
          "type": "uint256"
        }
      ],
      "name": "cancelListing",
      "outputs": [],
      "stateMutability": "nonpayable",
      "type": "function"
    },
    {
      "inputs": [],
      "name": "carbonToken",
      "outputs": [
        {
          "internalType": "contract IERC20",
          "name": "",
          "type": "address"
        }
      ],
      "stateMutability": "view",
      "type": "function"
    },
    {
      "inputs": [
        {
          "internalType": "uint256",
          "name": "_listingId",
          "type": "uint256"
        },
        {
          "internalType": "bool",
          "name": "_isSeller",
          "type": "bool"
        }
      ],
      "name": "confirmTransaction",
      "outputs": [],
      "stateMutability": "nonpayable",
      "type": "function"
    },
    {
      "inputs": [
        {
          "internalType": "uint256",
          "name": "",
          "type": "uint256"
        }
      ],
      "name": "escrows",
      "outputs": [
        {
          "internalType": "uint256",
          "name": "listingId",
          "type": "uint256"
        },
        {
          "internalType": "address",
          "name": "buyer",
          "type": "address"
        },
        {
          "internalType": "bool",
          "name": "sellerConfirmed",
          "type": "bool"
        },
        {
          "internalType": "bool",
          "name": "buyerConfirmed",
          "type": "bool"
        }
      ],
      "stateMutability": "view",
      "type": "function"
    },
    {
      "inputs": [],
      "name": "listingCount",
      "outputs": [
        {
          "internalType": "uint256",
          "name": "",
          "type": "uint256"
        }
      ],
      "stateMutability": "view",
      "type": "function"
    },
    {
      "inputs": [
        {
          "internalType": "uint256",
          "name": "",
          "type": "uint256"
        }
      ],
      "name": "listings",
      "outputs": [
        {
          "internalType": "uint256",
          "name": "id",
          "type": "uint256"
        },
        {
          "internalType": "address",
          "name": "owner",
          "type": "address"
        },
        {
          "internalType": "string",
          "name": "title",
          "type": "string"
        },
        {
          "internalType": "string",
          "name": "category",
          "type": "string"
        },
        {
          "internalType": "string",
          "name": "description",
          "type": "string"
        },
        {
          "internalType": "string",
          "name": "condition",
          "type": "string"
        },
        {
          "internalType": "string",
          "name": "location",
          "type": "string"
        },
        {
          "internalType": "bool",
          "name": "isReserved",
          "type": "bool"
        },
        {
          "internalType": "string",
          "name": "cid",
          "type": "string"
        },
        {
          "internalType": "uint256",
          "name": "creationTime",
          "type": "uint256"
        }
      ],
      "stateMutability": "view",
      "type": "function"
    },
    {
      "inputs": [
        {
          "internalType": "string",
          "name": "_title",
          "type": "string"
        },
        {
          "internalType": "string",
          "name": "_category",
          "type": "string"
        },
        {
          "internalType": "string",
          "name": "_description",
          "type": "string"
        },
        {
          "internalType": "string",
          "name": "_condition",
          "type": "string"
        },
        {
          "internalType": "string",
          "name": "_location",
          "type": "string"
        },
        {
          "internalType": "string",
          "name": "_cid",
          "type": "string"
        }
      ],
      "name": "postListing",
      "outputs": [],
      "stateMutability": "nonpayable",
      "type": "function"
    },
    {
      "inputs": [
        {
          "internalType": "uint256",
          "name": "_listingId",
          "type": "uint256"
        }
      ],
      "name": "reserveListing",
      "outputs": [],
      "stateMutability": "nonpayable",
      "type": "function"
    },
    {
      "inputs": [],
      "name": "rewardAmount",
      "outputs": [
        {
          "internalType": "uint256",
          "name": "",
          "type": "uint256"
        }
      ],
      "stateMutability": "view",
      "type": "function"
    }
  ],
  "bytecode": "0x60803461007857601f61143438819003918201601f19168301916001600160401b0383118484101761007d5780849260209460405283398101031261007857516001600160a01b038116908190036100785760008055600380546001600160a01b0319169190911790556040516113a090816100948239f35b600080fd5b634e487b7160e01b600052604160045260246000fdfe608080604052600436101561001357600080fd5b60003560e01c908163012f52ee1461108657508063305a67a814610f8f578063451d034f14610df957806382a71ef214610dd0578063a9b07c2614610db2578063c6a725d814610ab5578063d73b3130146101c2578063de74e57b146100aa5763f7b2a7be1461008257600080fd5b346100a55760003660031901126100a5576020604051678ac7230489e800008152f35b600080fd5b346100a55760203660031901126100a557600435600052600160205260406000208054600160a01b6001900360018301541691600281016100ea90611166565b906100f760038201611166565b61010360048301611166565b61010f60058401611166565b61011b60068501611166565b91600785015460ff16936008860161013290611166565b956009015496604051998a998a5260208a01526101408060408b015289016101599161120c565b88810360608a015261016a9161120c565b878103608089015261017b9161120c565b86810360a088015261018c9161120c565b85810360c087015261019d9161120c565b90151560e08501528381036101008501526101b79161120c565b906101208301520390f35b346100a55760c03660031901126100a5576004356001600160401b0381116100a5576101f29036906004016110de565b6024356001600160401b0381116100a5576102119036906004016110de565b9190926044356001600160401b0381116100a5576102339036906004016110de565b9490936064356001600160401b0381116100a5576102559036906004016110de565b9590916084356001600160401b0381116100a5576102779036906004016110de565b60a4356001600160401b0381116100a5576102969036906004016110de565b9490956000549a6000198c14610a9f5760018c016000556040519c8d6001600160401b0361014082818101109201111761070f57608061031a8f92958f968f8f9e6103439f9c6103026103309e61030e946103249d6101408c016040528b523360208c0152369161124c565b6040890152369161124c565b6060860152369161124c565b910152369161124c565b60a08b0152369161124c565b60c0880152600060e0880152369161124c565b610100850152426101208501528260005260016020526040600020845181556001810160018060a01b036020870151166bffffffffffffffffffffffff60a01b82541617905560408501518051906001600160401b03821161070f5781906103ae600285015461110b565b601f8111610a6a575b50602090601f83116001146109f8576000926109ed575b50508160011b916000199060031b1c19161760028201555b60608501518051906001600160401b03821161070f57819061040b600385015461110b565b601f81116109b8575b50602090601f83116001146109465760009261093b575b50508160011b916000199060031b1c19161760038201555b60808501518051906001600160401b03821161070f578190610468600485015461110b565b601f8111610906575b50602090601f831160011461089457600092610889575b50508160011b916000199060031b1c19161760048201555b60a08501518051906001600160401b03821161070f5781906104c5600585015461110b565b601f8111610854575b50602090601f83116001146107e2576000926107d7575b50508160011b916000199060031b1c19161760058201555b60c08501518051906001600160401b03821161070f578190610522600685015461110b565b601f81116107a2575b50602090601f831160011461073057600092610725575b50508160011b916000199060031b1c19161760068201555b6007810160e0860151151560ff8019835416911617905560088101946101008101519586516001600160401b03811161070f57610597825461110b565b601f81116106d2575b506020601f821160011461063e5792600992826101209360609897967f9687b779e981aa6968b26fe96d9fbeb5abe0fab6b2b4ec65d5177ab6bb4667dc9b9c600092610633575b50508160011b916000199060031b1c19161790555b01519101558260405193849233845260406020850152816040850152848401376000828201840152601f01601f19168101030190a2005b015190508c806105e7565b601f198216988360005260206000209960005b8181106106ba5750837f9687b779e981aa6968b26fe96d9fbeb5abe0fab6b2b4ec65d5177ab6bb4667dc9a9b6060999897946009979461012097600195106106a1575b505050811b0190556105fc565b015160001960f88460031b161c191690558c8080610694565b838301518c556001909b019a60209384019301610651565b6106ff90836000526020600020601f840160051c81019160208510610705575b601f0160051c0190611292565b886105a0565b90915081906106f2565b634e487b7160e01b600052604160045260246000fd5b015190508780610542565b9250600684016000526020600020906000935b601f1984168510610787576001945083601f1981161061076e575b505050811b01600682015561055a565b015160001960f88460031b161c1916905587808061075e565b81810151835560209485019460019093019290910190610743565b6107d190600686016000526020600020601f850160051c8101916020861061070557601f0160051c0190611292565b8861052b565b0151905087806104e5565b9250600584016000526020600020906000935b601f1984168510610839576001945083601f19811610610820575b505050811b0160058201556104fd565b015160001960f88460031b161c19169055878080610810565b818101518355602094850194600190930192909101906107f5565b61088390600586016000526020600020601f850160051c8101916020861061070557601f0160051c0190611292565b886104ce565b015190508780610488565b9250600484016000526020600020906000935b601f19841685106108eb576001945083601f198116106108d2575b505050811b0160048201556104a0565b015160001960f88460031b161c191690558780806108c2565b818101518355602094850194600190930192909101906108a7565b61093590600486016000526020600020601f850160051c8101916020861061070557601f0160051c0190611292565b88610471565b01519050878061042b565b9250600384016000526020600020906000935b601f198416851061099d576001945083601f19811610610984575b505050811b016003820155610443565b015160001960f88460031b161c19169055878080610974565b81810151835560209485019460019093019290910190610959565b6109e790600386016000526020600020601f850160051c8101916020861061070557601f0160051c0190611292565b88610414565b0151905087806103ce565b9250600284016000526020600020906000935b601f1984168510610a4f576001945083601f19811610610a36575b505050811b0160028201556103e6565b015160001960f88460031b161c19169055878080610a26565b81810151835560209485019460019093019290910190610a0b565b610a9990600286016000526020600020601f850160051c8101916020861061070557601f0160051c0190611292565b886103b7565b634e487b7160e01b600052601160045260246000fd5b346100a55760403660031901126100a55760243580151581036100a5576004356000908152600260205260409020600101805490916001600160a01b03821633148015919082610d93575b15610d4e5715610d0157505060043560005260016020523360018060a01b036001604060002001541603610ccb57805460ff60a01b1916600160a01b1781555b5460ff8160a01c1680610cbe575b610b83575b6040513381527f15c2f311c9e0f53b50388279894aeff029a3457884a6601e924fca879e12adcc602060043592a2005b60035460405163a9059cbb60e01b81526001600160a01b039283166004820152674563918244f4000060248201529160209183916044918391600091165af18015610c9357610c9f575b5060035460048035600090815260016020818152604080842090920154915163a9059cbb60e01b81526001600160a01b0392831694810194909452674563918244f400006024850152929384926044928492165af18015610c9357610c64575b506004356000526001602052610c4660406000206112f2565b60043560005260026020526000600160408220828155015580610b53565b610c859060203d602011610c8c575b610c7d8183611145565b810190611352565b5080610c2d565b503d610c73565b6040513d6000823e3d90fd5b610cb79060203d602011610c8c57610c7d8183611145565b5080610bcd565b5060ff8160a81c16610b4e565b60405162461bcd60e51b815260206004820152600e60248201526d2737ba103a34329039b2b63632b960911b6044820152606490fd5b610d195760ff60a81b1916600160a81b178155610b40565b60405162461bcd60e51b815260206004820152600d60248201526c2737ba103a343290313abcb2b960991b6044820152606490fd5b60405162461bcd60e51b815260206004820152601c60248201527f4e6f742070617274206f662074686973207472616e73616374696f6e000000006044820152606490fd5b5060016020819052604060002001546001600160a01b03163314610b00565b346100a55760003660031901126100a5576020600054604051908152f35b346100a55760003660031901126100a5576003546040516001600160a01b039091168152602090f35b346100a5576020806003193601126100a55760043590816000526001815260ff60076040600020015416610f585781600052600181526007604060002001600160ff1982541617905560018060a01b039060008183600354166064604051809481936323b872dd60e01b8352336004840152306024840152678ac7230489e8000060448401525af18015610c9357610f3b575b5060405160808101928184106001600160401b0385111761070f577ff3d6548800d5ddcdcff15736f84ffa1ae7a7e088a140b1c8feacb44904765c879360405284825282820191338352604081019160008352600160608301926000845288600052600287526040600020905181550193511683549260ff60a01b9051151560a01b169160ff60a81b9051151560a81b169269ffffffffffffffffffff60b01b161717179055604051338152a2005b610f5190823d8411610c8c57610c7d8183611145565b5083610e8c565b6064906040519062461bcd60e51b82526004820152601060248201526f105b1c9958591e481c995cd95c9d995960821b6044820152fd5b346100a5576020806003193601126100a55760043590816000526001815260018060a01b0360016040600020015416330361105257816000526001815260ff60076040600020015416611018576001908260005252610ff160406000206112f2565b7f53aae3f23c7401f48fa78a04049387bbed1058d9508c4e94fe9a5a64ff46d097600080a2005b6064906040519062461bcd60e51b825260048201526013602482015272131a5cdd1a5b99c81a5cc81c995cd95c9d9959606a1b6044820152fd5b6064906040519062461bcd60e51b82526004820152600d60248201526c2737ba103a34329037bbb732b960991b6044820152fd5b346100a55760203660031901126100a557608090600435600052600260205260ff60406000206001815491015490835260018060a01b0381166020840152818160a01c161515604084015260a81c1615156060820152f35b9181601f840112156100a5578235916001600160401b0383116100a557602083818601950101116100a557565b90600182811c9216801561113b575b602083101461112557565b634e487b7160e01b600052602260045260246000fd5b91607f169161111a565b90601f801991011681019081106001600160401b0382111761070f57604052565b906040519182600082549261117a8461110b565b9081845260019485811690816000146111e957506001146111a6575b50506111a492500383611145565b565b9093915060005260209081600020936000915b8183106111d15750506111a493508201013880611196565b855488840185015294850194879450918301916111b9565b9150506111a494506020925060ff191682840152151560051b8201013880611196565b919082519283825260005b848110611238575050826000602080949584010152601f8019910116010190565b602081830181015184830182015201611217565b9291926001600160401b03821161070f5760405191611275601f8201601f191660200184611145565b8294818452818301116100a5578281602093846000960137010152565b81811061129d575050565b60008155600101611292565b6112b3815461110b565b90816112bd575050565b81601f600093116001146112cf575055565b9080839182526112ee601f60208420940160051c840160018501611292565b5555565b600960009182815582600182015561130c600282016112a9565b611318600382016112a9565b611324600482016112a9565b611330600582016112a9565b61133c600682016112a9565b82600782015561134e600882016112a9565b0155565b908160209103126100a5575180151581036100a5579056fea2646970667358221220d0ae9277bb1e1f978ce3432caa974881d41f9d62065d7e418658bc524fad14fb64736f6c63430008140033",
  "linkReferences": {},
  "deployedLinkReferences": {}
}