{
  "_format": "hh-sol-artifact-1",
  "contractName": "NoRushToTrash",
  "sourceName": "contracts/NoRushToTrash.sol",
  "abi": [
    {
      "inputs": [
        {
          "internalType": "address",
          "name": "_co2TokenAddress",
          "type": "address"
        }
      ],
      "stateMutability": "nonpayable",
      "type": "constructor"
    },
    {
      "anonymous": false,
      "inputs": [
        {
          "indexed": true,
          "internalType": "uint256",
          "name": "listingId",
          "type": "uint256"
        },
        {
          "indexed": false,
          "internalType": "address",
          "name": "by",
          "type": "address"
        }
      ],
      "name": "TransactionConfirmed",
      "type": "event"
    },
    {
      "anonymous": false,
      "inputs": [
        {
          "indexed": true,
          "internalType": "uint256",
          "name": "listingId",
          "type": "uint256"
        }
      ],
      "name": "listingCancelled",
      "type": "event"
    },
    {
      "anonymous": false,
      "inputs": [
        {
          "indexed": true,
          "internalType": "uint256",
          "name": "listingId",
          "type": "uint256"
        },
        {
          "indexed": false,
          "internalType": "address",
          "name": "owner",
          "type": "address"
        },
        {
          "indexed": false,
          "internalType": "string",
          "name": "title",
          "type": "string"
        }
      ],
      "name": "listingPosted",
      "type": "event"
    },
    {
      "anonymous": false,
      "inputs": [
        {
          "indexed": true,
          "internalType": "uint256",
          "name": "listingId",
          "type": "uint256"
        },
        {
          "indexed": false,
          "internalType": "address",
          "name": "buyer",
          "type": "address"
        }
      ],
      "name": "listingReserved",
      "type": "event"
    },
    {
      "inputs": [
        {
          "internalType": "uint256",
          "name": "_listingId",
          "type": "uint256"
        }
      ],
      "name": "cancellisting",
      "outputs": [],
      "stateMutability": "nonpayable",
      "type": "function"
    },
    {
      "inputs": [],
      "name": "carbonToken",
      "outputs": [
        {
          "internalType": "contract IERC20",
          "name": "",
          "type": "address"
        }
      ],
      "stateMutability": "view",
      "type": "function"
    },
    {
      "inputs": [
        {
          "internalType": "uint256",
          "name": "_listingId",
          "type": "uint256"
        },
        {
          "internalType": "bool",
          "name": "_isSeller",
          "type": "bool"
        }
      ],
      "name": "confirmTransaction",
      "outputs": [],
      "stateMutability": "nonpayable",
      "type": "function"
    },
    {
      "inputs": [
        {
          "internalType": "uint256",
          "name": "",
          "type": "uint256"
        }
      ],
      "name": "escrows",
      "outputs": [
        {
          "internalType": "uint256",
          "name": "listingId",
          "type": "uint256"
        },
        {
          "internalType": "address",
          "name": "buyer",
          "type": "address"
        },
        {
          "internalType": "bool",
          "name": "sellerConfirmed",
          "type": "bool"
        },
        {
          "internalType": "bool",
          "name": "buyerConfirmed",
          "type": "bool"
        }
      ],
      "stateMutability": "view",
      "type": "function"
    },
    {
      "inputs": [],
      "name": "listingCount",
      "outputs": [
        {
          "internalType": "uint256",
          "name": "",
          "type": "uint256"
        }
      ],
      "stateMutability": "view",
      "type": "function"
    },
    {
      "inputs": [
        {
          "internalType": "uint256",
          "name": "",
          "type": "uint256"
        }
      ],
      "name": "listings",
      "outputs": [
        {
          "internalType": "uint256",
          "name": "id",
          "type": "uint256"
        },
        {
          "internalType": "address",
          "name": "owner",
          "type": "address"
        },
        {
          "internalType": "string",
          "name": "title",
          "type": "string"
        },
        {
          "internalType": "string",
          "name": "description",
          "type": "string"
        },
        {
          "internalType": "string",
          "name": "location",
          "type": "string"
        },
        {
          "internalType": "bool",
          "name": "isReserved",
          "type": "bool"
        }
      ],
      "stateMutability": "view",
      "type": "function"
    },
    {
      "inputs": [
        {
          "internalType": "string",
          "name": "_title",
          "type": "string"
        },
        {
          "internalType": "string",
          "name": "_description",
          "type": "string"
        },
        {
          "internalType": "string",
          "name": "_location",
          "type": "string"
        }
      ],
      "name": "postlisting",
      "outputs": [],
      "stateMutability": "nonpayable",
      "type": "function"
    },
    {
      "inputs": [
        {
          "internalType": "uint256",
          "name": "_listingId",
          "type": "uint256"
        }
      ],
      "name": "reservelisting",
      "outputs": [],
      "stateMutability": "nonpayable",
      "type": "function"
    },
    {
      "inputs": [],
      "name": "rewardAmount",
      "outputs": [
        {
          "internalType": "uint256",
          "name": "",
          "type": "uint256"
        }
      ],
      "stateMutability": "view",
      "type": "function"
    }
  ],
  "bytecode": "0x6080604052600080553480156200001557600080fd5b5060405162001e0a38038062001e0a83398181016040528101906200003b9190620000ed565b80600360006101000a81548173ffffffffffffffffffffffffffffffffffffffff021916908373ffffffffffffffffffffffffffffffffffffffff160217905550506200011f565b600080fd5b600073ffffffffffffffffffffffffffffffffffffffff82169050919050565b6000620000b58262000088565b9050919050565b620000c781620000a8565b8114620000d357600080fd5b50565b600081519050620000e781620000bc565b92915050565b60006020828403121562000106576200010562000083565b5b60006200011684828501620000d6565b91505092915050565b611cdb806200012f6000396000f3fe608060405234801561001057600080fd5b50600436106100935760003560e01c8063a9b07c2611610066578063a9b07c2614610121578063b47b5f3a1461013f578063c6a725d81461015b578063de74e57b14610177578063f7b2a7be146101ac57610093565b8063012f52ee1461009857806313dd8766146100cb57806348889d6c146100e757806382a71ef214610103575b600080fd5b6100b260048036038101906100ad919061111b565b6101ca565b6040516100c294939291906111b3565b60405180910390f35b6100e560048036038101906100e0919061125d565b610234565b005b61010160048036038101906100fc919061111b565b61046e565b005b61010b61062f565b6040516101189190611370565b60405180910390f35b610129610655565b604051610136919061138b565b60405180910390f35b6101596004803603810190610154919061111b565b61065b565b005b610175600480360381019061017091906113d2565b6108b7565b005b610191600480360381019061018c919061111b565b610e71565b6040516101a3969594939291906114a2565b60405180910390f35b6101b4611072565b6040516101c1919061138b565b60405180910390f35b60026020528060005260406000206000915090508060000154908060010160009054906101000a900473ffffffffffffffffffffffffffffffffffffffff16908060010160149054906101000a900460ff16908060010160159054906101000a900460ff16905084565b600080600081548092919061024890611547565b9190505590506040518060c001604052808281526020013373ffffffffffffffffffffffffffffffffffffffff16815260200188888080601f016020809104026020016040519081016040528093929190818152602001838380828437600081840152601f19601f82011690508083019250505050505050815260200186868080601f016020809104026020016040519081016040528093929190818152602001838380828437600081840152601f19601f82011690508083019250505050505050815260200184848080601f016020809104026020016040519081016040528093929190818152602001838380828437600081840152601f19601f82011690508083019250505050505050815260200160001515815250600160008381526020019081526020016000206000820151816000015560208201518160010160006101000a81548173ffffffffffffffffffffffffffffffffffffffff021916908373ffffffffffffffffffffffffffffffffffffffff16021790555060408201518160020190816103d991906117c0565b5060608201518160030190816103ef91906117c0565b50608082015181600401908161040591906117c0565b5060a08201518160050160006101000a81548160ff021916908315150217905550905050807f9687b779e981aa6968b26fe96d9fbeb5abe0fab6b2b4ec65d5177ab6bb4667dc33898960405161045d939291906118ce565b60405180910390a250505050505050565b3373ffffffffffffffffffffffffffffffffffffffff166001600083815260200190815260200160002060010160009054906101000a900473ffffffffffffffffffffffffffffffffffffffff1673ffffffffffffffffffffffffffffffffffffffff1614610512576040517f08c379a00000000000000000000000000000000000000000000000000000000081526004016105099061194c565b60405180910390fd5b6001600082815260200190815260200160002060050160009054906101000a900460ff1615610576576040517f08c379a000000000000000000000000000000000000000000000000000000000815260040161056d906119b8565b60405180910390fd5b600160008281526020019081526020016000206000808201600090556001820160006101000a81549073ffffffffffffffffffffffffffffffffffffffff02191690556002820160006105c9919061107e565b6003820160006105d9919061107e565b6004820160006105e9919061107e565b6005820160006101000a81549060ff02191690555050807f53aae3f23c7401f48fa78a04049387bbed1058d9508c4e94fe9a5a64ff46d09760405160405180910390a250565b600360009054906101000a900473ffffffffffffffffffffffffffffffffffffffff1681565b60005481565b6001600082815260200190815260200160002060050160009054906101000a900460ff16156106bf576040517f08c379a00000000000000000000000000000000000000000000000000000000081526004016106b690611a24565b60405180910390fd5b600180600083815260200190815260200160002060050160006101000a81548160ff021916908315150217905550600360009054906101000a900473ffffffffffffffffffffffffffffffffffffffff1673ffffffffffffffffffffffffffffffffffffffff166323b872dd3330678ac7230489e800006040518463ffffffff1660e01b815260040161075493929190611a44565b6020604051808303816000875af1158015610773573d6000803e3d6000fd5b505050506040513d601f19601f820116820180604052508101906107979190611a90565b5060405180608001604052808281526020013373ffffffffffffffffffffffffffffffffffffffff16815260200160001515815260200160001515815250600260008381526020019081526020016000206000820151816000015560208201518160010160006101000a81548173ffffffffffffffffffffffffffffffffffffffff021916908373ffffffffffffffffffffffffffffffffffffffff16021790555060408201518160010160146101000a81548160ff02191690831515021790555060608201518160010160156101000a81548160ff021916908315150217905550905050807ff3d6548800d5ddcdcff15736f84ffa1ae7a7e088a140b1c8feacb44904765c87336040516108ac9190611abd565b60405180910390a250565b60006002600084815260200190815260200160002090503373ffffffffffffffffffffffffffffffffffffffff168160010160009054906101000a900473ffffffffffffffffffffffffffffffffffffffff1673ffffffffffffffffffffffffffffffffffffffff16148061098d57503373ffffffffffffffffffffffffffffffffffffffff166001600085815260200190815260200160002060010160009054906101000a900473ffffffffffffffffffffffffffffffffffffffff1673ffffffffffffffffffffffffffffffffffffffff16145b6109cc576040517f08c379a00000000000000000000000000000000000000000000000000000000081526004016109c390611b24565b60405180910390fd5b8115610a98573373ffffffffffffffffffffffffffffffffffffffff166001600085815260200190815260200160002060010160009054906101000a900473ffffffffffffffffffffffffffffffffffffffff1673ffffffffffffffffffffffffffffffffffffffff1614610a76576040517f08c379a0000000000000000000000000000000000000000000000000000000008152600401610a6d90611b90565b60405180910390fd5b60018160010160146101000a81548160ff021916908315150217905550610b48565b3373ffffffffffffffffffffffffffffffffffffffff168160010160009054906101000a900473ffffffffffffffffffffffffffffffffffffffff1673ffffffffffffffffffffffffffffffffffffffff1614610b2a576040517f08c379a0000000000000000000000000000000000000000000000000000000008152600401610b2190611bfc565b60405180910390fd5b60018160010160156101000a81548160ff0219169083151502179055505b8060010160149054906101000a900460ff168015610b7457508060010160159054906101000a900460ff165b15610e3457600360009054906101000a900473ffffffffffffffffffffffffffffffffffffffff1673ffffffffffffffffffffffffffffffffffffffff1663a9059cbb8260010160009054906101000a900473ffffffffffffffffffffffffffffffffffffffff166002678ac7230489e80000610bf19190611c4b565b6040518363ffffffff1660e01b8152600401610c0e929190611c7c565b6020604051808303816000875af1158015610c2d573d6000803e3d6000fd5b505050506040513d601f19601f82011682018060405250810190610c519190611a90565b50600360009054906101000a900473ffffffffffffffffffffffffffffffffffffffff1673ffffffffffffffffffffffffffffffffffffffff1663a9059cbb6001600086815260200190815260200160002060010160009054906101000a900473ffffffffffffffffffffffffffffffffffffffff166002678ac7230489e80000610cdc9190611c4b565b6040518363ffffffff1660e01b8152600401610cf9929190611c7c565b6020604051808303816000875af1158015610d18573d6000803e3d6000fd5b505050506040513d601f19601f82011682018060405250810190610d3c9190611a90565b50600160008481526020019081526020016000206000808201600090556001820160006101000a81549073ffffffffffffffffffffffffffffffffffffffff0219169055600282016000610d90919061107e565b600382016000610da0919061107e565b600482016000610db0919061107e565b6005820160006101000a81549060ff02191690555050600260008481526020019081526020016000206000808201600090556001820160006101000a81549073ffffffffffffffffffffffffffffffffffffffff02191690556001820160146101000a81549060ff02191690556001820160156101000a81549060ff021916905550505b827f15c2f311c9e0f53b50388279894aeff029a3457884a6601e924fca879e12adcc33604051610e649190611abd565b60405180910390a2505050565b60016020528060005260406000206000915090508060000154908060010160009054906101000a900473ffffffffffffffffffffffffffffffffffffffff1690806002018054610ec0906115ed565b80601f0160208091040260200160405190810160405280929190818152602001828054610eec906115ed565b8015610f395780601f10610f0e57610100808354040283529160200191610f39565b820191906000526020600020905b815481529060010190602001808311610f1c57829003601f168201915b505050505090806003018054610f4e906115ed565b80601f0160208091040260200160405190810160405280929190818152602001828054610f7a906115ed565b8015610fc75780601f10610f9c57610100808354040283529160200191610fc7565b820191906000526020600020905b815481529060010190602001808311610faa57829003601f168201915b505050505090806004018054610fdc906115ed565b80601f0160208091040260200160405190810160405280929190818152602001828054611008906115ed565b80156110555780601f1061102a57610100808354040283529160200191611055565b820191906000526020600020905b81548152906001019060200180831161103857829003601f168201915b5050505050908060050160009054906101000a900460ff16905086565b678ac7230489e8000081565b50805461108a906115ed565b6000825580601f1061109c57506110bb565b601f0160209004906000526020600020908101906110ba91906110be565b5b50565b5b808211156110d75760008160009055506001016110bf565b5090565b600080fd5b600080fd5b6000819050919050565b6110f8816110e5565b811461110357600080fd5b50565b600081359050611115816110ef565b92915050565b600060208284031215611131576111306110db565b5b600061113f84828501611106565b91505092915050565b611151816110e5565b82525050565b600073ffffffffffffffffffffffffffffffffffffffff82169050919050565b600061118282611157565b9050919050565b61119281611177565b82525050565b60008115159050919050565b6111ad81611198565b82525050565b60006080820190506111c86000830187611148565b6111d56020830186611189565b6111e260408301856111a4565b6111ef60608301846111a4565b95945050505050565b600080fd5b600080fd5b600080fd5b60008083601f84011261121d5761121c6111f8565b5b8235905067ffffffffffffffff81111561123a576112396111fd565b5b60208301915083600182028301111561125657611255611202565b5b9250929050565b6000806000806000806060878903121561127a576112796110db565b5b600087013567ffffffffffffffff811115611298576112976110e0565b5b6112a489828a01611207565b9650965050602087013567ffffffffffffffff8111156112c7576112c66110e0565b5b6112d389828a01611207565b9450945050604087013567ffffffffffffffff8111156112f6576112f56110e0565b5b61130289828a01611207565b92509250509295509295509295565b6000819050919050565b600061133661133161132c84611157565b611311565b611157565b9050919050565b60006113488261131b565b9050919050565b600061135a8261133d565b9050919050565b61136a8161134f565b82525050565b60006020820190506113856000830184611361565b92915050565b60006020820190506113a06000830184611148565b92915050565b6113af81611198565b81146113ba57600080fd5b50565b6000813590506113cc816113a6565b92915050565b600080604083850312156113e9576113e86110db565b5b60006113f785828601611106565b9250506020611408858286016113bd565b9150509250929050565b600081519050919050565b600082825260208201905092915050565b60005b8381101561144c578082015181840152602081019050611431565b60008484015250505050565b6000601f19601f8301169050919050565b600061147482611412565b61147e818561141d565b935061148e81856020860161142e565b61149781611458565b840191505092915050565b600060c0820190506114b76000830189611148565b6114c46020830188611189565b81810360408301526114d68187611469565b905081810360608301526114ea8186611469565b905081810360808301526114fe8185611469565b905061150d60a08301846111a4565b979650505050505050565b7f4e487b7100000000000000000000000000000000000000000000000000000000600052601160045260246000fd5b6000611552826110e5565b91507fffffffffffffffffffffffffffffffffffffffffffffffffffffffffffffffff820361158457611583611518565b5b600182019050919050565b7f4e487b7100000000000000000000000000000000000000000000000000000000600052604160045260246000fd5b7f4e487b7100000000000000000000000000000000000000000000000000000000600052602260045260246000fd5b6000600282049050600182168061160557607f821691505b602082108103611618576116176115be565b5b50919050565b60008190508160005260206000209050919050565b60006020601f8301049050919050565b600082821b905092915050565b6000600883026116807fffffffffffffffffffffffffffffffffffffffffffffffffffffffffffffffff82611643565b61168a8683611643565b95508019841693508086168417925050509392505050565b60006116bd6116b86116b3846110e5565b611311565b6110e5565b9050919050565b6000819050919050565b6116d7836116a2565b6116eb6116e3826116c4565b848454611650565b825550505050565b600090565b6117006116f3565b61170b8184846116ce565b505050565b5b8181101561172f576117246000826116f8565b600181019050611711565b5050565b601f821115611774576117458161161e565b61174e84611633565b8101602085101561175d578190505b61177161176985611633565b830182611710565b50505b505050565b600082821c905092915050565b600061179760001984600802611779565b1980831691505092915050565b60006117b08383611786565b9150826002028217905092915050565b6117c982611412565b67ffffffffffffffff8111156117e2576117e161158f565b5b6117ec82546115ed565b6117f7828285611733565b600060209050601f83116001811461182a5760008415611818578287015190505b61182285826117a4565b86555061188a565b601f1984166118388661161e565b60005b828110156118605784890151825560018201915060208501945060208101905061183b565b8683101561187d5784890151611879601f891682611786565b8355505b6001600288020188555050505b505050505050565b82818337600083830152505050565b60006118ad838561141d565b93506118ba838584611892565b6118c383611458565b840190509392505050565b60006040820190506118e36000830186611189565b81810360208301526118f68184866118a1565b9050949350505050565b7f4e6f7420746865206f776e657200000000000000000000000000000000000000600082015250565b6000611936600d8361141d565b915061194182611900565b602082019050919050565b6000602082019050818103600083015261196581611929565b9050919050565b7f6c697374696e6720697320726573657276656400000000000000000000000000600082015250565b60006119a260138361141d565b91506119ad8261196c565b602082019050919050565b600060208201905081810360008301526119d181611995565b9050919050565b7f416c726561647920726573657276656400000000000000000000000000000000600082015250565b6000611a0e60108361141d565b9150611a19826119d8565b602082019050919050565b60006020820190508181036000830152611a3d81611a01565b9050919050565b6000606082019050611a596000830186611189565b611a666020830185611189565b611a736040830184611148565b949350505050565b600081519050611a8a816113a6565b92915050565b600060208284031215611aa657611aa56110db565b5b6000611ab484828501611a7b565b91505092915050565b6000602082019050611ad26000830184611189565b92915050565b7f4e6f742070617274206f662074686973207472616e73616374696f6e00000000600082015250565b6000611b0e601c8361141d565b9150611b1982611ad8565b602082019050919050565b60006020820190508181036000830152611b3d81611b01565b9050919050565b7f4e6f74207468652073656c6c6572000000000000000000000000000000000000600082015250565b6000611b7a600e8361141d565b9150611b8582611b44565b602082019050919050565b60006020820190508181036000830152611ba981611b6d565b9050919050565b7f4e6f742074686520627579657200000000000000000000000000000000000000600082015250565b6000611be6600d8361141d565b9150611bf182611bb0565b602082019050919050565b60006020820190508181036000830152611c1581611bd9565b9050919050565b7f4e487b7100000000000000000000000000000000000000000000000000000000600052601260045260246000fd5b6000611c56826110e5565b9150611c61836110e5565b925082611c7157611c70611c1c565b5b828204905092915050565b6000604082019050611c916000830185611189565b611c9e6020830184611148565b939250505056fea2646970667358221220365f5d4bd521d56f894b509606d1f6ada28a6f28de3efca7bc55003ff0256bd764736f6c63430008140033",
  "linkReferences": {},
  "deployedLinkReferences": {}
}